:0400000080318E2895
:100008007E1480312100901E0A280B281428200015
:10001800901E0F28102814288631EF2680318C284E
:100028000B1F172818288C282100941D1C281D2810
:1000380026282000941D2128222826288F315A2777
:1000480080318C282100131E2A282B2834282000D0
:10005800131E2F28302834288F31732780318C289D
:100068002100141C3828392842282000141C3D2857
:100078003E2842288731312780318C282100141DE1
:100088004628472850282000141D4B284C28502863
:100098008731052780318C282100941C5428552845
:1000A8005E282000941C59285A285E2887311B276F
:1000B80080318C282100111C622863286C282000BC
:1000C800111C672868286C288731F42780318C2810
:1000D8002100911E702871287C282000911E752807
:1000E80076287C282B088A002A080A0080318C2868
:1000F8002100111E802881288C282000111E8528A7
:1001080086288C282D088A002C080A0080318C2823
:100118007E10090080319028FA01FB01FC01FD01E5
:10012800203084000030850032308F31B52780318F
:10013800A0308400003085003A308F31B5278031F7
:100148007E10200082311E2A2000D5002229520C60
:100158002200031C8C1203188C166229520C2200F0
:10016800031C0C1203180C166229520C2200031CE3
:100178008E1203188E166229520C2200031C0E12CE
:1001880003180E166229520C2200031C8E11031844
:100198008E156229520C2200031C0E1303180E1729
:1001A8006229520C2200031C8E1303188E17622931
:1001B800520C2200031C8D1303188D176229520C50
:1001C8002200031C0C1003180C146229520C220084
:1001D800031C8C1003188C146229520C2200031C77
:1001E8000C1103180C156229520C2200031C0E1066
:1001F80003180E146229520C2200031C8E100318D7
:100208008E146229520C2200031C0E1103180E15BD
:100218006229520C2200031C0D1203180D166229C4
:10022800520C2200031C8D1203188D166229520CE1
:100238002200031C0D1303180D1762295508D3005B
:10024800D4015408003A03192A2962295308003AAC
:100258000319AB28013A0319B228033A0319622992
:10026800013A0319B928073A0319C028013A0319B2
:10027800C728033A0319CE28013A0319D5280F3A9B
:100288000319DC28013A0319E328033A0319EA2879
:10029800013A0319F128073A0319F828013A031912
:1002A800FF28033A03190629013A03190D291F3AB1
:1002B80003191429013A03191B296229080020008F
:1002C800D500DD29520C2100031C8C1203188C1652
:1002D8001D2A520C2100031C0C1203180C161D2A8F
:1002E800520C2100031C8E1203188E161D2A520C64
:1002F8002100031C0E1203180E161D2A520C210091
:10030800031C8E1103188E151D2A520C2100031C84
:100318000E1303180E171D2A520C2100031C8E13EE
:1003280003188E171D2A520C2100031C8D13031865
:100338008D171D2A520C2100031C0C1003180C14D5
:100348001D2A520C2100031C8C1003188C141D2A22
:10035800520C2100031C0C1103180C151D2A520CF9
:100368002100031C0E1003180E141D2A520C210024
:10037800031C8E1003188E141D2A520C2100031C16
:100388000E1103180E151D2A520C2100031C0D1204
:1003980003180D161D2A520C2100031C8D12031878
:1003A8008D161D2A520C2100031C0D1303180D175E
:1003B8001D2A5508D300D4015408003A0319E52929
:1003C8001D2A5308003A03196629013A03196D29B1
:1003D800033A03191D2A013A03197429073A031924
:1003E8007B29013A03198229033A03198929013A19
:1003F800031990290F3A03199729013A03199E29DD
:10040800033A0319A529013A0319AC29073A031934
:10041800B329013A0319BA29033A0319C129013A40
:100428000319C8291F3A0319CF29013A0319D629F4
:100438001D2A08008731712782318631432682318F
:100448002000D2010C308131632182312000D20199
:100458000C308031A82082318731942782312000E6
:100468005508EF005408EE005308ED005208EC0060
:100478006F08EA006E08E9006D08E8006C08E700FC
:100488000630E1000130E20084312224823120006C
:10049800EB018F316F278231873194278231200019
:1004A8005508EF005408EE005308ED005208EC0020
:1004B80067086C02E30068086D3BE40069086E3B5E
:1004C800E5006A086F3BE6006608031D762A6508A2
:1004D800031D762AF53063020130643B031C752A3C
:1004E800762A502A972A0630E1000130E20084314A
:1004F8002224823101302000E3006308EB07AB2A95
:100508008830E1000130E2008431222482317E2AE1
:100518000B30E1000230E2008431222482310230C3
:100528002000EB02AB2A20006B08E300E40164081A
:10053800003A0319A02AAB2A6308003A0319772A5C
:10054800013A0319842A033A03198C2AAB2A6F0843
:10055800EA006E08E9006D08E8006C08E700502A18
:1005680080318E28F2000C2B20000C0E890C0139EA
:100578004C2B20000C0E01394C2BFF304C2B20004B
:100588000E0E890C01394C2B20000E0E01394C2B14
:1005980020000E0CF000F00C700C01394C2B2000E0
:1005A8000E0E890C890C01394C2B20000E0D0E0DF6
:1005B80001394C2B20000D0D0D0D01394C2B20005D
:1005C8000C0801394C2B20000C0C01394C2B200055
:1005D8000C0C890C01394C2B20000E0801394C2BCE
:1005E80020000E0C01394C2B20000E0C890C01390F
:1005F8004C2B20000D0E01394C2B20000D0E890CC0
:1006080001394C2B20000D0E890C890C01394C2B1B
:100618007208F000F1017108003A0319142BC12A7D
:100628007008003A0319B82A013A0319BD2A033A97
:100638000319C12A013A0319C32A073A0319C82A18
:10064800013A0319CC2A033A0319D32A013A0319A8
:10065800D92A0F3A0319DE2A013A0319E32A033A81
:100668000319E72A013A0319EB2A073A0319F02A72
:10067800013A0319F42A033A0319F82A013A03192B
:10068800FD2A1F3A0319012B013A0319062BC12A27
:1006980008002000DC01D51F522B532B602BD209F8
:1006A800D309D409D509D20A0319D30A0319D40ADC
:1006B8000319D50ADC01DC0AD91F632B642B732BC1
:1006C800D609D709D809D909D60A0319D70A0319A7
:1006D800D80A0319D90A0130DA005A08DC060030B2
:1006E800E0000030DF000030DE000030DD0055089B
:1006F8005404530452040319822B832BC42BDB01AB
:10070800DB0A912B0130D235D30DD40DD50D890BD1
:10071800872B0130DA005A08DB07D51F942B952B5D
:10072800862B0130DD35DE0DDF0DE00D890B962BB4
:1007380055085902031DAA2B54085802031DAA2B59
:1007480053085702031DAA2B52085602031CAD2B4F
:10075800AE2BB72B5208D6025308D73B5408D83BC8
:100768005508D93B5D140130D536D40CD30CD20CC6
:10077800890BB82B0130DB02031DC32BC42B952B2F
:100788005C080319C82BC92BD42BDD09DE09DF0946
:10079800E009DD0A0319DE0A0319DF0A0319E00A72
:1007A8006008D5005F08D4005E08D3005D08D20059
:1007B80008002100911251302000D2000530D300EA
:1007C8008F319D2783312100111221302000D20062
:1007D8000630D3008F31A3278331083023009F00D0
:1007E80090309D0024309E00A0309B0001309C007A
:1007F800FE302000D2000730D3008F31912783319B
:1008080067302000D2000F30D3008F319727833113
:1008180063302000D2000F30D3008F318B27833113
:100828002000C801CD01CC010830D4005408CB0009
:10083800CA01FA01C9012100911608000030200000
:100848006202643003196102031C2B2C2C2C622CCD
:1008580027306202113003196102031C342C352C35
:10086800362C622C8F31C227843120006208210087
:10087800D900200061082100D80020006108D200BA
:100888006208D300D401D5010030D9001E30D80049
:100898008430D7008030D60083314D238431200046
:1008A8005308A3005208A2002308D3002208D2004C
:1008B8008731C72784318F316F27843108008F3102
:1008C80057278431F5007508FB00872C7408200031
:1008D800B5007308B4007B08F5007508CE009E2C9F
:1008E80074082000B3007308B20034083202F5001F
:1008F8003508333BF6004E08860087017508C03F6F
:100908007608C13F9E2C7B08053E860087010108BA
:100918008231B6228431F500F6017608003A0319CF
:10092800962C9E2C7508003A0319742C013A031969
:100938006A2C9E2C08008F3157278431F5007508E2
:10094800FC00C32C74082000BB007308BA007C08A4
:10095800F5007508CF00DA2C74082000B900730878
:10096800B8003A083802F5003B08393BF6004F0852
:10097800860087017508C03F7608C13FDA2C7C08DD
:10098800053E8600870101088231B6228431F500D0
:10099800F6017608003A0319D22CDA2C7508003AC9
:1009A8000319B02C013A0319A62CDA2C08008F3150
:1009B80057278431F5007508FD00FF2C74082000C6
:1009C800C1007308C0007D08F5007508D000162D19
:1009D80074082000BF007308BE0040083E02F500FE
:1009E80041083F3BF6005008860087017508C03F64
:1009F8007608C13F162D7D08053E8600870101084F
:100A08008231B6228431F500F6017608003A0319DE
:100A18000E2D162D7508003A0319EC2C013A03190E
:100A2800E22C162D08004534523452344F345234D7
:100A38003A34203449346E34763461346C34693451
:100A4800643420347434723469346734503469340B
:100A58006E34203428346D3475347334743420344F
:100A68004E344F34543420346234653420345B348B
:100A7800413432342C342034413433342C3420344F
:100A8800413434342C342034433433342C3420343B
:100A9800433435345D342934003420004A08A03EFC
:100AA80086008701810123001D1D5B2D5C2D672DAC
:100AB80020004A08A03E86008701811429088A0080
:100AC80028080A00853123009D1C6B2D6C2D772D7D
:100AD80020004A08A03E86008701011527088A00E1
:100AE80026080A00853120004A08A03E86008701B2
:100AF80001080319802D812D872D25088A002408D7
:100B08000A0085318A2D86315D268531080022004C
:100B18008C018D018E01373021008C00F0308D0062
:100B2800EF308E00D73023008E00D0308D00333068
:100B38008C0024008D018C018E0125008C018D0113
:100B48008E01373026008C00F0308D00FF308E008B
:100B58003F3027008C00F0308D00FF308E000D30C4
:100B68003C00A400133095000230960014303D007C
:100B7800A40015303C0094000F303D00A10008008F
:100B88004534523452344F3452343A342034493490
:100B98006E34763461346C346934643420346534AA
:100BA800633468346F34503469346E3420342834F4
:100BB8006D347534733474342034623465342034BD
:100BC8005B34413432342C342034413434342C34C2
:100BD8002034433433342C342034433435345D34B6
:100BE800293400348731EA27853185318B258531D1
:100BF8008731D42785318F316B278531863190260F
:100C080085318631C02685318F31C92785318731B5
:100C18005C2785318631A826853187318327853140
:100C28008731472785318731E02785318631D826B6
:100C380085318331DD2385310800083020004B02DF
:100C48000318272E282E402E4C08B03E8600870118
:100C5800010823009A000130F00070082000CC073A
:100C680008304C02031C392E3A2E3B2ECC010130A1
:100C7800F0007008CB07422E210011120800200056
:100C8800D2010D308131632186312000D2010D302F
:100C98008031A8208631B8302100D8000130D90031
:100CA800C1302000A2001130A3008F31C227863145
:100CB800080023001908F00020004A08A83E860012
:100CC8008701700881000130F0007008CA070830F9
:100CD8004A02031C702E712E722ECA010130F000D8
:100CE8007008C90708002800131D7B2E7C2E872E4C
:100CF80013102000530828009200200052082800F2
:100D0800910013148F2E2000530828009200200011
:100D180052082800910008008330260093009401AF
:100D28009201910163302000D2000430D3008F314A
:100D38008527863125001F08CF3910389F002000ED
:100D4800141121001415080083302500970098011C
:100D5800960195019F302000D2000430D3008F31D6
:100D68007F27863125001F08F33904389F002000AB
:100D780094102100941408008330250093009401F6
:100D880092019101DB302000D2000430D3008F3172
:100D98007927863125001F08FC3901389F0020007B
:100DA800141021001414080020009C019A019901D4
:100DB80011101A08B1001908B000210011140030F0
:100DC8002000D2000030D3008F31AF278631213088
:100DD80020009B000800200090120130C40700305A
:100DE800C53D00304502043003194402031CFD2EA2
:100DF800FE2E042F8F31BB2786312000C401C50188
:100E080008002000141126001108F7007708F800E0
:100E18001208F7007708F9007908F4007808F30059
:100E2800200037088A0036080A00873108002000A9
:100E3800941025001508F7007708F8001608F70041
:100E48007708F9007908F4007808F30020003D08D5
:100E58008A003C080A008731080020001410250089
:100E68001108F7007708F8001208F7007708F9006A
:100E78007908F4007808F300200043088A00420843
:100E88000A0087310800280094019201910120008E
:100E98001312A001A1012100131600302000D20076
:100EA8000030D3008F31DA278731280093010800FA
:100EB800423020009800F9309600950190122100E8
:100EC800901600302000D2000030D3008F31A927BF
:100ED800873180302000970008002100900191019F
:100EE80092019301940120009001910192019301D4
:100EF80094018531F62587310B178B17080081304F
:100F08002600970011309600C130950025001F0873
:100F18003F3980389F002000941121009415080063
:100F2800210051082000D500210050082000D400DD
:100F380021004F082000D30021004E082000D200D5
:100F480008002800131DA92FAA2FB12F131071080C
:100F58009200700891001314B52F71089200700860
:100F68009100080020001B1DBA2FBB2FC22F1B1099
:100F780071089A00700899001B14C62F71089A000E
:100F880070089900080020005308D5005208D400C2
:100F980054082600950020005508260096000800F1
:100FA800320099019B019D0104309F009E011C1C89
:100FB800DE2FDF2FDB2F080080302C0099009801EE
:100FC80097011F08FC3901389F0008003200910181
:100FD800920166309300940195011F309600080035
:100FE800200011103108F1003008F0008731B627D1
:060FF8008731080008002B
:101EAE00200051080800200094110800280013108B
:101EBE00080028001314080086315D268F310800B3
:101ECE0023001D121D160800163021009700080071
:101EDE008F3160278F310800200013128F31D127E8
:101EEE008F31080020005308C3005208C2000800BA
:101EFE0020005308BD005208BC0008002000530803
:101F0E00B7005208B600080020005308A50052087A
:101F1E00A400080020005308A9005208A8000800D9
:101F2E0020005308A7005208A600080020005308FE
:101F3E00AB005208AA00080020005308AD0052085A
:101F4E00AC00080020005308C7005208C600080065
:101F5E0020005308AF005208AE0008006400800154
:101F6E000131890BB62F00348F31F6278F318F3127
:101F7E00EC278F3108008F315D278F318F31E327AA
:101F8E008F310800F93020009E009D01911006301F
:101F9E009F00080020002108F1002008F000873182
:101FAE00A5278F310800200053082100D7002000FC
:101FBE0052082100D600080020002108D300200876
:101FCE00D200863177268F310800E8302100CA070B
:101FDE000330CB3D0030CC3D0030CD3D080001300C
:101FEE002100CE070030CF3D0030D03D0030D13D36
:021FFE000800D9
:020000040001F9
:08000000FF3FFF3FFF3FFF3F00
:08000E008C3FF33FFF3FFF3F71
:00000001FF
