:040000008031102813
:100008007E1480312000901E0A280B280E2881318A
:100018003A2180317E10090080311228F801F90157
:10002800FA01FB012000A001A101A201A301A40182
:10003800A501A601A7017E102000803123280030E9
:100048002000AB000030AA000030A9000030A80052
:100058008131012180318131BE21803121000E1092
:1000680022000E1081319721803173082000AF00E3
:100078007208AE007108AD007008AC0028082C02A8
:10008800F40029082D3BF5002A082E3BF6002B0822
:100098002F3BF7007708031D5C287608031D5C28B2
:1000A800F43074020130753B031C5B285C28362849
:1000B80022000E080139F4000130F4060E08740617
:1000C800FE3974068E0020002F08AB002E08AA0007
:1000D8002D08A9002C08A80036288031102845349E
:1000E800523452344F3452342134203474347234FC
:1000F80069346734503469346E3420346D34613473
:10010800793420346E346F34743420346234653476
:10011800203461346E34793420346F3466342034BA
:10012800743468346534203466346F346C346C3419
:100138006F34773469346E3467343A3420345B343E
:100148005234413432342C3420345234413434342F
:100158002C3420345234433433342C342034523445
:10016800433435342C3420345234413433345D3400
:100178000A3400344534523452344F345234213422
:1001880020346534633468346F34503469346E34E1
:1001980020346D34753473347434203462346534E7
:1001A80020346F346E34653420346F346634203430
:1001B800743468346534203466346F346C346C3489
:1001C8006F34773469346E3467343A3420345B34AE
:1001D8005234413432342C3420345234413434349F
:1001E8002C3420345234433433342C3420345234B5
:1001F800433435345D340A34003481318D21813102
:1002080021009001910192019301940122008C0137
:100218008D018E01373021008C00F0308D00FF30C9
:100228008E00FF3023008E00F0308D0037308C00B8
:1002380024008D018C018E0125008C018D018E0119
:10024800373026008C00F0308D00FF308E003F30B4
:1002580027008C00F0308D00FF308E0020009001C8
:1002680091019201930194018B17080020009012CC
:100278000130F8070030F93D0030790204300319E5
:100288007802031C482949294E298131632181318B
:10029800F801F9010800423020009800F930960072
:1002A8009501901221009016C230F0000130F10043
:1002B8008131B521813180302000970008008131DB
:1002C800A12181318131AB2181317A087B04031965
:1002D8006E296F2974297B088A007A080A008131FF
:1002E8000800320091015430920066309300C83003
:1002F800940095011F3096000800320099019B0177
:100308009D0104309F009E011C1C8B298C29882983
:10031800080081317521813181318121813181311B
:10032800BA218131080020002708F3002608F200CE
:100338002508F1002408F000080001302000A40777
:100348000030A53D0030A63D0030A73D0800E8304C
:100358002000A0070330A13D0030A23D0030A33D9E
:1003680008007108FB007008FA0008001630210028
:0E0378009700080081314F21813108000800F4
:020000040001F9
:08000000FF3FFF3FFF3FFF3F00
:08000E008C3FF33FFF3FFF3F71
:00000001FF
