:020000040000FA
:08000000803102288731FD2F39
:100FF400FA2F8031022820008731FA2F45345234E9
:1010040052344F34523421342034743472346934B9
:101014006734503469346E3420346D346134793437
:1010240020346E346F3474342034623465342034A4
:1010340061346E34793420346F346634203474343B
:1010440068346534203466346F346C346C346F34F3
:10105400773469346E3467343A3420345B34523430
:10106400413432342C3420345234413434342C342A
:1010740020345234433433342C3420345234433403
:1010840035342C3420345234413433345D340A340E
:1010940000344534523452344F34523421342034E1
:1010A4006534633468346F34503469346E342034B6
:1010B4006D347534733474342034623465342034BC
:1010C4006F346E34653420346F34663420347434B1
:1010D40068346534203466346F346C346C346F3463
:1010E400773469346E3467343A3420345B345234A0
:1010F400413432342C3420345234413434342C349A
:1011040020345234433433342C3420345234433472
:0811140035345D340A34003467
:00000001FF
