:0400000080318E2895
:100008007E1480312100901E0A280B281428200015
:10001800901E0F28102814288731382780318C2803
:100028000B1F172818288C282100941D1C281D2810
:1000380026282000941D2128222826288F3186274B
:1000480080318C282100131E2A282B2834282000D0
:10005800131E2F28302834288F319F2780318C2871
:100068002100141C3828392842282000141C3D2857
:100078003E2842288731102780318C282100141D02
:100088004628472850282000141D4B284C28502863
:100098008631E42680318C282100941C5428552868
:1000A8005E282000941C59285A285E288631FA2692
:1000B80080318C282100111C622863286C282000BC
:1000C800111C672868286C288731D72780318C282D
:1000D8002100911E702871287C282000911E752807
:1000E80076287C282D088A002C080A0080318C2864
:1000F8002100111E802881288C282000111E8528A7
:1001080086288C282F088A002E080A0080318C281F
:100118007E10090080319028FA01FB01FC01FD01E5
:10012800203084000030850032308F31DB27803169
:10013800A03084000030850038308F31DB278031D3
:100148007E1020008331452B2000D5002229520C37
:100158002200031C8C1203188C166229520C2200F0
:10016800031C0C1203180C166229520C2200031CE3
:100178008E1203188E166229520C2200031C0E12CE
:1001880003180E166229520C2200031C8E11031844
:100198008E156229520C2200031C0E1303180E1729
:1001A8006229520C2200031C8E1303188E17622931
:1001B800520C2200031C8D1303188D176229520C50
:1001C8002200031C0C1003180C146229520C220084
:1001D800031C8C1003188C146229520C2200031C77
:1001E8000C1103180C156229520C2200031C0E1066
:1001F80003180E146229520C2200031C8E100318D7
:100208008E146229520C2200031C0E1103180E15BD
:100218006229520C2200031C0D1203180D166229C4
:10022800520C2200031C8D1203188D166229520CE1
:100238002200031C0D1303180D1762295508D3005B
:10024800D4015408003A03192A2962295308003AAC
:100258000319AB28013A0319B228033A0319622992
:10026800013A0319B928073A0319C028013A0319B2
:10027800C728033A0319CE28013A0319D5280F3A9B
:100288000319DC28013A0319E328033A0319EA2879
:10029800013A0319F128073A0319F828013A031912
:1002A800FF28033A03190629013A03190D291F3AB1
:1002B80003191429013A03191B296229080020008F
:1002C800D500DD29520C2100031C8C1203188C1652
:1002D8001D2A520C2100031C0C1203180C161D2A8F
:1002E800520C2100031C8E1203188E161D2A520C64
:1002F8002100031C0E1203180E161D2A520C210091
:10030800031C8E1103188E151D2A520C2100031C84
:100318000E1303180E171D2A520C2100031C8E13EE
:1003280003188E171D2A520C2100031C8D13031865
:100338008D171D2A520C2100031C0C1003180C14D5
:100348001D2A520C2100031C8C1003188C141D2A22
:10035800520C2100031C0C1103180C151D2A520CF9
:100368002100031C0E1003180E141D2A520C210024
:10037800031C8E1003188E141D2A520C2100031C16
:100388000E1103180E151D2A520C2100031C0D1204
:1003980003180D161D2A520C2100031C8D12031878
:1003A8008D161D2A520C2100031C0D1303180D175E
:1003B8001D2A5508D300D4015408003A0319E52929
:1003C8001D2A5308003A03196629013A03196D29B1
:1003D800033A03191D2A013A03197429073A031924
:1003E8007B29013A03198229033A03198929013A19
:1003F800031990290F3A03199729013A03199E29DD
:10040800033A0319A529013A0319AC29073A031934
:10041800B329013A0319BA29033A0319C129013A40
:100428000319C8291F3A0319CF29013A0319D629F4
:100438001D2A0800F200742A20000C0E890C0139CC
:10044800B42A20000C0E0139B42AFF30B42A200047
:100458000E0E890C0139B42A20000E0E0139B42A77
:1004680020000E0CF000F00C700C0139B42A2000AA
:100478000E0E890C890C0139B42A20000E0D0E0DC0
:100488000139B42A20000D0D0D0D0139B42A2000C0
:100498000C080139B42A20000C0C0139B42A2000B8
:1004A8000C0C890C0139B42A20000E080139B42A31
:1004B80020000E0C0139B42A20000E0C890C0139D9
:1004C800B42A20000D0E0139B42A20000D0E890C23
:1004D8000139B42A20000D0E890C890C0139B42A7F
:1004E8007208F000F1017108003A03197C2A292AE0
:1004F8007008003A0319202A013A0319252A033AF9
:100508000319292A013A03192B2A073A0319302A11
:10051800013A0319342A033A03193B2A013A031909
:10052800412A0F3A0319462A013A03194B2A033A7A
:1005380003194F2A013A0319532A073A0319582A6B
:10054800013A03195C2A033A0319602A013A03198C
:10055800652A1F3A0319692A013A03196E2A292ABA
:1005680008002000DC01D51FBA2ABB2AC82AD209F4
:10057800D309D409D509D20A0319D30A0319D40A0D
:100588000319D50ADC01DC0AD91FCB2ACC2ADB2ABD
:10059800D609D709D809D909D60A0319D70A0319D8
:1005A800D80A0319D90A0130DA005A08DC060030E3
:1005B800E0000030DF000030DE000030DD005508CC
:1005C8005404530452040319EA2AEB2A2C2BDB01A6
:1005D800DB0AF92A0130D235D30DD40DD50D890B9C
:1005E800EF2A0130DA005A08DB07D51FFC2AFD2A5A
:1005F800EE2A0130DD35DE0DDF0DE00D890BFE2A18
:1006080055085902031D122B54085802031D122BBA
:1006180053085702031D122B52085602031C152BB0
:10062800162B1F2B5208D6025308D73B5408D83B29
:100638005508D93B5D140130D536D40CD30CD20CF7
:10064800890B202B0130DB02031D2B2B2C2BFD2AC1
:100658005C080319302B312B3C2BDD09DE09DF093F
:10066800E009DD0A0319DE0A0319DF0A0319E00AA3
:100678006008D5005F08D4005E08D3005D08D2008A
:10068800080087312627833186313926833187311F
:100698005B27833120005508EF005408EE0053080B
:1006A800ED005208EC006F08EA006E08E9006D08DA
:1006B800E8006C08E7000630E1000130E200843110
:1006C800162483312000EB018F319B27833187313A
:1006D8005B27833120005508EF005408EE005308CB
:1006E800ED005208EC0067086C02E30068086D3BF7
:1006F800E40069086E3BE5006A086F3BE60066089F
:10070800031D912B6508031D912BF5306302013001
:10071800643B031C902B912B6B2BB22B0630E10012
:100728000130E20084311624833101302000E300D7
:100738006308EB07C62B8830E1000130E200843102
:1007480016248331992B0B30E1000230E20084310A
:100758001624833102302000EB02C62B20006B08E0
:10076800E300E4016408003A0319BB2BC62B6308B5
:10077800003A0319922B013A03199F2B033A0319E4
:10078800A72BC62B6F08EA006E08E9006D08E80081
:100798006C08E7006B2B80318E2821009112803085
:1007A8002000D2000530D3008F31C92783312100C2
:1007B800111217302000D2000630D3008F31CF2716
:1007C8008331083023009F0090309D0024309E0024
:1007D800A0309B0001309C00FE302000D200073082
:1007E800D3008F31BD27833193302000D2000F30E2
:1007F800D3008F31C32783318F302000D2000F30D0
:10080800D3008F31B72783312000C701CC01CB013A
:100818000830D4005408CA00C901FA01C8012100EF
:10082800911608000030200062026430031961024A
:10083800031C1F2C202C562C273062021130031960
:100848006102031C282C292C2A2C562C8F31E827CE
:100858008431200062082100D700200061082100AF
:10086800D60020006108D2006208D300D401D50167
:100878000030D9001E30D8008430D7008030D60030
:100888008231B522843120005308A5005208A40003
:100898002508D3002408D20087319D2784318F3161
:1008A8009B27843108008F3183278431F500750830
:1008B800FB007B2C74082000B5007308B4007B088B
:1008C800F5007508CD00922C74082000B300730859
:1008D800B20034083202F5003508333BF6004D0803
:1008E800860087017508C03F7608C13F922C7B08B7
:1008F800053E86008701010882311E228431F500F9
:10090800F6017608003A03198A2C922C7508003AE9
:100918000319682C013A03195E2C922C08008F31B8
:1009280083278431F5007508FC00B72C7408200073
:10093800BB007308BA007C08F5007508CE00CE2C01
:1009480074082000B9007308B8003A083802F500A6
:100958003B08393BF6004E08860087017508C03F02
:100968007608C13FCE2C7C08053E86008701010829
:1009780082311E228431F500F6017608003A031907
:10098800C62CCE2C7508003A0319A42C013A031979
:100998009A2CCE2C08008F3183278431F5007508F6
:1009A800FD00F32C74082000C1007308C0007D0806
:1009B800F5007508CF000A2D74082000BF007308E1
:1009C800BE0040083E02F50041083F3BF6004F08D4
:1009D800860087017508C03F7608C13F0A2D7D084B
:1009E800053E86008701010882311E228431F50008
:1009F800F6017608003A0319022D0A2D7508003A07
:100A08000319E02C013A0319D62C0A2D08002200FC
:100A18008C018D018E01373021008C00F0308D0063
:100A2800EF308E00D73023008E00D0308D00333069
:100A38008C0024008D018C018E0125008C018D0114
:100A48008E01373026008C00F0308D00FF308E008C
:100A58003F3027008C00F0308D00FF308E000D30C5
:100A68003C00A40014303D00A40015303C00940064
:100A780013309500023096000F303D00A10002307F
:100A88009E0008004534523452344F3452343A34BC
:100A9800203449346E34763461346C3469346434C7
:100AA80020347434723469346734503469346E34A1
:100AB800203428346D3475347334743420344E340F
:100AC8004F34543420346234653420345B34413438
:100AD80032342C342034413433342C3420344134EF
:100AE80034342C342034433433342C3420344334D9
:100AF80035345D342934003420004908A03E86008E
:100B08008701810123001D1D8A2D8B2D962D200024
:100B18004908A03E8600870181142B088A002A080C
:100B28000A00853123009D1C9A2D9B2DA62D20009F
:100B38004908A03E86008701011529088A0028086F
:100B48000A00853120004908A03E86008701010877
:100B58000319AF2DB02DB62D27088A0026080A00E4
:100B68008531B92D863153268531080045345234F4
:100B780052344F3452343A34203449346E34763453
:100B880061346C34693464342034653463346834D3
:100B98006F34503469346E34203428346D347534ED
:100BA8007334743420346234653420345B34413413
:100BB80032342C342034413434342C34203443340B
:100BC80033342C342034433435345D342934003400
:100BD8008731CD27853185310B2585318731B72779
:100BE80085318F3197278531863186268531863143
:100BF800B62685318F31EF2785318631CE2685316E
:100C080086319E26853187314A2785318731AA2743
:100C180085318731C327853187318E2785318331E7
:100C2800D12385310800083020004A0203181D2E00
:100C38001E2E362E4B08B03E860087010108230081
:100C48009A000130F00070082000CB0708304B02F2
:100C5800031C2F2E302E312ECB010130F0007008EE
:100C6800CA07382E2100111208002000D2010D30C9
:100C78008131632186312000D2010D308031A820D6
:100C88008631B8302100D6000130D700C1302000AD
:100C9800A4001130A5008F31E82786310800230011
:100CA8001908F00020004908A83E8600870170084E
:100CB80081000130F0007008C90708304902031CA0
:100CC800662E672E682EC9010130F0007008C8072B
:100CD80008002800131D712E722E7D2E131020007F
:100CE800530828009200200052082800910013148D
:100CF800852E200053082800920020005208280062
:100D0800910008008330260093009401920191011C
:100D180057302000D2000430D3008F31B1278631FC
:100D280025001F08CF3910389F002000141121001A
:100D38001415080083302500970098019601950145
:100D480093302000D2000430D3008F31AB27863196
:100D580025001F08F33904389F0020009410210053
:100D680094140800833025009300940192019101A6
:100D7800CF302000D2000430D3008F31A527863130
:100D880025001F08FC3901389F002000141021009D
:100D980014140800423020009800F930960095019C
:100DA80090122100901600302000D2000030D300AD
:100DB8008F31D5278631803020009700D001080078
:100DC8002000141126001108F7007708F80012080F
:100DD800F7007708F9007908F4007808F300200094
:100DE80037088A0036080A00863108002000941067
:100DF80025001508F7007708F8001608F7007708A7
:100E0800F9007908F4007808F30020003D088A000A
:100E18003C080A008731080020001410250011083A
:100E2800F7007708F8001208F7007708F900790842
:100E3800F4007808F300200043088A0042080A00FA
:100E480087310800210090019101920193019401DA
:100E58002000900191019201930194018531EC25C4
:100E680087310B178B170800200090120130F00013
:100E78007008D00704305002031C432F442F492F19
:100E88008F31E12787312000D0010800813026000A
:100E9800970011309600C130950025001F083F3992
:100EA80080389F002000941121009415080021002B
:100EB80051082000D500210050082000D40021004E
:100EC8004F082000D30021004E082000D20008005F
:100ED8002800131D702F712F782F1310710892009E
:100EE8007008910013147C2F71089200700891000B
:100EF800080020001B1D812F822F892F1B107108CD
:100F08009A00700899001B148D2F71089A007008B8
:100F18009900080020009C019A01990111101A08F3
:100F2800B1001908B00021001114213020009B00E5
:100F3800080020005308D5005208D40054082600A1
:100F48009500200055082600960008002800940106
:100F58009201910120001312A001A1012100131692
:100F6800280093010800320099019B019D0104307B
:100F78009F009E011C1CC12FC22FBE2F080080306D
:100F88002C009900980197011F08FC3901389F002F
:100F98000800320091019201663093009401950196
:100FA8001F3096000800200011103108F1003008A9
:100FB800F00087317D278731080001302100CE07F6
:100FC8000030CF3D0030D03D0030D13D0800E83042
:100FD8002100CA070330CB3D0030CC3D0030CD3D69
:100FE800080020002108D3002008D20086316D2691
:060FF8008731080008002B
:101F06002000510808002000941108002800131032
:101F16000800280013140800863153268F31080064
:101F260023001D121D160800163021009700080018
:101F36008F318C278F310800200013128F31F7273D
:101F46008F31080020005308C3005208C200080061
:101F560020005308BD005208BC00080020005308AA
:101F6600B7005208B600080020005308A700520820
:101F7600A600080020005308AB005208AA0008007B
:101F860020005308A9005208A800080020005308A2
:101F9600AD005208AC00080020005308AF005208FC
:101FA600AE00080020005308C5005208C40008000F
:101FB600640080010131890BDC2F00348731E12771
:101FC6008F318731EB278F3108008F3189278F3189
:101FD6008731F5278F310800F93020009E009D01DA
:101FE600911006309F00080020002108F10020080B
:0A1FF600F00087316C278F310800DE
:020000040001F9
:08000000FF3FFF3FFF3FFF3F00
:08000E008C3FF33FFF3FFF3F71
:00000001FF
