:0400000080311A2809
:100008007E1480312100901E0A280B281828200011
:10001800901E0F281028182881316C2180318131D9
:1000280071218031200090127E10090080311C2837
:10003800FA01FB01FC01FD017E1020008031EB2854
:100048004534523452344F345234213420347434C9
:10005800723469346734503469346E3420346D3402
:100068006134793420346E346F347434203462341B
:100078006534203461346E34793420346F34663416
:100088002034743468346534203466346F346C3406
:100098006C346F34773469346E3467343A342034CE
:1000A8005B345234413432342C34203452344134A9
:1000B80034342C3420345234433433342C34203404
:1000C8005234433435342C342034523441343334AC
:1000D8005D340A3400344534523452344F34523487
:1000E800213420346534633468346F3450346934CF
:1000F8006E3420346D34753473347434203462347F
:10010800653420346F346E34653420346F3466348B
:100118002034743468346534203466346F346C3475
:100128006C346F34773469346E3467343A3420343D
:100138005B345234413432342C3420345234413418
:1001480034342C3420345234433433342C34203473
:100158005234433435345D340A34003481316221F9
:1001680080312100900191019201930194012200B4
:100178008C018D018E01373021008C00F0308D000C
:10018800FF308E00FF3023008E00F0308D003730B6
:100198008C0024008D018C018E0125008C018D01BD
:1001A8008E01373026008C00F0308D00FF308E0035
:1001B8003F3027008C00F0308D00FF308E0020008B
:1001C800900191019201930194018B170800F601A7
:1001D800F7018031B2208031813120218031210026
:1001E8000E1022000E1081313D2180317108F90076
:1001F8007008F80076087802F4007708793BF50073
:1002080001307502F53003197402031C0C290D29FD
:10021800F728031022000E1C0314031814291729A9
:1002280022000E14192922000E107908F700780808
:10023800F600F72880311A288B13FC01FD01FA011A
:10024800FB012000970198019501171218081F3922
:10025800403898001808F039023898001812F03021
:100268009705FA309600210090168B1720009717F3
:1002780008007D08F3007C08F200F336F20CF33630
:10028800F20C7208F0007308F100080032009101C6
:100298005430920066309300C830940095011F30A6
:1002A80096000800320099019B019D0104309F00CF
:1002B8009E011C1C602961295D29080081314A21A1
:1002C8008131813156218131813176218131080096
:1002D8000130FC070030FD3D0800FA30FA07003015
:0C02E800FB3D08001630210097000800C4
:020000040001F9
:08000000FF3FFF3FFF3FFF3F00
:08000E008C3FF33FFF3FFF3F71
:00000001FF
