:0400000080315228D1
:100008007E1480312100901E0A280B281428200015
:10001800901E0F28102814288431B72480315028C6
:100028000B1F1728182850282100141C1C281D28CD
:1000380026282000141C2128222826288431F92467
:10004800803150282100941C2A282B28342820008D
:10005800941C2F28302834288431E32480315028F8
:100068002100141D3828392842282000141D3D2855
:100078003E2842288431CD24803150282100111C8B
:100088004628472850282000111C4B284C28502867
:1000980085315E25803150287E1009008031542832
:1000A800F001F101F201F301F401F501F60120304C
:1000B8008400003085002F308531BC258031A03088
:1000C80084000030850024308531BC2580317E10C5
:1000D80020008231662A2000D200E9284F0C220035
:1000E800031C8C1203188C1629294F0C2200031CA0
:1000F8000C1203180C1629294F0C2200031C8E120F
:1001080003188E1629294F0C2200031C0E120318FF
:100118000E1629294F0C2200031C8E1103188E1568
:1001280029294F0C2200031C0E1303180E17292926
:100138004F0C2200031C8E1303188E1729294F0C0D
:100148002200031C8D1303188D1729294F0C220038
:10015800031C0C1003180C1429294F0C2200031C33
:100168008C1003188C1429294F0C2200031C0C1125
:1001780003180C1529294F0C2200031C0E10031814
:100188000E1429294F0C2200031C8E1003188E14FC
:1001980029294F0C2200031C0E1103180E152929BA
:1001A8004F0C2200031C0D1203180D1629294F0CA1
:1001B8002200031C8D1203188D1629294F0C2200CA
:1001C800031C0D1303180D1729295208D000D1015B
:1001D8005108003A0319F12829295008003A03194F
:1001E8007228013A03197928033A03192929013A8F
:1001F80003198028073A03198728013A03198E281A
:10020800033A03199528013A03199C280F3A031950
:10021800A328013A0319AA28033A0319B128013A75
:100228000319B828073A0319BF28013A0319C62841
:10023800033A0319CD28013A0319D4281F3A0319A0
:10024800DB28013A0319E228292908002000D200F6
:10025800A4294F0C2100031C8C1203188C16E429C6
:100268004F0C2100031C0C1203180C16E4294F0C28
:100278002100031C8E1203188E16E4294F0C21004E
:10028800031C0E1203180E16E4294F0C2100031C40
:100298008E1103188E15E4294F0C2100031C0E1330
:1002A80003180E17E4294F0C2100031C8E130318A2
:1002B8008E17E4294F0C2100031C8D1303188D178A
:1002C800E4294F0C2100031C0C1003180C14E4291A
:1002D8004F0C2100031C8C1003188C14E4294F0CBC
:1002E8002100031C0C1103180C15E4294F0C2100E4
:1002F800031C0E1003180E14E4294F0C2100031CD4
:100308008E1003188E14E4294F0C2100031C0E11C3
:1003180003180E15E4294F0C2100031C0D120318B5
:100328000D16E4294F0C2100031C8D1203188D169D
:10033800E4294F0C2100031C0D1303180D17E429A1
:100348005208D000D1015108003A0319AC29E42918
:100358005008003A03192D29013A03193429033AA0
:100368000319E429013A03193B29073A03194229D9
:10037800013A03194929033A03195029013A031983
:1003880057290F3A03195E29013A03196529033AD7
:1003980003196C29013A03197329073A03197A29B1
:1003A800013A03198129033A03198829013A0319E3
:1003B8008F291F3A03199629013A03199D29E4291F
:1003C80008002000D700EF29CF01CF0A5408813157
:1003D8002A218131112A5408D500D6015608003A3D
:1003E8000319F729652A5508013A0319E829023A39
:1003F8000319E829063A0319E8290E3A0319E829E6
:10040800652ACF01530881312A2181312000CF018B
:10041800530880316F208131432A20005308D500CA
:10042800D6015608003A03191A2A652A5508003ACF
:100438000319052A043A0319052A023A0319052A59
:10044800013A0319052A0F3A0319052A013A031933
:10045800052A033A0319052A063A0319052A013A17
:100468000319052A033A0319052A013A0319052A2B
:100478001F3A0319052A013A0319052A652A20009B
:100488005708023E860087010030C03FC13F570829
:10049800860087010030C03FC13F5408D500570887
:1004A800053E86008701550881005308D500570886
:1004B800043E86008701550881005708D500550875
:1004C800C80008008331552382318531E425823103
:1004D80085313925823100302000E7000030E60000
:1004E8000030E5000030E400CF010C3081312A21D2
:1004F80082312000CF010C3080316F2082314930A9
:100508008231D122823185319025823120005208F2
:10051800EB005108EA005008E9004F08E8006408B9
:100528006802E0006508693BE10066086A3BE20092
:1005380067086B3BE3006308031DAD2A6208031DCF
:10054800AD2AF43060020130613B031CAC2AAD2AAD
:10055800872A49308331EE238231013020005E0240
:100568002D3003195D02031CBA2ABB2AC12ACF0108
:10057800CF0A0C3080316F20823149308231D1224C
:10058800823120006B08E7006A08E6006908E50088
:100598006808E400872A803152282000D900853174
:1005A8000F25823120005408AB005308AA005208D6
:1005B800A9005108A800CF01CF0A5908043E8600B7
:1005C8008701010880316F20823185310F25823102
:1005D800200028085102D5002908523BD6002A08D5
:1005E800533BD7002B08543BD8005808031D082B51
:1005F8005708031D082B5608031D082B0B305502FE
:10060800031C072B082BE92A2000CF015908043EB8
:1006180086008701010880316F2082312000590847
:10062800D5005508C80008002000DA01DB0155088C
:1006380056040319202B212B502BDC01DC0A2D2B0F
:100648000130D535D60D890B252B0130D900590835
:10065800DC07D61F302B312B242B0130DA35DB0D8C
:10066800890B322B56085802031D3C2B550857029C
:10067800031C3F2B402B452B5508D7025608D83B67
:100688005A140130D636D50C890B462B0130DC02C2
:10069800031D4F2B502B312B5B08D6005A08D50071
:1006A8000800210090019101920193019401220018
:1006B8008C018D018E01373021008C00F0308D00C7
:1006C800FF308E00FF3023008E00F0308D00373071
:1006D8008C0024008D018C018E0125008C018D0178
:1006E8008E01373026008C00F0308D00FF308E00F0
:1006F8003F3027008C00F0308D00FF308E00200046
:100708009001910192019301940184313C24833139
:100718008B17080022008C018D018E0137302100D3
:100728008C00F0308D00FF308E00D73023008E0013
:10073800F0308D0033308C0024008D018C018E0147
:1007480025008C018D018E01373026008C00F03099
:100758008D00FF308E003F3027008C00F0308D0078
:10076800FF308E0013303C009500023096001530A3
:1007780094000800DA2B7808C1007708C000ED2B38
:100788007808BF007708BE0040083E02F90041081B
:100798003F3BFA00FA36F90C8531E82583318600AB
:1007A80087017908C03F7A08C13FED2B20000E0E63
:1007B800890C0139F900FA017A08003A0319E52B86
:1007C800ED2B7908003A0319C42B013A0319BF2B02
:1007D800ED2B08002000DF00D030D5000730D60010
:1007E8005F0886008701403FCF00413FD000573067
:1007F800D1000130D20084311C24833120005008FC
:10080800D8004F08D70083311823833120005F08B0
:10081800023E860087015508C03F5608C13F5F0861
:10082800023E86008701403FDD00413FDE000800B0
:100838002000D301D4014F1C222C232C272C510833
:10084800D3075208D43D0130D135D20D890B282C5D
:100858000130D036CF0C890B2D2C4F085004031DC6
:10086800362C372C1F2C5408D0005308CF00080012
:1008780085317825843183318E23843185318425EF
:1008880084318531E0258431843170248431843188
:10089800582484318431882484318431A0248431DB
:1008A8008531242584310800833026009300940183
:1008B80092019101EC302000CF000530D000853145
:1008C800C225843125001F08CF3910389F00200029
:1008D8001411210014150800833025009700980191
:1008E80096019501ED302000CF000530D00085310C
:1008F800C825843125001F08F33904389F002000DB
:10090800941021009414080083302500930094016A
:1009180092019101BE302000CF000330D000853114
:10092800D425843125001F08FC3901389F00200098
:10093800141021001414080020009C019A01990148
:1009480011101A08B9001908B80021001114EB3069
:100958002000CF000530D0008531CE2584312130EC
:1009680020009B000800200090120130C4070030CE
:10097800C53D00304502043003194402031CC52C50
:10098800C62CCC2C8531B52584312000C401C50185
:1009980008002000141126001108F9007908FA004F
:1009A8001208F9007908FB007B08F8007A08F700BC
:1009B80020003B088A003A080A0084310800200019
:1009C800941025001508F9007908FA001608F900AE
:1009D8007908FB007B08F8007A08F70020003D083A
:1009E8008A003C080A008431080020001410250001
:1009F8001108FB007B08FC001208FB007B08FD00C7
:100A08007D08F8007C08F700200043088A004208A7
:100A18000A00853108008531AE2585312000200780
:100A2800D10021080318210F0310D200220803184F
:100A3800220F0310D30023080318230AD400080048
:100A4800423020009800F93096009501901221005C
:100A5800901600302000CF000030D0008531DA2514
:100A6800853180302000970008008431A02485312A
:100A780084318824853104302000D8005808D300F8
:100A88000330D9005908D40049308131E521853136
:100A9800080020001B1D512D522D592D1B107808C0
:100AA8009A00770899001B145D2D78089A0077083A
:100AB80099000800200011103908F8003808F700DC
:100AC80085314D25853185316B258531080020001C
:100AD800360837040319712D722D772D37088A00CF
:100AE80036080A0085310800320091017C309200F6
:100AF80066309300C830940095011F3096000800B6
:100B0800320099019B019D0104309F009E011C1C2D
:100B18008E2D8F2D8B2D080020002708D200260847
:100B2800D1002508D0002408CF000800013020009B
:100B3800A4070030A53D0030A63D0030A73D0800C1
:100B4800E8302000A0070330A13D0030A23D00306E
:100B5800A33D080020001508CF004F08D00050081A
:100B6800080085319A2585318531A425853108000D
:100B7800640080010131890BBD2D0034200050082C
:100B8800BB004F08BA00080020005008BD004F08FD
:100B9800BC00080020005008B7004F08B600080045
:100BA80020005008C3004F08C20008002000500869
:100BB800C7004F08C600080016302100970008003B
:100BC80085312425853108002000480808000800E0
:040BD8000800080009
:020000040001F9
:08000000FF3FFF3FFF3FFF3F00
:08000E008C3FF33FFF3FFF3F71
:00000001FF
