:0400000080318E2895
:100008007E1480312100901E0A280B281428200015
:10001800901E0F28102814288531EE2580318C2851
:100028000B1F172818288C282100941D1C281D2810
:1000380026282000941D21282228262887313127A8
:1000480080318C282100131E2A282B2834282000D0
:10005800131E2F283028342887310D2780318C280B
:100068002100141C3828392842282000141C3D2857
:100078003E2842288531C62580318C282100141D50
:100088004628472850282000141D4B284C28502863
:1000980085319A2580318C282100941C54285528B4
:1000A8005E282000941C59285A285E288531B025DE
:1000B80080318C282100111C622863286C282000BC
:1000C800111C672868286C288631802680318C2886
:1000D8002100911E702871287C282000911E752807
:1000E80076287C284D088A004C080A0080318C2824
:1000F8002100111E802881288C282000111E8528A7
:1001080086288C284F088A004E080A0080318C28DF
:100118007E10090080319028FA01FB01FC01FD01E5
:100128004A3084000030850025308631E926803148
:10013800A03084000030850046308631E9268031C1
:100148007E10200081313F29F200FE2820000C0E8D
:10015800890C01393E2920000C0E01393E29FF3057
:100168003E2920000E0E890C01393E2920000E0E72
:1001780001393E2920000E0CF000F00C700C0139FA
:100188003E2920000E0E890C890C01393E292000D9
:100198000E0D0E0D01393E2920000D0D0D0D0139F2
:1001A8003E2920000C0801393E2920000C0C013999
:1001B8003E2920000C0C890C01393E2920000E082C
:1001C80001393E2920000E0C01393E2920000E0C71
:1001D800890C01393E2920000D0E01393E292000E5
:1001E8000D0E890C01393E2920000D0E890C890C51
:1001F80001393E297208F000F1017108003A03192B
:100208000629B3287008003A0319AA28013A0319E5
:10021800AF28033A0319B328013A0319B528073A56
:100228000319BA28013A0319BE28033A0319C52845
:10023800013A0319CB280F3A0319D028013A0319B8
:10024800D528033A0319D928013A0319DD28073AB2
:100258000319E228013A0319E628033A0319EA28A0
:10026800013A0319EF281F3A0319F328013A031931
:10027800F828B32808008531DC25813186315D26D0
:1002880081312000C801C9010030BA00BB008231A9
:100298004D22813187311C27813182310122813100
:1002A80020002908C7002808C6002708C500260816
:1002B800C40020004708C3004608C2004508C10022
:1002C8004408C00082310122813120002908C7007A
:1002D8002808C6002708C5002608C40040084402AC
:1002E800BC004108453BBD004208463BBE004308F0
:1002F800473BBF003F08031D8C293E08031D8C297E
:10030800A8303C0261303D3B031C8B298C296629AF
:100318000A302000C8070030C93D03304902E930DF
:1003280003194802031C99299A299C29C801C90163
:100338004908BB004808BA0082314D2281315D2945
:1003480080318E2800302000B8000030B70000301F
:10035800B6000030B5002F082E042D042C04031914
:10036800B629B729F829B901B90AC5290130AC3528
:10037800AD0DAE0DAF0D890BBB290130B4003408AB
:10038800B907AF1FC829C929BA290130B535B60D33
:10039800B70DB80D890BCA292F083302031DDE29B2
:1003A8002E083202031DDE292D083102031DDE2925
:1003B8002C083002031CE129E229EB292C08B002A1
:1003C8002D08B13B2E08B23B2F08B33B3514013042
:1003D800AF36AE0CAD0CAC0C890BEC290130B90270
:1003E800031DF729F829C9293808AF003708AE00D6
:1003F8003608AD003508AC00080021004A08200086
:10040800AA0021004B082000AB0021004C08200066
:10041800AC0021004D082000AD008631DB2682317A
:100428002000AE00AF01B001B10187312E27823123
:100438002000B200B3013208A0003308A100FA304E
:10044800A2000030A3008431E92482312000200872
:10045800B4002108B5000030B51BFF30B600B70066
:100468003408AE073508AF3D3608B03D3708B13D12
:100478002E08AA072F08AB3D3008AC3D3108AD3D2A
:100488002D08A9002C08A8002B08A7002A08A600F8
:100498000800033020003B02E93003193A02031830
:1004A800562A572A962A3B082100D90020003A08E4
:1004B8002100D80000302000AF000030AE0003302B
:1004C800AD00E830AC003A08A0003B08A100A2014A
:1004D800A3010030A7000030A6000330A500FF30BC
:1004E800A40084313624823120002308B300220876
:1004F800B2002108B1002008B0008131A621823164
:1005080020002D082100D70020002C082100D6004B
:1005180057082000A100210056082000A0008531BE
:1005280023258231080021009112DC302000A00030
:100538000230A1008631F526823121001112C73020
:100548002000A0000430A1008631EF268231083057
:1005580023009F0090309D0024309E00A0309B0017
:1005680001309C0037302000A0000730A100863100
:10057800B026823120302000A0000730A10086314B
:10058800A726823124302000A0000730A100863140
:10059800B92682312000E401E901E8010830A2000F
:1005A8002208E700E601FA01E5012100911608009A
:1005B80020006608A03E86008701810123001D1DDA
:1005C800E62AE72AF32A20006608A03E860087016B
:1005D8008114210063088A0062080A00823123001E
:1005E8009D1CF72AF82A042B20006608A03E8600E6
:1005F80087010115210061088A0060080A0083311B
:1006080020006608A03E86008701010803190D2B0B
:100618000E2B152B21005F088A005E080A00833123
:10062800182B853109258231080022008C018D01A3
:100638008E01373021008C00F0308D00EF308E00B5
:10064800D73023008E00D0308D0033308C0024004A
:100658008D018C018E0125008C018D018E013730B2
:1006680026008C00F0308D00FF308E003F302700D0
:100678008C00F0308D00FF308E000D303C00A4005F
:1006880014303D00A40015303C0094001330950050
:10069800023096000F303D00A10002309E00080095
:1006A8004534523452344F3452343A342034493475
:1006B8006E34763461346C34693464342034743480
:1006C800723469346734503469346E3420342834D1
:1006D8006D3475347334743420344E344F34543498
:1006E80020346234653420345B34413432342C3461
:1006F8002034413433342C342034413434342C34D1
:100708002034433433342C342034433435345D348A
:1007180029340034873134278331F5007508FB000C
:10072800AE2B74082000D5007308D400C52B7408BC
:100738002000D3007308D20054085202F50055086F
:10074800533BF6007B08860087017508C03F760892
:10075800C13FC52B7B08053E860087010108803113
:10076800A8208331F500F6017608003A0319BD2B5D
:10077800C52B7508003A03199B2B013A0319952BD1
:10078800C52B0800873134278331F5007508FC0034
:10079800E62B74082000DB007308DA00FD2B7408D0
:1007A8002000D9007308D8005A085802F5005B08E1
:1007B800593BF6007C08860087017508C03F76081B
:1007C800C13FFD2B7C08053E86008701010880316A
:1007D800A8208331F500F6017608003A0319F52BB5
:1007E800FD2B7508003A0319D32B013A0319CD2BB9
:1007F800FD2B0800873134278331F5007508FD008B
:100808001E2C74082000E1007308E000352C7408E1
:100818002000DF007308DE0060085E02F500610852
:100828005F3BF6007D08860087017508C03F7608A3
:10083800C13F352C7D08053E8600870101088031BF
:10084800A8208331F500F6017608003A03192D2C0B
:10085800352C7508003A03190B2C013A0319052C9D
:10086800352C080000302000AB000030AA00003012
:10087800A9000030A800201C422C432C4B2C240833
:10088800A8072508A93D2608AA3D2708AB3D013041
:10089800A435A50DA60DA70D890B4C2C0130A33648
:1008A800A20CA10CA00C890B532C230822042104B0
:1008B8002004031D602C612C3F2C2B08A3002A0860
:1008C800A2002908A1002808A000080045345234D5
:1008D80052344F3452343A34203449346E347634F6
:1008E80061346C3469346434203465346334683476
:1008F8006F34503469346E34203428346D34753490
:100908007334743420346234653420345B344134B5
:1009180032342C342034413434342C3420344334AD
:1009280033342C342034433435345D3429340034A2
:1009380086317626843183311923843186316A26BB
:10094800843187311827843185313C2584318531BC
:100958006C2584318631CB268431853184258431D8
:1009680085315425843186310026843186315026DC
:10097800843186314226843186313326843182316E
:100988009722843108000830200067020318CD2C14
:10099800CE2CE62C6808B03E8600870101082300AB
:1009A8009A000130F00070082000E807083068025B
:1009B800031CDF2CE02CE12CE8010130F00070086A
:1009C800E707E82C2100111208002000A401A50166
:1009D800201CEF2CF02CF42C2208A4072308A53D9A
:1009E8000130A235A30D890BF52C0130A136A00CDE
:1009F800890BFA2C20082104031D032D042DEC2C4F
:100A08002508A1002408A000080023001908F00008
:100A180020006608A83E8600870170088100013022
:100A2800F0007008E60708306602031C1C2D1D2D17
:100A38001E2DE6010130F0007008E50708002000CF
:100A48002108A3002008A200A336A20CA336A20CFA
:100A580022082C009800200020080339A200053045
:100A6800A235FF3E031D342D22352C0097000800C7
:100A78008330260093009401920191018E3020006A
:100A8800A0000330A1008631FB26853125001F0810
:100A9800CF3910389F0020001411210014150800C8
:100AA800833025009700980196019501C6302000F3
:100AB800A0000330A10087310127853125001F08D8
:100AC800F33904389F002000941021009414080082
:100AD800833025009300940192019101FE3020009B
:100AE800A0000330A10087310727853125001F08A2
:100AF800FC3901389F00200014102100141408004C
:100B0800423020009800F93096009501901221009B
:100B1800901600302000A0000030A10086319E26EB
:100B28008531803020009700ED0108002000141165
:100B380026001108F7007708F8001208F700770870
:100B4800F9007908F4007808F300200057088A00B3
:100B580056080A0085310800200094102500150861
:100B6800F7007708F8001608F7007708F900790801
:100B7800F4007808F30020005D088A005C080A0089
:100B8800853108002000141025001108F7007708A7
:100B9800F8001208F7007708F9007908F4007808D7
:100BA800F300200063088A0062080A008531080003
:100BB800210090019101920193019401200090017C
:100BC800910192019301940184319C2485310B1782
:100BD8008B170800200090120130F0007008ED0714
:100BE80004306D02031CF92DFA2DFF2D8631E22603
:100BF80085312000ED010800813026009700113072
:100C08009600C130950025001F083F3980389F00A5
:100C1800200094112100941508002800131D152E9A
:100C2800162E1D2E131071089200700891001314CF
:100C3800212E7108920070089100080020001B1DE9
:100C4800262E272E2E2E1B1071089A007008990048
:100C58001B14322E71089A007008990008002000B1
:100C68009C019A01990111101A08D1001908D000A5
:100C780021001114213020009B00080080302C0036
:100C88009900980197011F08FC3901389F0021003D
:100C98000D1322000D130800280094019201910100
:100CA80020001312CA01CB0121001316280093015A
:100CB8000800F4302100D8000130D9000030D600F7
:100CC8000230D7008631D3268631080032009901D8
:100CD8009B019D0104309F009E011C1C742E752EE3
:100CE800712E080032009101920166309300940140
:100CF80095011F3096000800200011105108F100DE
:100D08005008F00086312226863108000130210083
:100D1800CE070030CF3D0030D03D0030D13D080037
:100D2800E8302100CA070330CB3D0030CC3D00300D
:100D3800CD3D0800200021082100E5002000200802
:100D48002100E4000800200021082100E100200023
:100D580020082100E0000800200021082100E3000D
:100D6800200020082100E2000800200021082100BE
:100D7800DF00200020082100DE00080020004B08CA
:100D8800F1004A08F0008631112686310800F93052
:100D980020009E009D01911004309F0008008731BB
:100DA8002B27863100308731132786310800200031
:100DB8001508A0002008A1002108080086318A260D
:100DC800863186319426863108006400800101311D
:100DD800890BEA2E003420002108CF002008CE001D
:100DE800080020002108CD002008CC0008002000C1
:100DF8002108D7002008D600080020002108DD00BF
:100E08002008DC00080020002108E3002008E20098
:100E18000800200013128631C226873108002000FE
:100E2800A00020089D000800163021009700080047
:100E3800873128278731080023001D121D16080056
:100E4800853109258731080020001F15080020007A
:100E58001F11080020006D080800200094110800E8
:080E680020006E0808000800DC
:020000040001F9
:08000000FF3FFF3FFF3FFF3F00
:08000E008C3FF33FFF3FFF3F71
:00000001FF
