:0400000080318E2895
:100008007E1480312100901E0A280B281428200015
:10001800901E0F28102814288631A92680318C2894
:100028000B1F172818288C282100941D1C281D2810
:1000380026282000941D21282228262887319B273E
:1000480080318C282100131E2A282B2834282000D0
:10005800131E2F28302834288731AC2780318C286C
:100068002100141C3828392842282000141C3D2857
:100078003E2842288631EB2680318C282100141D29
:100088004628472850282000141D4B284C28502863
:100098008631BF2680318C282100941C542855288D
:1000A8005E282000941C59285A285E288631D526B7
:1000B80080318C282100111C622863286C282000BC
:1000C800111C672868286C2887316B2780318C2899
:1000D8002100911E702871287C282000911E752807
:1000E80076287C2843088A0042080A0080318C2838
:1000F8002100111E802881288C282000111E8528A7
:1001080086288C2845088A0044080A0080318C28F3
:100118007E10090080319028FA01FB01FC01FD01E5
:1001280020308400003085004A308731C227803172
:10013800A03084000030850022308731C22780310A
:100148007E1020008631322E2000ED0022296A0C14
:100158002200031C8C1203188C1662296A0C2200D8
:10016800031C0C1203180C1662296A0C2200031CCB
:100178008E1203188E1662296A0C2200031C0E12B6
:1001880003180E1662296A0C2200031C8E1103182C
:100198008E1562296A0C2200031C0E1303180E1711
:1001A80062296A0C2200031C8E1303188E17622919
:1001B8006A0C2200031C8D1303188D1762296A0C20
:1001C8002200031C0C1003180C1462296A0C22006C
:1001D800031C8C1003188C1462296A0C2200031C5F
:1001E8000C1103180C1562296A0C2200031C0E104E
:1001F80003180E1462296A0C2200031C8E100318BF
:100208008E1462296A0C2200031C0E1103180E15A5
:1002180062296A0C2200031C0D1203180D166229AC
:100228006A0C2200031C8D1203188D1662296A0CB1
:100238002200031C0D1303180D1762296D08EB002B
:10024800EC016C08003A03192A2962296B08003A64
:100258000319AB28013A0319B228033A0319622992
:10026800013A0319B928073A0319C028013A0319B2
:10027800C728033A0319CE28013A0319D5280F3A9B
:100288000319DC28013A0319E328033A0319EA2879
:10029800013A0319F128073A0319F828013A031912
:1002A800FF28033A03190629013A03190D291F3AB1
:1002B80003191429013A03191B296229080020008F
:1002C800ED00DD296A0C2100031C8C1203188C1622
:1002D8001D2A6A0C2100031C0C1203180C161D2A77
:1002E8006A0C2100031C8E1203188E161D2A6A0C34
:1002F8002100031C0E1203180E161D2A6A0C210079
:10030800031C8E1103188E151D2A6A0C2100031C6C
:100318000E1303180E171D2A6A0C2100031C8E13D6
:1003280003188E171D2A6A0C2100031C8D1303184D
:100338008D171D2A6A0C2100031C0C1003180C14BD
:100348001D2A6A0C2100031C8C1003188C141D2A0A
:100358006A0C2100031C0C1103180C151D2A6A0CC9
:100368002100031C0E1003180E141D2A6A0C21000C
:10037800031C8E1003188E141D2A6A0C2100031CFE
:100388000E1103180E151D2A6A0C2100031C0D12EC
:1003980003180D161D2A6A0C2100031C8D12031860
:1003A8008D161D2A6A0C2100031C0D1303180D1746
:1003B8001D2A6D08EB00EC016C08003A0319E529C9
:1003C8001D2A6B08003A03196629013A03196D2999
:1003D800033A03191D2A013A03197429073A031924
:1003E8007B29013A03198229033A03198929013A19
:1003F800031990290F3A03199729013A03199E29DD
:10040800033A0319A529013A0319AC29073A031934
:10041800B329013A0319BA29033A0319C129013A40
:100428000319C8291F3A0319CF29013A0319D629F4
:100438001D2A0800F300972A700C2200031C8C1256
:1004480003188C16D72A700C2200031C0C120318F0
:100458000C16D72A700C2200031C8E1203188E1655
:10046800D72A700C2200031C0E1203180E16D72A66
:10047800700C2200031C8E1103188E15D72A700CDD
:100488002200031C0E1303180E17D72A700C220023
:10049800031C8E1303188E17D72A700C2200031C16
:1004A8008D1303188D17D72A700C2200031C0C100B
:1004B80003180C14D72A700C2200031C8C10031884
:1004C8008C14D72A700C2200031C0C1103180C156D
:1004D800D72A700C2200031C0E1003180E14D72AFA
:1004E800700C2200031C8E1003188E14D72A700C6F
:1004F8002200031C0E1103180E15D72A700C2200B7
:10050800031C0D1203180D16D72A700C2200031CA9
:100518008D1203188D16D72A700C2200031C0D1398
:1005280003180D17D72A7308F100F2017208003A70
:1005380003199F2AD72A7108003A0319202A013A79
:100548000319272A033A0319D72A013A03192E2A2D
:10055800073A0319352A013A03193C2A033A0319C1
:10056800432A013A03194A2A0F3A0319512A013A30
:100578000319582A033A03195F2A013A0319662A0C
:10058800073A03196D2A013A0319742A033A031921
:100598007B2A013A0319822A1F3A0319892A013A48
:1005A8000319902AD72A0800F2002E2B20000C0EDF
:1005B800890C01396E2B20000C0E01396E2BFF308F
:1005C8006E2B20000E0E890C01396E2B20000E0EAA
:1005D80001396E2B20000E0CF000F00C700C013964
:1005E8006E2B20000E0E890C890C01396E2B200011
:1005F8000E0D0E0D01396E2B20000D0D0D0D01395C
:100608006E2B20000C0801396E2B20000C0C0139D0
:100618006E2B20000C0C890C01396E2B20000E0863
:1006280001396E2B20000E0C01396E2B20000E0CA8
:10063800890C01396E2B20000D0E01396E2B20001C
:100648000D0E890C01396E2B20000D0E890C890CBA
:1006580001396E2B7208F000F1017108003A031994
:10066800362BE32A7008003A0319DA2A013A0319EB
:10067800DF2A033A0319E32A013A0319E52A073A5C
:100688000319EA2A013A0319EE2A033A0319F52A4B
:10069800013A0319FB2A0F3A0319002B013A0319EF
:1006A800052B033A0319092B013A03190D2B073AB5
:1006B8000319122B013A0319162B033A03191A2BA3
:1006C800013A03191F2B1F3A0319232B013A031967
:1006D800282BE32A080021009112DC302000EA00D0
:1006E8000430EB008731E027833121001112A93053
:1006F8002000EA000530EB008731DA278331083023
:1007080023009F0090309D0024309E00A0309B0065
:1007180001309C00FE302000EA000730EB008731F2
:10072800EC278331E8302000EA000F30EB008731F6
:10073800E6278331E4302000EA000F30EB008731F0
:10074800F22783312000E001E501E4010830EC00E4
:100758006C08E300E201FA01E101210091160800AA
:100768008F31DB278331F5007508FB00D82B74081F
:100778002000CD007308CC007B08F5007508E60062
:10078800EF2B74082000CB007308CA004C084A02FB
:10079800F5004D084B3BF600660886008701750892
:1007A800C03F7608C13FEF2B7B08053E86008701D6
:1007B80001088231D8228331F500F6017608003A23
:1007C8000319E72BEF2B7508003A0319C52B013ADB
:1007D8000319BB2BEF2B08008F31DB278331F50082
:1007E8007508FC00142C74082000D3007308D2008C
:1007F8007C08F5007508E7002B2C74082000D10050
:100808007308D00052085002F5005308513BF60017
:100818006708860087017508C03F7608C13F2B2C02
:100828007C08053E8600870101088231D822833181
:10083800F500F6017608003A0319232C2B2C7508CD
:10084800003A0319012C013A0319F72B2B2C080045
:100858008F31DB278431F5007508FD00502C7408B2
:100868002000D9007308D8007D08F5007508E80055
:10087800672C74082000D7007308D6005808560261
:10088800F5005908573BF600680886008701750887
:10089800C03F7608C13F672C7D08053E860087016A
:1008A80001088231D8228431F500F6017608003A31
:1008B80003195F2C672C7508003A03193D2C013A7F
:1008C8000319332C672C08004534523452344F3402
:1008D80052343A34203449346E34763461346C34CA
:1008E800693464342034743472346934673450346D
:1008F80069346E34203428346D3475347334743468
:1009080020344E344F345434203462346534203427
:100918005B34413432342C342034413433342C3475
:100928002034413434342C342034433433342C349C
:100938002034433435345D342934003421009001A7
:10094800910192019301940122008C018D018E0185
:10095800373021008C00F0308D00FF308E00FF30E2
:1009680023008E00F0308D0037308C0024008D017C
:100978008C018E0125008C018D018E0137302600F7
:100988008C00F0308D00FF308E003F3027008C0047
:10099800F0308D00FF308E0020009001910192010F
:1009A8009301940185317E2584310B178B1708003C
:1009B80020006208203E86008701810123001D1D5A
:1009C800E62CE72CF22C20006208203E86008701E6
:1009D800811441088A0040080A00843123009D1CC4
:1009E800F62CF72C022D20006208203E8600870195
:1009F80001153F088A003E080A0085312000620878
:100A0800203E86008701010803190B2D0C2D122D9D
:100A18003D088A003C080A008531152D8531E625F8
:100A28008431080022008C018D018E0137302100AD
:100A38008C00F0308D00EF308E00D73023008E0010
:100A4800D0308D0033308C0024008D018C018E0154
:100A580025008C018D018E01373026008C00F03086
:100A68008D00FF308E003F3027008C00F0308D0065
:100A7800FF308E000D303C00A4001330950002308A
:100A8800960014303D00A40015303C009400080086
:100A98004534523452344F3452343A342034493481
:100AA8006E34763461346C3469346434203465349B
:100AB800633468346F34503469346E3420342834E5
:100AC8006D347534733474342034623465342034AE
:100AD8005B34413432342C342034413434342C34B3
:100AE8002034433433342C342034433435345D34A7
:100AF80029340034873149278531853116258531D8
:100B08008731552785318F31EC27853186314A2643
:100B1800853186317A2685318731A4278531873119
:100B2800012785318631622685318731162785313F
:100B38008531CB25853187316127853186319226EC
:100B4800853183316F238531080008302000630226
:100B58000318AF2DB02DC82D6408A83E8600870164
:100B6800010823009A000130F00070082000E40713
:100B780008306402031CC12DC22DC32DE4010130CD
:100B8800F0007008E307CA2D2100111208002800A0
:100B980094019201910120001312280012082000EC
:100BA800B700280011082000B600210013160030F5
:100BB8002000EA000030EB008731C8278531280083
:100BC8009301080023001908F00020006208A03EE5
:100BD80086008701700881000130F0007008E20784
:100BE80008306202031CF92DFA2DFB2DE2010130B9
:100BF800F0007008E10708002000EA010D3081319B
:100C0800632186312000EA010D308031A820863129
:100C1800B8302000BA000130BB00C130B800113034
:100C2800B9008731B427863108002800131D1D2E0E
:100C38001E2E292E131020006B0828009200200079
:100C48006A08280091001314312E20006B08280030
:100C5800920020006A082800910008008431A2242C
:100C680086318631002686318F31F0278631200083
:100C7800EA010C308131632186312000EA010C3011
:100C88008031A8208631472E80318E288330260077
:100C98009300940192019101B4302000EA000330DE
:100CA800EB008731F827863125001F08CF39103827
:100CB8009F0020001411210014150800833025001E
:100CC8009700980196019501F0302000EA00033062
:100CD800EB008F31FA27863125001F08F3390438D5
:100CE8009F002000941021009414080083302500F0
:100CF80093009401920191012C302000EA00043005
:100D0800EB008F31F427863125001F08FC390138A4
:100D18009F002000141021001414080020009C01DA
:100D28009A01990111101A08C9001908C800210070
:100D3800111400302000EA000030EB008731CE2784
:100D48008631213020009B000800200090120130DD
:100D5800DC070030DD3D00305D02043003195C0221
:100D6800031CB72EB82EBE2E8731BB278631200034
:100D7800DC01DD0108002000141126001108F7002D
:100D88007708F8001208F7007708F9007908F400E6
:100D98007808F30020004F088A004E080A008631C0
:100DA80008002000941025001508F7007708F800BF
:100DB8001608F7007708F9007908F4007808F300B6
:100DC800200055088A0054080A00863108002000CF
:100DD800141025001108F7007708F8001208F7002A
:100DE8007708F9007908F4007808F30020005B0818
:100DF8008A005A080A00863108004230200098000C
:100E0800F9309600950190122100901600302000CC
:100E1800EA000030EB008731D4278731803020008A
:100E28009700080081302600970011309600C130E5
:100E3800950025001F083F3980389F002000941135
:100E48002100941508002800131D2B2F2C2F332F59
:100E5800131071089200700891001314372F71084D
:100E6800920070089100080020001B1D3C2F3D2FA8
:100E7800442F1B1071089A00700899001B14482F02
:100E880071089A00700899000800320091017C30BE
:100E9800920066309300C830940095011F30960088
:100EA8000800320099019B019D0104309F009E01BA
:100EB8001C1C5F2F602F5C2F080080302C009900CD
:100EC800980197011F08FC3901389F00080020008D
:100ED80011104908F1004808F00087313827873198
:100EE800080001302000AC070030AD3D0030AE3DB9
:100EF8000030AF3D0800E8302000A8070330A93DC6
:100F08000030AA3D0030AB3D080020003708EB0058
:100F18003608EA008631192687310800200037088C
:100F2800F1003608F00087312727873108002000B4
:100F38009411F001F00A0C3082311E22873108002A
:100F4800F93020009E009D01911006309F00080096
:100F58002000131287319227873122000E140800CF
:100F68008F31DE278731873189278731080087311C
:100F78007527873187317F27873108006400800112
:100F88000131890BC32F003420006B08B5006A08B3
:100F9800B400080020006B08C7006A08C6000800F3
:100FA80020006B08DF006A08DE00080020006B08DC
:100FB800C5006A08C400080020006B08C3006A085E
:100FC800C200080020006B08BF006A08BE000800C5
:100FD80020006B08C1006A08C000080020006B08E8
:100FE800BD006A08BC00080020006B08CF006A0832
:060FF800CE000800080015
:101FB60020006908080028001310080028001314E0
:101FC60008008531E6258F31080023001D121D16F5
:101FD600080016302100970008008F31E1278F3165
:101FE600080020006B08DB006A08DA000800200001
:0A1FF6006B08D5006A08D40008004B
:020000040001F9
:08000000FF3FFF3FFF3FFF3F00
:08000E008C3FF33FFF3FFF3F71
:00000001FF
