:10000000803190287D0808007E1480312100901EE8
:100010000A280B2814282000901E0F2810281428C6
:100020008A31F62280318E280B1F172818288E2837
:100030002100941D1C281D2826282000941D2128FD
:10004000222826288A31182280318E282100131E6A
:100050002A282B2834282000131E2F283028342843
:100060008A31232280318E282100141C3828392817
:1000700042282000141C3D283E2842288B3183232F
:1000800080318E282100141D462847285028200042
:10009000141D4B284C2850288B31AF2380318E28DB
:1000A0002100941C542855285E282000941C5928AF
:1000B0005A285E288B31992380318E282100111C0B
:1000C000622863286C282000111C672868286C2887
:1000D0008A31C42280318E282100911E7028712817
:1000E0007D282000911E752876287D28210037085C
:1000F0008A0036080A0080318E282100111E8128CE
:1001000082288E282000111E862887288E2821000C
:1001100039088A0038080A0080318E287E100900CC
:1001200080319228FA01FB01FC01FD01A03084001E
:10013000003085003B308A31292280312030840014
:100140000130850038308A3129228031A030840086
:100150000130850020308A31292280317E10200034
:100160008031B2288B315C23803106302100E200DF
:100170006208DD000330E3006308DE0052308531A1
:1001800003258031FF3A031DC628C728C828C72881
:100190000A302100E2006208DD000530E300630858
:1001A000DE004C30853103258031FF3A031DD9280C
:1001B000DA28DB28DA2808302100E2006208DD00B6
:1001C0000B30E3006308DE004630853103258031C3
:1001D000FF3A031DEC28ED28EE28ED280030210021
:1001E000E9000030E8000030E7000030E600EA01F6
:1001F000EA0A2000A0010C3084314824803120001C
:10020000A0010C3083318D2380314630873188271F
:1002100080318B3129238031200023082100EE001A
:10022000200022082100ED00200021082100EC0020
:10023000200020082100EB0021006E08E9006D0875
:10024000E8006C08E7006B08E6008B312923803159
:10025000200023082100EE00200022082100ED00EC
:10026000200021082100EC00200020082100EB00E4
:1002700066086B02E20067086C3BE30068086D3BB0
:10028000E40069086E3BE5006508031D5329640816
:10029000031D53296308031D532932306202031CD6
:1002A000522953292529A3295230873188278031A3
:1002B0006C302000EC009030ED0046308E318F26FF
:1002C000803120003B08EF003A08EE008B316E23AE
:1002D000803102302100E2006208EA00B7294C3088
:1002E0008731882780316C302000EC009030ED00A1
:1002F00052308E318F26803120003B08EF003A08C3
:10030000EE008B316E23803103302100E200620861
:10031000EA00B72946308731882780316C302000C9
:10032000EC009030ED004C308E318F268031200073
:100330003B08EF003A08EE008B316E23803121003C
:10034000EA01EA0AB72921006A08E200E30163082A
:10035000003A0319AC29B7296208013A0319542954
:10036000033A03196F29013A03198A29B729013081
:1003700022005502F43003195402031CC029C1297C
:10038000CA2901304F02F43003194E020318C9295B
:10039000CA29D2292000A001A00A0C3083318D2364
:1003A00080311C292000A0010C3083318D23803145
:1003B0001C29803190282000C7002100A51BE129BD
:1003C000E229E629FD30A605FF30A7052508803A79
:1003D0002000C40080304402031DF12901302100B7
:1003E00024020318F429F529FB2901302000C50057
:1003F0000030C600032A210025082000C600210085
:1004000024082000C500210023082000C900210085
:1004100022082000C8003C08CA003D08CB003E0866
:10042000CC003F08CD004008CE004108CF00420874
:10043000D0004308D1001F30D2000030D300230089
:10044000BF01832AFF302000D207FF30D33D0A309E
:10045000A000A101A201A301A401A501A601A70179
:100460004A08A8004B08A9004C08AA004D08AB0098
:100470004E08AC004F08AD005008AE005108AF0068
:100480008631BC26813120002008303EC40052084D
:10049000A03E86000130870044088100FF30C50778
:1004A000FF30C63DFF30C807FF30C93D0A30A0000D
:1004B000A101A201A301A401A501A601A7014A0867
:1004C000A8004B08A9004C08AA004D08AB004E0834
:1004D000AC004F08AD005008AE005108AF008631A7
:1004E0003826813120002008CA002108CB002208CC
:1004F000CC002308CD002408CE002508CF00260814
:10050000D0002708D1002000520853040319892A7B
:100510008A2AB62A4A084B044C044D044E044F0460
:1005200050045104031D952A962A222A4608803A2F
:10053000C40080304402031D9F2A01304502031885
:10054000A22AA32A222A20004908803AC400803027
:100550004402031DAD2A01304802031CB02AB12A0F
:10056000B62A2100A618B52AB62A222A2000520847
:10057000A03EC4004408B3004908B5004808B400D0
:1005800047088F31A727813120003408BD00330888
:10059000BC0008002000E300540886008701403FAB
:1005A000D600413FD7005608840057088500120046
:1005B000253A031DDC2ADD2A692B540886008701B1
:1005C0000130810741310318810A2100A201A301F2
:1005D000A601A701FF30A400FF30A50020005408A9
:1005E00086008701403FD600413FD700560884006F
:1005F000570885001200753A031DFF2A002B342B83
:100600005408860087010130810741310318810AAF
:1006100055088600870101088400850102308107A2
:10062000003FDB00013FDC00DD01DE01DF01E00116
:10063000E101E2015B08BC005C08BD005D08BE0092
:100640005E08BF005F08C0006008C1006108C2000A
:100650006208C30063088131DB21823120003D083C
:10066000D5003C08D4008C2B540886008701403FFD
:10067000D600413FD7005608840057088500120075
:10068000253A031D442B452B5E2B54088600870119
:100690000130810741310318810A2530A300003061
:1006A000A4006308D6005608A5008E31D2268231F8
:1006B00001302000D4000030D5008C2B5408860077
:1006C00087010130810741310318810AD401D50126
:1006D0008C2B540886008701403FD600413FD7004D
:1006E00056088400570885000008D800D90158082A
:1006F000A3005908A4006308DA005A08A5008E3147
:10070000D2268231200054088600870101308107FB
:1007100041310318810A582B08002000A300072C40
:10072000200C2200031C8C1203188C16472C200C62
:100730002200031C0C1203180C16472C200C22005C
:10074000031C8E1203188E16472C200C2200031C4B
:100750000E1203180E16472C200C2200031C8E11BB
:1007600003188E15472C200C2200031C0E130318AF
:100770000E17472C200C2200031C8E1303188E1713
:10078000472C200C2200031C8D1303188D17472CB7
:10079000200C2200031C0C1003180C14472C200CF6
:1007A0002200031C8C1003188C14472C200C2200F0
:1007B000031C0C1103180C15472C200C2200031CE1
:1007C0000E1003180E14472C200C2200031C8E1050
:1007D00003188E14472C200C2200031C0E11031842
:1007E0000E15472C200C2200031C0D1203180D16A9
:1007F000472C200C2200031C8D1203188D16472C49
:10080000200C2200031C0D1303180D17472C23087E
:10081000A100A2012208003A03190F2C472C21083D
:10082000003A0319902B013A0319972B033A031945
:10083000472C013A03199E2B073A0319A52B013ABD
:100840000319AC2B033A0319B32B013A0319BA2B42
:100850000F3A0319C12B013A0319C82B033A0319A4
:10086000CF2B013A0319D62B073A0319DD2B013A96
:100870000319E42B033A0319EB2B013A0319F22B6A
:100880001F3A0319F92B013A0319002C472C0800D1
:100890002000A300C22C200C2100031C8C12031882
:1008A0008C16022D200C2100031C0C1203180C16B0
:1008B000022D200C2100031C8E1203188E16022D0F
:1008C000200C2100031C0E1203180E16022D200C02
:1008D0002100031C8E1103188E15022D200C2100FF
:1008E000031C0E1303180E17022D200C2100031CED
:1008F0008E1303188E17022D200C2100031C8D135C
:1009000003188D17022D200C2100031C0C10031856
:100910000C14022D200C2100031C8C1003188C14C5
:10092000022D200C2100031C0C1103180C15022DA4
:10093000200C2100031C0E1003180E14022D200C95
:100940002100031C8E1003188E14022D200C210090
:10095000031C0E1103180E15022D200C2100031C80
:100960000D1203180D16022D200C2100031C8D12F0
:1009700003188D16022D200C2100031C0D130318E3
:100980000D17022D2308A100A2012208003A031925
:10099000CA2C022D2108003A03194B2C013A0319E5
:1009A000522C033A0319022D013A0319592C073A24
:1009B0000319602C013A0319672C033A03196E2CB2
:1009C000013A0319752C0F3A03197C2C013A0319CB
:1009D000832C033A03198A2C013A0319912C073A04
:1009E0000319982C013A03199F2C033A0319A62CDA
:1009F000013A0319AD2C1F3A0319B42C013A03191B
:100A0000BB2C022D08002100E100192D2000A001BF
:100A1000A00A21005E08843148248531472D3A30F0
:100A20002000EC009030ED008B316E238531FF30DB
:100A3000A02D5E08DF00E0016008003A0319212DB7
:100A40000F2D5F08013A0319062D023A0319062DEE
:100A5000063A0319062D0E3A0319062D0F2D200014
:100A6000A00121005D088431482485312000A001C7
:100A700021005D0883318D238531792D00302000E0
:100A8000EC009030ED008B316E238531172D210065
:100A90005D08DF00E0016008003A0319502D3E2D8B
:100AA0005F08003A03192F2D043A03192F2D023A3B
:100AB00003192F2D013A03192F2D0F3A03192F2D4A
:100AC000013A03192F2D033A03192F2D063A031962
:100AD0002F2D013A03192F2D033A03192F2D013A17
:100AE00003192F2D1F3A03192F2D013A03192F2D0A
:100AF0003E2D21006108023E860001308700003053
:100B0000C03FC13F61088600013087000030C03F10
:100B1000C13F5E08DF006108053E860001308700A6
:100B20005F0881005D08DF006108043E8600013037
:100B300087005F0881006108DF005F08DA0000308D
:100B40000800F200F72D20000C0E890C0139372E19
:100B500020000C0E0139372EFF30372E20000E0EEC
:100B6000890C0139372E20000E0E0139372E200056
:100B70000E0CF000F00C700C0139372E20000E0E18
:100B8000890C890C0139372E20000E0D0E0D01390C
:100B9000372E20000D0D0D0D0139372E20000C08C9
:100BA0000139372E20000C0C0139372E20000C0C97
:100BB000890C0139372E20000E080139372E20000C
:100BC0000E0C0139372E20000E0C890C0139372EFE
:100BD00020000D0E0139372E20000D0E890C013931
:100BE000372E20000D0E890C890C0139372E720822
:100BF000F000F1017108003A0319FF2DAC2D7008C7
:100C0000003A0319A32D013A0319A82D033A031939
:100C1000AC2D013A0319AE2D073A0319B32D013A51
:100C20000319B72D033A0319BE2D013A0319C42D38
:100C30000F3A0319C92D013A0319CE2D033A0319AE
:100C4000D22D013A0319D62D073A0319DB2D013AAB
:100C50000319DF2D033A0319E32D013A0319E82D97
:100C60001F3A0319EC2D013A0319F12DAC2D0800A0
:100C7000313086000030870008302000B00000309E
:100C80001E00B00B402E200821042204230424045B
:100C900025042604270403194E2E4F2EAB2EB9012E
:100CA000B90A5E2EA035A10DA20DA30DA40DA50DB0
:100CB000A60DA70D0130B0003008B907A71F612E9F
:100CC000622E522EB135B20DB30DB40DB50DB60D69
:100CD000B70DB80D27082F02031D882E26082E02F7
:100CE000031D882E25082D02031D882E24082C02A2
:100CF000031D882E23082B02031D882E22082A029A
:100D0000031D882E21082902031D882E2008280291
:100D1000031C8B2E8C2E9D2E2008A8022108A93B97
:100D20002208AA3B2308AB3B2408AC3B2508AD3B7B
:100D30002608AE3B2708AF3B3114A736A60CA50CFE
:100D4000A40CA30CA20CA10CA00C0130B902031D31
:100D5000AA2EAB2E622E3108A0003208A100330863
:100D6000A2003408A3003508A4003608A5003708FF
:100D7000A6003808A700080020002008210422044B
:100D8000230424042504260427040319C82EC92E8D
:100D90001C2FB101B10AD82EA035A10DA20DA30DB3
:100DA000A40DA50DA60DA70D0130B0003008B107A8
:100DB000A71FDB2EDC2ECC2E27082F02031DFA2EB8
:100DC00026082E02031DFA2E25082D02031DFA2ED9
:100DD00024082C02031DFA2E23082B02031DFA2ED1
:100DE00022082A02031DFA2E21082902031DFA2EC9
:100DF00020082802031CFD2EFE2E0E2F2008A8021C
:100E00002108A93B2208AA3B2308AB3B2408AC3BA2
:100E10002508AD3B2608AE3B2708AF3BA736A60CFE
:100E2000A50CA40CA30CA20CA10CA00C0130B102C7
:100E3000031D1B2F1C2FDC2E2808A0002908A10051
:100E40002A08A2002B08A3002C08A4002D08A50046
:100E50002E08A6002F08A700080000302000B800C8
:100E60000030B7000030B6000030B5002F082E0467
:100E70002D042C0403193D2F3E2F7F2FB901B90AF1
:100E80004C2F0130AC35AD0DAE0DAF0D890B422F9F
:100E90000130B4003408B907AF1F4F2F502F412F36
:100EA0000130B535B60DB70DB80D890B512F2F0890
:100EB0003302031D652F2E083202031D652F2D08F6
:100EC0003102031D652F2C083002031C682F692F87
:100ED000722F2C08B0022D08B13B2E08B23B2F0810
:100EE000B33B35140130AF36AE0CAD0CAC0C890BF6
:100EF000732F0130B902031D7E2F7F2F502F38082A
:100F0000AF003708AE003608AD003508AC00080069
:100F10002000BC008F315B27873120002908220088
:100F2000C300200028082200C20020002708220059
:100F3000C100200026082200C0002000A001A00A55
:100F40003C08043E860001308700010883318D2370
:100F500087318F315B27873122004008200026022D
:100F6000B800220041082000273BB90022004208B7
:100F70002000283BBA00220043082000293BBB0088
:100F80003B08031DCF2F3A08031DCF2F3908031D3F
:100F9000CF2F0B303802031CCE2FCF2FA92F2000CC
:100FA000A0013C08043E860001308700010883311F
:100FB0008D23873120003C08B80038082100DA0072
:100FC00008002000A4002408A2002208A300EC2F9F
:100FD0000130A2002208A4072408860001308700FF
:100FE0000108031DF42FF52FE82F23082402A00089
:100FF000A101A01BA10308001630210097000800E2
:10142800080021005A0808002000941108008C3197
:1014380023248A31080023001D121D1608002000ED
:1014480013128A314C228A3108006400800101316C
:10145800890B2A2A00348A31B0228A318A31A6229D
:101468008A3108002000A20022088C31D4248A3155
:10147800080020001508A0002008A1002108080085
:10148800F93020009E009D01911004309F00080053
:1014980021002908F1002808F0008B3118238A312F
:1014A8000800200021082100CD002000200821008C
:1014B800CC000800200021082100C70020002008D7
:1014C8002100C6000800200021082100C1002000DA
:1014D80020082100C0000800200021082100B100D8
:1014E800200020082100B000080020002108210069
:1014F800B500200020082100B400080020002108C1
:101508002100B300200020082100B20008002000BC
:1015180021082100B700200020082100B60008009B
:10152800200021082100B900200020082100B8006F
:101538000800200021082100CF00200020082100F9
:10154800CE000800E8302200B8070330B93D00306B
:10155800BA3D0030BB3D080001302200BC07003016
:10156800BD3D0030BE3D0030BF3D08003200910156
:10157800920166309300940195011F30960008008F
:101588002000111021003B08F1003A08F0008B31CF
:1015980007238A310800320099019B019D0104301C
:1015A8009F009E011C1CD92ADA2AD62A0800280086
:1015B800940192019101200013122100A801A901B0
:1015C800131628009301080080302C009900980118
:1015D80097011F08FC3901389F0021000D132200D4
:1015E8000D130800200090120130F0007008FD076C
:1015F80004307D02031C012B022B062B8A312F227B
:101608008A31FD01080020001B1D0B2B0C2B132B0E
:101618001B1071089A00700899001B14172B710889
:101628009A007008990008002800131D1C2B1D2B18
:10163800242B131071089200700891001314282BA2
:101648007108920070089100080022003F082000ED
:10165800A30022003E082000A20022003D0820002E
:10166800A10022003C082000A000080081302600CC
:10167800970011309600C130950025001F083F39AA
:1016880080389F0020009411210094150800200044
:101698009C019A01990111101A082100BB00200031
:1016A80019082100BA001114213020009B000800FD
:1016B8002100900191019201930194012000900171
:1016C80091019201930194018C31A9248B310B175C
:1016D8008B1708006E302100DB005B08DC0020005F
:1016E8006D08E5006C08E400DC302100DB005B08D5
:1016F8002000E60000308D3101258B3108002000E4
:10170800141025001108F7007708F8001208F700F0
:101718007708F9007908F4007808F30021004D08EB
:101728008A004C080A008B3108002000941025001C
:101738001508F7007708F8001608F7007708F90089
:101748007908F4007808F300210047088A00460861
:101758000A008B3108002000141126001108F70038
:101768007708F8001208F7007708F9007908F400FC
:101778007808F300210041088A0040080A008B31EC
:101788000800423020009800F93096009501901228
:101798002100901600302000A0000030A1008A31FE
:1017A8009D228B31803020009700FD010800833096
:1017B8002500930094019201910166302000A00059
:1017C8000D30A1008A3155228B3125001F08FC39C4
:1017D80001389F00200014102100141408008330E1
:1017E80025009700980196019501A1302000A000DE
:1017F8000D30A1008A315E228B3125001F08F33994
:1018080004389F00200094102100941408008330AD
:1018180026009300940192019101DC302000A00081
:101828000D30A1008A3167228C3125001F08CF397D
:1018380010389F00200014112100141508002300FF
:101848001908F0007B08283E8600013087007008E0
:1018580081000130F0007008FB0708307B02031C90
:10186800362C372C382CFB010130F0007008210091
:10187800D10708002000A401A501201C442C452CF8
:10188800492C2208A4072308A53D0130A235A30D41
:10189800890B4A2C0130A136A00C890B4F2C20084B
:1018A8002104031D582C592C412C2508A10024087B
:1018B800A00008000830210052020318642C652C8F
:1018C8007E2C5308303E8600013087000108230033
:1018D8009A000130F00070082100D3070830530245
:1018E800031C772C782C792CD3010130F000700878
:1018F800D2077F2C111208002000B200B001B101FC
:10190800982C2F08AC00AD012C08A3002D08A400CA
:101918002B08AE002E08A5008E31D2268C3101305E
:101928002000B0070030B13D30083207AC002C0869
:101938008600013087000108AD002D08AF002F0890
:10194800031DA72CA82C852C08008A31BA228C31BB
:101958008E3117268C318A31CF228C318731FC2782
:101968008C318C310B248C318B31DB238C318A31D7
:1019780044228C318B31C5238C318B31F3238C314C
:101988008B313A238C318A31DB228C318A31E8223F
:101998008C318B314B238C318F3115278C310800DA
:1019A8002000A100210052080319DB2CDC2CD62CC6
:1019B800111ADF2CE02CE52C2000210823009A00C6
:1019C800FE2C111220002108A0007C08303E860061
:1019D80001308700200881000130A0002008FC07A2
:1019E80008307C02031CF92CFA2CFB2CFC0101307A
:1019F8002100D2022100111608002000E900650824
:101A0800EB006408EA002100A001A1011F2D6A3043
:101A1800E7006708D4006608E8006808D500690888
:101A28008231CA228D31200054082100A0072000ED
:101A380055082100A13D20006A0884006B08850034
:101A48001200031D282D292D0B2D2100210820000F
:101A5800E500210020082000E400080000302000F4
:101A6800AB000030AA000030A9000030A800201CFC
:101A78003E2D3F2D472D2408A8072508A93D2608F7
:101A8800AA3D2708AB3D0130A435A50DA60DA70D2D
:101A9800890B482D0130A336A20CA10CA00C890B90
:101AA8004F2D2308220421042004031D5C2D5D2DE5
:101AB8003B2D2B08A3002A08A2002908A10028080A
:101AC800A00008008A3115228D31F5007508210023
:101AD800D800882D74082100CB007308CA00A02DF7
:101AE80074082100C9007308C8004A084802F500B4
:101AF8004B08493BF60058088600013087007508F6
:101B0800C03F7608C13FA02D5808053E8600013029
:101B1800870001088531A1258D31F500F601760889
:101B2800003A0319982DA02D7508003A0319742D51
:101B3800013A03196E2DA02D08008A3115228D3126
:101B4800F50075082100D600C32D74082100C500D2
:101B58007308C400DB2D74082100C3007308C20099
:101B680044084202F5004508433BF6005608860043
:101B7800013087007508C03F7608C13FDB2D560845
:101B8800053E86000130870001088531A1258D3189
:101B9800F500F6017608003A0319D32DDB2D7508F8
:101BA800003A0319AF2D013A0319A92DDB2D0800BE
:101BB8008A3115228D31F50075082100D400FE2DDB
:101BC80074082100BF007308BE00162E7408210097
:101BD800BD007308BC003E083C02F5003F083D3BD1
:101BE800F60054088600013087007508C03F760863
:101BF800C13F162E5408053E8600013087000108B3
:101C08008531A1258D31F500F6017608003A0319D2
:101C18000E2E162E7508003A0319EA2D013A0319FB
:101C2800E42D162E080022008C018D018E0137301C
:101C380021008C00F0308D00EF308E00D73023006B
:101C48008E00D0308D0033308C0024008D018C0143
:101C58008E0125008C018D018E01373026008C0005
:101C6800F0308D00FF308E003F3027008C00F030C0
:101C78008D00FF308E000D303C00A40014303D0074
:101C8800A40015303C0094001330950002309600F3
:101C98000F303D00A10002309E0008007B08203E66
:101CA800860001308700810123001D1D5C2E5D2EFA
:101CB800692E7B08203E86000130870081142100B0
:101CC80035088A0034080A008E3123009D1C6D2EC9
:101CD8006E2E7A2E7B08203E860001308700011583
:101CE800210033088A0032080A008E317B08203E22
:101CF80086000130870001080319832E842E8B2E5D
:101D0800210031088A0030080A008E318E2E8C316D
:101D180023248E3108002000BE000030AF000030C0
:101D2800AE000730AD00D030AC003E088600013070
:101D38008700403FBC00413FBD003C08A0003D0873
:101D4800A100A201A3010030A7000030A6000130C5
:101D5800A5005730A4008D3132258E31200023088C
:101D6800B3002208B2002108B1002008B000873172
:101D78002D278E3120003E08023E86000130870064
:101D88002C08C03F2D08C13F3E08023E86000130A6
:101D98008700403FBA00413FBB00080020002508EB
:101DA8000319D72ED82EDD2E2508031DDC2EDD2E97
:101DB800E22E23088A3136228E31142F2508083E58
:101DC80086008701160001040319EB2EEC2E0A2F5A
:101DD8002508083E86008701403FA600413FA7002E
:101DE8002508023E86008701403FA800413FA90020
:101DF8002908803AAA002708803A2A02031D062FDC
:101E0800260828020318092F0A2F142F2000250856
:101E1800023E860087010130810741310318810A9B
:101E280008002100911252302000A0000E30A100BD
:101E38008A318B228F31210011125E302000A000E0
:101E48000C30A1008A3194228F31083023009F0082
:101E580090309D0024309E00A0309B0001309C00F3
:101E680014302000A0000A30A1008A3179228F3175
:101E78001F302000A0000A30A1008A3182228F3151
:101E88001B302000A0000A30A1008A3170228F3157
:101E98002100D001FC01D30108302000A200220853
:101EA8002100D200FB01FA01D1019116080022009D
:101EB80038082000AA00220039082000AB002200C0
:101EC8003A082000AC0022003B082000AD008A310F
:101ED8003D228F312000AE00AF01B001B101803149
:101EE80002208F312000B200B3013208A00033086D
:101EF800A100FA30A2000030A3008C313E248F31BB
:101F080020002008B4002108B5000030B51BFF30C0
:101F1800B600B7003408AE073508AF3D3608B03D07
:101F28003708B13D2E08AA072F08AB3D3008AC3D55
:101F38003108AD3D2D08A9002C08A8002B08A700E2
:101F48002A08A60008002000BB002100261CAD2F8F
:101F5800AE2FB72F20003B08B6003608AB00330879
:101F68008C3180248F312000B51BBB2FBC2FC12F93
:101F78003508BA003408B900C32FB901BA01B7014E
:101F8800B801D72F20302000A3000030A4003B0860
:101F9800B6003608A5008E31D2268F3101302000D8
:101FA800B7070030B83D3808803AB6003A08803A9A
:101FB8003602031DE12F39083702031CE42FE52FF1
:101FC800C62F21002618E92FEA2FF32F20003B08FF
:101FD800B6003608AB0033088C3180248F312000DE
:101FE80033088731E1278F31200039082007B300F3
:101FF8003A08213DB40008004534523452344F3475
:1020080052343A34203449346E34763461346C3482
:102018006934643420347434723469346734503425
:1020280069346E34203428346D3475347334743420
:1020380020344E344F3454342034623465342034E0
:102048005B34413432342C342034413433342C342E
:102058002034413434342C342034433433342C3455
:102068002034433435345D34293400344534523413
:1020780052344F3452343A34203449346E3476343E
:1020880061346C34693464342034653463346834BE
:102098006F34503469346E34203428346D347534D8
:1020A8007334743420346234653420345B344134FE
:1020B80032342C342034413434342C3420344334F6
:1020C80033342C342034433435345D3429340034EB
:0620D800253475340034CC
:020000040001F9
:08000000FF3FFF3FFF3FFF3F00
:08000E008C3FF33FFF3FFF3F71
:00000001FF
