:0400000080315E28C5
:100008007E1480312100901E0A280B281428200015
:10001800901E0F281028142884310C2480315C2865
:100028002100101E1828192820282000101E1D281D
:100038001E28202810125C280B1F232824285C283F
:100048002100141D2828292832282000141D2D28B5
:100058002E2832288331B62380315C282100941C55
:100068003628372840282000941C3B283C28402864
:100078008331CC2380315C282100141C4428452876
:100088004E282000141C49284A284E28843121244F
:1000980080315C282100111C522853285C2820003C
:1000A800111C572858285C2884316E2480315C281C
:1000B8007E10090080316028F701F801F901FA0182
:1000C800FB01FC0120308400003085002B30843196
:1000D800CF2480317E1020008231692A2000CE0092
:1000E800EC284B0C2200031C8C1203188C162C29AC
:1000F8004B0C2200031C0C1203180C162C294B0C59
:100108002200031C8E1203188E162C294B0C220079
:10011800031C0E1203180E162C294B0C2200031C6C
:100128008E1103188E152C294B0C2200031C0E135C
:1001380003180E172C294B0C2200031C8E130318CE
:100148008E172C294B0C2200031C8D1303188D17B6
:100158002C294B0C2200031C0C1003180C142C29FE
:100168004B0C2200031C8C1003188C142C294B0CEC
:100178002200031C0C1103180C152C294B0C22000F
:10018800031C0E1003180E142C294B0C2200031C00
:100198008E1003188E142C294B0C2200031C0E11F0
:1001A80003180E152C294B0C2200031C0D120318E2
:1001B8000D162C294B0C2200031C8D1203188D16CA
:1001C8002C294B0C2200031C0D1303180D172C2986
:1001D8004E08CC00CD014D08003A0319F4282C290B
:1001E8004C08003A03197528013A03197C28033A88
:1001F80003192C29013A03198328073A03198A2875
:10020800013A03199128033A03199828013A031966
:100218009F280F3A0319A628013A0319AD28033A73
:100228000319B428013A0319BB28073A0319C2284D
:10023800013A0319C928033A0319D028013A0319C6
:10024800D7281F3A0319DE28013A0319E5282C2973
:1002580008002000CE00A7294B0C2100031C8C129B
:1002680003188C16E7294B0C2100031C0C120318E9
:100278000C16E7294B0C2100031C8E1203188E164E
:10028800E7294B0C2100031C0E1203180E16E72950
:100298004B0C2100031C8E1103188E15E7294B0CFB
:1002A8002100031C0E1303180E17E7294B0C21001D
:1002B800031C8E1303188E17E7294B0C2100031C0F
:1002C8008D1303188D17E7294B0C2100031C0C1004
:1002D80003180C14E7294B0C2100031C8C1003187D
:1002E8008C14E7294B0C2100031C0C1103180C1566
:1002F800E7294B0C2100031C0E1003180E14E729E4
:100308004B0C2100031C8E1003188E14E7294B0C8C
:100318002100031C0E1103180E15E7294B0C2100B0
:10032800031C0D1203180D16E7294B0C2100031CA2
:100338008D1203188D16E7294B0C2100031C0D1391
:1003480003180D17E7294E08CC00CD014D08003AD7
:100358000319AF29E7294C08003A03193029013A53
:1003680003193729033A0319E729013A03193E29E2
:10037800073A03194529013A03194C29033A031985
:100388005329013A03195A290F3A03196129013AE5
:1003980003196829033A03196F29013A03197629C1
:1003A800073A03197D29013A03198429033A0319E5
:1003B8008B29013A031992291F3A03199929013AFD
:1003C8000319A029E72908002000D300F229CB014E
:1003D800CB0A500881312D218131142A5008D100CF
:1003E800D2015208003A0319FA29682A5108013A39
:1003F8000319EB29023A0319EB29063A0319EB29E9
:100408000E3A0319EB29682ACB014F0881312D21B7
:1004180081312000CB014F08803172208131462A7A
:1004280020004F08D100D2015208003A03191D2AB2
:10043800682A5108003A0319082A043A0319082AB5
:10044800023A0319082A013A0319082A0F3A03192C
:10045800082A013A0319082A033A0319082A063A0E
:100468000319082A013A0319082A033A0319082A22
:10047800013A0319082A1F3A0319082A013A0319ED
:10048800082A682A20005308023E860087010030A7
:10049800C03FC13F5308860087010030C03FC13FBD
:1004A8005008D1005308053E860087015108810095
:1004B8004F08D1005308043E860087015108810087
:1004C8005308D1005108C400080083311D2382312C
:1004D8008431EB248231843136248231003020008B
:1004E800DD000030DC000030DB000030DA00CB013A
:1004F8000C3081312D2182312000CB010C3080312C
:100508007220823145308231D62282318431AA2448
:10051800823120004E08E1004D08E0004C08DF0061
:100528004B08DE005A085E02D6005B085F3BD70026
:100538005C08603BD8005D08613BD9005908031D81
:10054800B02A5808031DB02AF43056020130573B30
:10055800031CAF2AB02A8A2A200045084604031D36
:10056800B62AB72AC62A22000E0801392000D6006A
:100578000130D60622000E0820005606FE3956061F
:1005880022008E0045308231D62282312000610857
:10059800DD006008DC005F08DB005E08DA008A2AFC
:1005A80080315E282000D5008331E223823120008B
:1005B8005008B7004F08B6004E08B5004D08B40003
:1005C800CB01CB0A5508043E86008701010880311B
:1005D800722082318331E2238231200034084D02B7
:1005E800D10035084E3BD20036084F3BD3003708C0
:1005F800503BD4005408031D0D2B5308031D0D2B2D
:100608005208031D0D2B0B305102031C0C2B0D2B14
:10061800EE2A2000CB015508043E86008701010818
:1006280080317220823120005508D1005108C40061
:1006380008008431A02483312100900191019201A6
:100648009301940122008C018D018E013730210025
:100658008C00F0308D00FF308E00FF3023008E00BC
:10066800F0308D0037308C0024008D018C018E0114
:1006780025008C018D018E01373026008C00F0306A
:100688008D00FF308E003F3027008C00F0308D0049
:10069800FF308E0020009001910192019301940196
:1006A8008B170800722B7108C1007008C000852BD9
:1006B8007108BF007008BE0040083E02F200410801
:1006C8003F3BF300F336F20C8431EF24833186008C
:1006D80087017208C03F7308C13F852B20000E0EAA
:1006E800890C0139F200F3017308003A03197D2BD4
:1006F800852B7208003A03195C2B013A0319572B12
:10070800852B080020009C0180309A009901111067
:100718001A08F8001908F70021001114F230200017
:10072800CB000430CC008431D52483311130200033
:100738009B000800833025009300940192019101E9
:1007480056302000CB000330CC008431DB248331C9
:1007580025001F08FC3901389F00200014102100D3
:10076800141408002000141126001108F200720861
:10077800F3001208F2007208F4007408F10073081C
:10078800F00020003B088A003A080A00833108007C
:100798002000941025001508F2007208F3001608CE
:1007A800F2007208F4007408F1007308F0002000E9
:1007B8003D088A003C080A00833108008431C824B7
:1007C800833120002C07CD002D0803182D0F0310AE
:1007D800CE002E0803182E0F0310CF002F08031881
:1007E8002F0AD0000800423020009800F930960007
:1007F8009501901221009016F3302000CB000430B0
:10080800CC008431E1248331803020009700080037
:10081800200090120130FB070030FC3D00307C02C4
:10082800043003197B02031C1A2C1B2C202C843146
:100838004A248431FB01FC01080020001410250023
:100848001108F4007408F5001208F4007408F600A2
:100858007608F1007508F0007A088A0079080A001D
:100868008431080083318623843183319E23843187
:1008780004302000D4005408CF000330D5005508B8
:10088800D00045308131E821843108008431B42416
:1008980084318431BE248431200042084304031982
:1008A800562C572C5C2C43088A0042080A008431D5
:1008B800080020001B1D612C622C692C1B1071087C
:1008C8009A00700899001B146D2C71089A00700822
:1008D80099000800200011107808F1007708F0004E
:1008E80084315D24843184317B24843108002000E4
:1008F800380839040319812C822C872C39088A007E
:1009080038080A0084310800320091017C309200D6
:1009180066309300C830940095011F309600080097
:10092800320099019B019D0104309F009E011C1C0F
:100938009E2C9F2C9B2C0800843188248431843180
:10094800942484318431E72484310800200033085A
:10095800CE003208CD003108CC003008CB000800AA
:1009680001302000B0070030B13D0030B23D00300A
:10097800B33D0800E8302000AC070330AD3D00303F
:10098800AE3D0030AF3D080020001508CB004B08F5
:10099800CC004C080800640080010131890BD02C80
:1009A800003420004C08B9004B08B80008002000AB
:1009B8004C08FA004B08F900080020004C08C30056
:1009C8004B08C20008001630210097000800833148
:1009D800F7238431080020004408080008000800B4
:0409E80008000800FB
:020000040001F9
:08000000FF3FFF3FFF3FFF3F00
:08000E008C3FF33FFF3FFF3F71
:00000001FF
