:10000000803190287D0808007E1480312100901EE8
:100010000A280B2814282000901E0F2810281428C6
:100020008B31202380318E280B1F172818288E280B
:100030002100941D1C281D2826282000941D2128FD
:10004000222826288A310A2280318E282100131E78
:100050002A282B2834282000131E2F283028342843
:100060008A312A2280318E282100141C3828392810
:1000700042282000141C3D283E2842288B31AD2305
:1000800080318E282100141D462847285028200042
:10009000141D4B284C2850288B31D92380318E28B1
:1000A0002100941C542855285E282000941C5928AF
:1000B0005A285E288B31C32380318E282100111CE1
:1000C000622863286C282000111C672868286C2887
:1000D0008A31D42280318E282100911E7028712807
:1000E0007D282000911E752876287D282100330860
:1000F0008A0032080A0080318E282100111E8128D2
:1001000082288E282000111E862887288E2821000C
:1001100035088A0034080A0080318E287E100900D4
:1001200080319228FA01FB01FC01FD01A03084001E
:100130000030850039308731FA2780312030840043
:10014000013085003E308731FA278031A0308400AD
:100150000130850020308731FA2780317E10200061
:1001600084317B2C2000C7002100A31BB828B928AC
:10017000BD28FD30A405FF30A5052308803A2000E6
:10018000C40080304402031DC8280130210022022F
:100190000318CB28CC28D22801302000C50000301D
:1001A000C600DA28210023082000C600210022080A
:1001B0002000C500210021082000C90021002008DE
:1001C0002000C8003C08CA003D08CB003E08CC0017
:1001D0003F08CD004008CE004108CF004208D000C3
:1001E0004308D1001F30D2000030D3002300BF01EC
:1001F0005A29FF302000D207FF30D33D0A30A0003B
:10020000A101A201A301A401A501A601A7014A0819
:10021000A8004B08A9004C08AA004D08AB004E08E6
:10022000AC004F08AD005008AE005108AF00863159
:100230003026803120002008303EC4005208A03E05
:1002400086000130870044088100FF30C507FF3079
:10025000C63DFF30C807FF30C93D0A30A000A101EC
:10026000A201A301A401A501A601A7014A08A800B3
:100270004B08A9004C08AA004D08AB004E08AC0082
:100280004F08AD005008AE005108AF008531AC25D5
:10029000803120002008CA002108CB002208CC00B1
:1002A0002308CD002408CE002508CF002608D00062
:1002B0002708D1002000520853040319602961293E
:1002C0008D294A084B044C044D044E044F0450043D
:1002D0005104031D6C296D29F9284608803AC40091
:1002E00080304402031D7629013045020318792924
:1002F0007A29F92820004908803AC4008030440255
:10030000031D842901304802031C872988298D296F
:100310002100A4188C298D29F92820005208A03E1C
:10032000C4004408B3004908B5004808B4004708B1
:1003300087315527803120003408BD003308BC00C8
:1003400008002000E300540886008701403FD600E3
:10035000413FD70056088400570885001200253A0F
:10036000031DB329B429402A5408860087010130AF
:10037000810741310318810A2100A001A101A401D4
:10038000A501FF30A200FF30A30020005408860022
:100390008701403FD600413FD700560884005708E8
:1003A00085001200753A031DD629D7290B2A540857
:1003B000860087010130810741310318810A550801
:1003C0008600870101088400850102308107003F13
:1003D000DB00013FDC00DD01DE01DF01E001E101C6
:1003E000E2015B08BC005C08BD005D08BE005E0861
:1003F000BF005F08C0006008C1006108C200620859
:10040000C30063088031B220813120003D08D5004F
:100410003C08D400632A540886008701403FD60078
:10042000413FD70056088400570885001200253A3E
:10043000031D1B2A1C2A352A540886008701013017
:10044000810741310318810A2530A3000030A40040
:100450006308D6005608A5008F3177278131013017
:100460002000D4000030D500632A5408860087019C
:100470000130810741310318810AD401D501632A73
:10048000540886008701403FD600413FD7005608F8
:100490008400570885000008D800D9015808A30037
:1004A0005908A4006308DA005A08A5008F3177279D
:1004B00081312000540886008701013081074131D5
:1004C0000318810A2F2A08002000A300DE2A200C2E
:1004D0002200031C8C1203188C161E2B200C2200E9
:1004E000031C0C1203180C161E2B200C2200031CDC
:1004F0008E1203188E161E2B200C2200031C0E12C7
:1005000003180E161E2B200C2200031C8E1103183C
:100510008E151E2B200C2200031C0E1303180E1721
:100520001E2B200C2200031C8E1303188E171E2B6B
:10053000200C2200031C8D1303188D171E2B200C7A
:100540002200031C0C1003180C141E2B200C22007C
:10055000031C8C1003188C141E2B200C2200031C6F
:100560000C1103180C151E2B200C2200031C0E105E
:1005700003180E141E2B200C2200031C8E100318CF
:100580008E141E2B200C2200031C0E1103180E15B6
:100590001E2B200C2200031C0D1203180D161E2BFF
:1005A000200C2200031C8D1203188D161E2B200C0C
:1005B0002200031C0D1303180D171E2B2308A10086
:1005C000A2012208003A0319E62A1E2B2108003A4C
:1005D0000319672A013A03196E2A033A03191E2BDD
:1005E000013A0319752A073A03197C2A013A0319BB
:1005F000832A033A03198A2A013A0319912A0F3AE6
:100600000319982A013A03199F2A033A0319A62AC3
:10061000013A0319AD2A073A0319B42A013A03191A
:10062000BB2A033A0319C22A013A0319C92A1F3AFD
:100630000319D02A013A0319D72A1E2B08002000DB
:10064000A300992B200C2100031C8C1203188C167C
:10065000D92B200C2100031C0C1203180C16D92BCB
:10066000200C2100031C8E1203188E16D92B200C8F
:100670002100031C0E1203180E16D92B200C21008A
:10068000031C8E1103188E15D92B200C2100031C7E
:100690000E1303180E17D92B200C2100031C8E13E8
:1006A00003188E17D92B200C2100031C8D1303185F
:1006B0008D17D92B200C2100031C0C1003180C14CF
:1006C000D92B200C2100031C8C1003188C14D92B5F
:1006D000200C2100031C0C1103180C15D92B200C25
:1006E0002100031C0E1003180E14D92B200C21001E
:1006F000031C8E1003188E14D92B200C2100031C10
:100700000E1103180E15D92B200C2100031C0D12FD
:1007100003180D16D92B200C2100031C8D12031871
:100720008D16D92B200C2100031C0D1303180D1757
:10073000D92B2308A100A2012208003A0319A12BFA
:10074000D92B2108003A0319222B013A0319292B2E
:10075000033A0319D92B013A0319302B073A03192D
:10076000372B013A03193E2B033A0319452B013A63
:1007700003194C2B0F3A0319532B013A03195A2B27
:10078000033A0319612B013A0319682B073A03193D
:100790006F2B013A0319762B033A03197D2B013A8B
:1007A0000319842B1F3A03198B2B013A0319922B3F
:1007B000D92B0800ED2B2000A001A00A21005E0823
:1007C00083311F2383311C2C3A302000EC00903001
:1007D000ED008B31982383317A2C21005E08DF00F5
:1007E000E0016008003A0319F62BE42B5F08013A98
:1007F0000319DB2B023A0319DB2B063A0319DB2B17
:100800000E3A0319DB2BE42B2000A00121005D0828
:1008100083311F2383312000A00121005D08823134
:10082000642283314E2C00302000EC009030ED002B
:100830008B31982383317A2C21005D08DF00E001A1
:100840006008003A0319252C132C5F08003A03199D
:10085000042C043A0319042C023A0319042C013A1B
:100860000319042C0F3A0319042C013A0319042C20
:10087000033A0319042C063A0319042C013A03190C
:10088000042C033A0319042C013A0319042C1F3ACF
:100890000319042C013A0319042C132C21005B08C2
:1008A00086005C08870042310030C03FC13F5B08D2
:1008B00086005C0887000030C03FC13F5B08053EF2
:1008C000DF0000305C3DE0005F08860060088700C4
:1008D0005E0881005B08043EDF0000305C3DE00004
:1008E0005F088600600887005D0881005C08D10011
:1008F0005B08D00008008B318623843101308D31B4
:100900002125843177082100DC007608DB000630E1
:10091000E1006108DD000330E2006208DE0083319F
:10092000DA2384318C31662484318B310423843181
:1009300001308D312125843177082000B9007608F7
:10094000B8008631FC2684318B315323843120005A
:1009500023082100EE00200022082100ED002000E5
:1009600021082100EC00200020082100EB002100DC
:100970006E08E8006D08E7006C08E6006B08E5000B
:100980008B3153238431200023082100EE00200006
:1009900022082100ED00200021082100EC002000A9
:1009A00020082100EB0065086B02E10066086C3B43
:1009B000E20067086D3BE30068086E3BE4006408F2
:1009C000031DEE2C6308031DEE2C6208031DEE2CA4
:1009D00032306102031CED2CEE2CC02C01308D3125
:1009E0002125843177082000BB007608BA008F31BA
:1009F0003527843120003B082100EA0020003A0816
:100A00002100E9006C302000EC009030ED00210066
:100A10006A082000EF00210069082000EE008B31F9
:100A200098238431B72C80319028F2006B2D200060
:100A30000C0E890C0139AB2D20000C0E0139AB2DA9
:100A4000FF30AB2D20000E0E890C0139AB2D20009C
:100A50000E0E0139AB2D20000E0CF000F00C700CC6
:100A60000139AB2D20000E0E890C890C0139AB2DFC
:100A700020000E0D0E0D0139AB2D20000D0D0D0DBA
:100A80000139AB2D20000C080139AB2D20000C0CD6
:100A90000139AB2D20000C0C890C0139AB2D200045
:100AA0000E080139AB2D20000E0C0139AB2D2000B2
:100AB0000E0C890C0139AB2D20000D0E0139AB2D28
:100AC00020000D0E890C0139AB2D20000D0E890C74
:100AD000890C0139AB2D7208F000F1017108003A60
:100AE0000319732D202D7008003A0319172D013AB0
:100AF00003191C2D033A0319202D013A0319222D45
:100B0000073A0319272D013A03192B2D033A03192C
:100B1000322D013A0319382D0F3A03193D2D013AB0
:100B20000319422D033A0319462D013A03194A2DA0
:100B3000073A03194F2D013A0319532D033A0319AC
:100B4000572D013A03195C2D1F3A0319602D013A04
:100B50000319652D202D08003130860000308700F4
:100B600008302000B00000301E00B00BB42D20086B
:100B70002104220423042404250426042704031941
:100B8000C22DC32D1F2EB901B90AD22DA035A10D3A
:100B9000A20DA30DA40DA50DA60DA70D0130B0004B
:100BA0003008B907A71FD52DD62DC62DB135B20DEA
:100BB000B30DB40DB50DB60DB70DB80D27082F0246
:100BC000031DFC2D26082E02031DFC2D25082D02D9
:100BD000031DFC2D24082C02031DFC2D23082B02D1
:100BE000031DFC2D22082A02031DFC2D21082902C9
:100BF000031DFC2D20082802031CFF2D002E112EA2
:100C00002008A8022108A93B2208AA3B2308AB3BE5
:100C10002408AC3B2508AD3B2608AE3B2708AF3B7C
:100C20003114A736A60CA50CA40CA30CA20CA10C85
:100C3000A00C0130B902031D1E2E1F2ED62D310827
:100C4000A0003208A1003308A2003408A300350830
:100C5000A4003608A5003708A6003808A700080039
:100C6000200020082104220423042404250426044F
:100C7000270403193C2E3D2E902EB101B10A4C2EB3
:100C8000A035A10DA20DA30DA40DA50DA60DA70DB8
:100C90000130B0003008B107A71F4F2E502E402E54
:100CA00027082F02031D6E2E26082E02031D6E2E0E
:100CB00025082D02031D6E2E24082C02031D6E2E06
:100CC00023082B02031D6E2E22082A02031D6E2EFE
:100CD00021082902031D6E2E20082802031C712EF4
:100CE000722E822E2008A8022108A93B2208AA3BC6
:100CF0002308AB3B2408AC3B2508AD3B2608AE3BA4
:100D00002708AF3BA736A60CA50CA40CA30CA20C7D
:100D1000A10CA00C0130B102031D8F2E902E502E7D
:100D20002808A0002908A1002A08A2002B08A30077
:100D30002C08A4002D08A5002E08A6002F08A70047
:100D4000080000302000B8000030B7000030B600C6
:100D50000030B5002F082E042D042C040319B12EE9
:100D6000B22EF32EB901B90AC02E0130AC35AD0D4B
:100D7000AE0DAF0D890BB62E0130B4003408B907A3
:100D8000AF1FC32EC42EB52E0130B535B60DB70D2D
:100D9000B80D890BC52E2F083302031DD92E2E083E
:100DA0003202031DD92E2D083102031DD92E2C0825
:100DB0003002031CDC2EDD2EE62E2C08B0022D089E
:100DC000B13B2E08B23B2F08B33B35140130AF3690
:100DD000AE0CAD0CAC0C890BE72E0130B902031D33
:100DE000F22EF32EC42E3808AF003708AE003608B6
:100DF000AD003508AC0008008731AE2786312000F1
:100E000029082200C300200028082200C200200078
:100E100027082200C100200026082200C000200070
:100E2000A001A00A3808860039088700443101086B
:100E30008231642286318731AE2786312200400814
:100E400020002602BA00220041082000273BBB00F8
:100E5000220042082000283BBC002200430820005A
:100E6000293BBD003D08031D412F3C08031D412FB8
:100E70003B08031D412F0B303A02031C402F412F2A
:100E80001B2F2000A0013808860039088700443154
:100E90000108823164228631200039082100D10006
:100EA000200038082100D00008002000BB002100ED
:100EB000241C5B2F5C2F652F20003B08B6003608F2
:100EC000AB0033088C31F82487312000B51B692F23
:100ED0006A2F6F2F3508BA003408B900712FB90195
:100EE000BA01B701B801852F20302000A3000030DF
:100EF000A4003B08B6003608A5008F31772787315C
:100F000001302000B7070030B83D3808803AB600FD
:100F10003A08803A3602031D8F2F39083702031C26
:100F2000922F932F742F21002418972F982FA12FE1
:100F300020003B08B6003608AB0033088C31F8249B
:100F40008731200033088C319B24873120003908F9
:100F50002007B3003A08213DB400080022003808F9
:100F60002000AA00220039082000AB0022003A0825
:100F70002000AC0022003B082000AD008A313E2258
:100F800087312000AE00AF01B001B10180310220F5
:100F900087312000B200B3013208A0003308A1005D
:100FA000FA30A2000030A3008C31B6248731200033
:100FB0002008B4002108B5000030B51BFF30B60092
:100FC000B7003408AE073508AF3D3608B03D3708E6
:100FD000B13D2E08AA072F08AB3D3008AC3D3108C3
:100FE000AD3D2D08A9002C08A8002B08A7002A0851
:100FF000A6000800640080010131890BFB2F00343A
:10141200080020009411080020001F110800280075
:10142200131008008C3180248A31080023001D1219
:101432001D16080016302100970008002000A000A9
:1014420020089D00080021005108F1005008F0001A
:101452000800200013128A315C228A3108008A3186
:10146200C0228A318A31B6228A3108002000A200C5
:1014720022088D3177258A31080020001508A00046
:101482002008A100210808008A3110228A318A31FD
:10149200EB228A3108008A310D228A3100308A31EA
:1014A2001F228A310800F93020009E009D01911010
:1014B20004309F00080021002708F1002608F000F0
:1014C2008B3142238A310800200021082100CF00FD
:1014D200200020082100CE00080020002108210061
:1014E200C700200020082100C600080020002108B3
:1014F2002100BF00200020082100BE0008002000BB
:1015020021082100AD00200020082100AC000800C5
:10151200200021082100B100200020082100B00095
:101522000800200021082100AF002000200821002F
:10153200AE000800200021082100B300200020088E
:101542002100B2000800200021082100B50020007F
:1015520020082100B4000800200021082200CB004E
:10156200200020082200CA000800E8302200B80744
:101572000330B93D0030BA3D0030BB3D08000130B8
:101582002200BC070030BD3D0030BE3D0030BF3DF3
:101592000800320091019201663093009401950196
:1015A2001F30960008002000111021003708F100BA
:1015B2003608F0008B3131238A310800320099015C
:1015C2009B019D0104309F009E011C1CE92AEA2A0E
:1015D200E62A0800210027082000A1002100260891
:1015E2002000A0008C314D248A310800280094018B
:1015F20092019101200013122100A601A7011316E6
:10160200280093010800F4302200C6000130C70010
:1016120000302100A8000230A9008A314C228B310F
:10162200080080302C009900980197011F08FC39AE
:1016320001389F0021000D1322000D130800200025
:1016420090120130F0007008FD0704307D02031C87
:101652002B2B2C2B302B8A3130228B31FD010800B1
:1016620020001B1D352B362B3D2B1B1071089A00B9
:10167200700899001B14412B71089A007008990098
:1016820008002800131D462B472B4E2B1310710800
:101692009200700891001314522B71089200700886
:1016A2009100080022003F082000A30022003E080B
:1016B2002000A20022003D082000A10022003C08D8
:1016C2002000A0000800813026009700113096000B
:1016D200C130950025001F083F3980389F00200047
:1016E200941121009415080020009C019A0199018F
:1016F20011101A082100B700200019082100B600B5
:101702001114213020009B0008002100900191015A
:1017120092019301940120009001910192019301A1
:1017220094018D314C258B310B178B1708006E30CD
:101732002100D9005908DA0020006D08E5006C0884
:10174200E400DA302100D90059082000E600003018
:101752008D31A4258B3108002000141025001108BA
:10176200F7007708F8001208F7007708F9007908FF
:10177200F4007808F30021004F088A004E080A009E
:101782008B3108002000941025001508F700770817
:10179200F8001608F7007708F9007908F4007808CD
:1017A200F300210047088A0046080A008B3108002E
:1017B2002000141126001108F7007708F80012081B
:1017C200F7007708F9007908F4007808F30021009F
:1017D2003F088A003E080A008B3108004230200090
:1017E2009800F93096009501901221009016003071
:1017F2002000A0000030A1008A31AD228B31803060
:1018020020009700FD010800833025009300940119
:101812009201910144302000A0000E30A1008A31D3
:1018220065228C3125001F08FC3901389F002000F9
:101832001410210014140800833025009700980129
:101842009601950180302000A0000E30A1008A315F
:101852006E228C3125001F08F33904389F002000C6
:101862009410210094140800833026009300940100
:1018720092019101BC302000A0000E30A1008A31FB
:1018820077228C3125001F08CF3910389F002000A5
:1018920014112100141508002800131D512C522C7C
:1018A2005D2C13102000210828009200200020083F
:1018B200280091001314652C2000210828009200B2
:1018C200200020082800910008002000A0010D300F
:1018D20083311F238C312000A0010D30823164221C
:1018E2008C31B8302200C8000130C900C13021005B
:1018F200AA001130AB008A3145228C310800230046
:101902001908F0007B08283E860001308700700825
:1019120081000130F0007008FB0708307B02031CD5
:10192200932C942C952CFB010130F00070082100BF
:10193200D30708002000A4002408A2002208A30064
:10194200A62C0130A2002208A40724088600013038
:1019520087000108031DAE2CAF2CA22C2308240201
:10196200A000A101A01BA10308002000A401A50161
:10197200201CBC2CBD2CC12C2208A4072308A53D89
:101982000130A235A30D890BC22C0130A136A00C67
:10199200890BC72C20082104031DD02CD12CB92C73
:1019A2002508A1002408A0000800083021005402E4
:1019B2000318DC2CDD2CF62C5508303E8600013055
:1019C2008700010823009A000130F000700821000E
:1019D200D50708305502031CEF2CF02CF12CD50151
:1019E2000130F0007008D407F72C11120800200013
:1019F200B200B001B101102D2F08AC00AD012C08CE
:101A0200A3002D08A4002B08AE002E08A5008F31DC
:101A120077278C3101302000B0070030B13D30080B
:101A22003207AC002C088600013087000108AD00A7
:101A32002D08AF002F08031D1F2D202DFD2C08009F
:101A42002000A200382D5830F6000130F7004B2D4F
:101A52005230F6000130F7004B2D4C30F6000130C9
:101A6200F7004B2DFF30F6000030F7004B2D220817
:101A7200A000A1012108003A0319402D332D2008AE
:101A8200013A0319242D033A0319292D013A0319A6
:101A92002E2D332D08008A31CA228D318E3109262E
:101AA2008D318A31DF228D318A311B228D318C3189
:101AB20035248D318C3105248D318A3154228D317A
:101AC2008B31EF238D318C311D248D318B31642389
:101AD2008D318A31F7228D318B3112238D318B3149
:101AE20075238D318F31BA278D3108002000A10076
:101AF2002100540803197E2D7F2D792D111A822D74
:101B0200832D882D2000210823009A00A12D111277
:101B120020002108A0007C08303E860001308700AA
:101B2200200881000130A0002008FC0708307C0258
:101B3200031C9C2D9D2D9E2DFC0101302100D40201
:101B42002100111608002000E9006508EB00640876
:101B5200EA002200C401C501C22D6A30E70067080D
:101B6200D4006608E8006808D50069088131A1211F
:101B72008D31200054082200C4072000550822009D
:101B8200C53D20006A0884006B0885001200031D11
:101B9200CB2DCC2DAE2D220045082000E5002200E1
:101BA20044082000E400080000302000AB000030B0
:101BB200AA000030A9000030A800201CE12DE22D6F
:101BC200EA2D2408A8072508A93D2608AA3D2708CA
:101BD200AB3D0130A435A50DA60DA70D890BEB2D4C
:101BE2000130A336A20CA10CA00C890BF22D230804
:101BF200220421042004031DFF2D002EDE2D2B08BC
:101C0200A3002A08A2002908A1002808A0000800B1
:101C120022008C018D018E01373021008C00F030C2
:101C22008D00EF308E00D73023008E00D0308D0033
:101C320033308C0024008D018C018E0125008C0133
:101C42008D018E01373026008C00F0308D00FF3080
:101C52008E003F3027008C00F0308D00FF308E0068
:101C62000D303C00A40014303D00A40015303C00AF
:101C7200940013309500023096000F303D00A10011
:101C820002309E0008008A3124228E317108210020
:101C9200C9007008C800672E74082100CD007308BF
:101CA200CC007F2E74082100CB007308CA004C08B8
:101CB2004A02F5004D084B3BF600480886004908E9
:101CC20087007508C03F7608C13F7F2E480886000E
:101CD2004908870045310108853115258E31F50007
:101CE200F6017608003A0319772E7F2E7508003A1E
:101CF2000319532E013A03194D2E7F2E08008A3103
:101D020024228E3171082100C1007008C000A32E68
:101D120074082100C5007308C400BB2E740821009A
:101D2200C3007308C20044084202F5004508433B61
:101D3200F60040088600410887007508C03F760813
:101D4200C13FBB2E4008860041088700453101088B
:101D5200853115258E31F500F6017608003A031912
:101D6200B32EBB2E7508003A03198F2E013A0319C0
:101D7200892EBB2E08008A3124228E31710821005F
:101D8200B9007008B800DF2E74082100BD00730886
:101D9200BC00F72E74082100BB007308BA003C088F
:101DA2003A02F5003D083B3BF60038088600390848
:101DB20087007508C03F7608C13FF72E38088600B5
:101DC2003908870045310108853115258E31F50026
:101DD200F6017608003A0319EF2EF72E7508003A3D
:101DE2000319CB2E013A0319C52EF72E08007B08E2
:101DF200203E860001308700810123001D1D022F35
:101E0200032F0F2F7B08203E8600013087008114AC
:101E1200210031088A0030080A008F3123009D1CFE
:101E2200132F142F202F7B08203E860001308700BD
:101E3200011521002F088A002E080A008F317B0825
:101E4200203E86000130870001080319292F2A2F1E
:101E5200312F21002D088A002C080A008F31342FDF
:101E62008C3180248E31080000302000AF00003019
:101E7200AE000730AD00D030AC003A0886003B0817
:101E82008700403FBC00413FBD003C08A0003D0828
:101E9200A100A201A3010030A7000030A60001307A
:101EA200A5005730A4008D31D5258F31200023089D
:101EB200B3002208B2002108B1002008B000863128
:101EC200A1268F3120003A0886003B088700423164
:101ED2002C08C03F2D08C13F3A0886003B08870006
:101EE2004231403FBA00413FBB00080020002508B4
:101EF20003197C2F7D2F822F2508031D812F822F0E
:101F0200872F23088A3137228F31B92F2508083EBF
:101F120086008701160001040319902F912FAF2F1D
:101F22002508083E86008701403FA600413FA700E2
:101F32002508023E86008701403FA800413FA900D4
:101F42002908803AAA002708803A2A02031DAB2FEB
:101F5200260828020318AE2FAF2FB92F200025081C
:101F6200023E860087010130810741310318810A50
:101F7200080021009112F8302000A0000E30A100CC
:101F82008A319B228F3121001112D6302000A0000D
:101F92000C30A1008A31A4228F31083023009F0027
:101FA20090309D0024309E00A0309B0001309C00A8
:101FB20009302000A0000A30A1008A3189228F3125
:101FC20017302000A0000A30A1008A3192228F31FE
:101FD20013302000A0000A30A1008A3180228F3104
:101FE2002100D201FC01D50108302000A200220804
:101FF2002100D400FB01FA01D301911608004534F7
:10200200523452344F3452343A34203449346E34D8
:10201200763461346C346934643420347434723408
:1020220069346734503469346E34203428346D3462
:1020320075347334743420344E344F345434203471
:102042006234653420345B34413432342C342034ED
:10205200413433342C342034413434342C3420345D
:10206200433433342C342034433435345D3429340E
:1020720000344534523452344F3452343A342034DA
:1020820049346E34763461346C34693464342034C7
:102092006534633468346F34503469346E342034B8
:1020A20028346D34753473347434203462346534B6
:1020B20020345B34413432342C34203441343434CF
:1020C2002C342034433433342C34203443343534E8
:0C20D2005D3429340034253475340034AA
:020000040001F9
:08000000FF3FFF3FFF3FFF3F00
:08000E008C3FF33FFF3FFF3F71
:00000001FF
