:040000008031102813
:100008007E1480312000901E0A280B280E2880318B
:10001800AC2080317E10090080311228F801F901E6
:10002800FA01FB012000A001A101A201A301A40182
:10003800A501A601A7017E102000803123280030E9
:100048002000AB000030AA000030A9000030A80052
:1000580080317320803181313021803121000E10B0
:1000680022000E1081310921803173082000AF0071
:100078007208AE007108AD007008AC0028082C02A8
:10008800F40029082D3BF5002A082E3BF6002B0822
:100098002F3BF7007708031D5C287608031D5C28B2
:1000A800F43074020130753B031C5B285C28362849
:1000B80022000E080139F4000130F4060E08740617
:1000C800FE3974068E0020002F08AB002E08AA0007
:1000D8002D08A9002C08A800362880311028803166
:1000E800FF20803121009001910192019301940138
:1000F80022008C018D018E01373021008C00F030F8
:100108008D00FF308E00FF3023008E00F0308D0010
:1001180037308C0024008D018C018E0125008C0164
:100128008D018E01373026008C00F0308D00FF30B5
:100138008E003F3027008C00F0308D00FF308E009D
:100148002000900191019201930194018B170800FE
:10015800200090120130F8070030F93D0030790294
:10016800043003197802031CBA28BB28C028803140
:10017800D5208031F801F9010800423020009800AC
:10018800F930960095019012210090163430F00055
:100198000130F10081312721803180302000970023
:1001A800080081311321803181311D2180317A0885
:1001B8007B040319E028E128E6287B088A007A08EE
:1001C8000A008031080032009101543092006630F4
:1001D8009300C830940095011F3096000800320043
:1001E80099019B019D0104309F009E011C1CFD2864
:1001F800FE28FA2808008031E72080318031F3207A
:10020800803181312C218031080020002708F3003B
:100218002608F2002508F1002408F0000800013043
:100228002000A4070030A53D0030A63D0030A73DC2
:100238000800E8302000A0070330A13D0030A23DAF
:100248000030A33D08007108FB007008FA000800A0
:1002580016302100970008008031C1208131080044
:0202680008008C
:020000040001F9
:08000000FF3FFF3FFF3FFF3F00
:08000E008C3FF33FFF3FFF3F71
:00000001FF
