:1000000080319028080008007E1480312100901E65
:100010000A280B2814282000901E0F2810281428C6
:100020008B31B22380318E280B1F172818288E2879
:100030002100941D1C281D2826282000941D2128FD
:10004000222826288A31372280318E282100131E4B
:100050002A282B2834282000131E2F283028342843
:100060008B31C92380318E282100141C382839286F
:1000700042282000141C3D283E2842288B31702342
:1000800080318E282100141D462847285028200042
:10009000141D4B284C2850288B319C2380318E28EE
:1000A0002100941C542855285E282000941C5928AF
:1000B0005A285E288B31862380318E282100111C1E
:1000C000622863286C282000111C672868286C2887
:1000D0008731F52780318E282100911E70287128E4
:1000E0007D282000911E752876287D282100330860
:1000F0008A0032080A0080318E282100111E8128D2
:1001000082288E282000111E862887288E2821000C
:1001100035088A0034080A0080318E287E100900D4
:1001200080319228FA01FB01FC01FD01A03084001E
:10013000003085003A308A314622803120308400F8
:100140000130850036308A3146228031A03084006B
:100150000130850020308A31462280317E10200017
:100160008031B2288D31ED25803106302100E1004B
:100170006108DC000330E2006208DD0050308431A9
:10018000D1248031FF3A031DC628C728C828C728B4
:100190000A302100E1006108DC000530E20062085D
:1001A000DD004A308431D1248031FF3A031DD92843
:1001B000DA28DB28DA288B31242380312000230839
:1001C0002100ED00200022082100EC002000210881
:1001D0002100EB00200020082100EA006D08E80063
:1001E0006C08E7006B08E6006A08E500E901E90A27
:1001F0002000A0010C308431162480312000A001A1
:100200000C3083315B2380314A308731562780316F
:100210008B3124238031200023082100ED002000B1
:1002200022082100EC00200021082100EB00200022
:1002300020082100EA0065086A02E10066086B3BBD
:10024000E20067086C3BE30068086D3BE40064086B
:10025000031D36296308031D36296208031D36294C
:1002600032306102031C35293629082949295030CA
:1002700087315627803102302100E1006108E90012
:100280005A294A308731562780312100E901E90A8D
:100290005A2921006908E100E2016208003A0319C5
:1002A00052295A296108013A03193729033A0319D7
:1002B00041295A29013022005302F4300319520215
:1002C000031C632964296D2901304D02F4300319A0
:1002D0004C0203186C296D2975292000A001A00A81
:1002E0000C3083315B2380317B292000A0010C304E
:1002F00083315B2380316C302000EC009030ED00C6
:1003000050308F312127803120003B08EF003A0820
:10031000EE008B31462380316C302000EC009030B1
:10032000ED004A308F312127803120003B08EF005B
:100330003A08EE008B314623803121006D08E80039
:100340006C08E7006B08E6006A08E50008298031C0
:1003500090282000C7002100A51BAF29B029B4298F
:10036000FD30A605FF30A7052508803A2000C4000F
:1003700080304402031DBF290130210024020318EC
:10038000C229C329C92901302000C5000030C60098
:10039000D129210025082000C600210024082000C2
:1003A000C500210023082000C900210022082000E8
:1003B000C8003C08CA003D08CB003E08CC003F08FE
:1003C000CD004008CE004108CF004208D0004308CD
:1003D000D1001F30D2000030D3002300BF01512ACA
:1003E000FF302000D207FF30D33D0A30A000A1012A
:1003F000A201A301A401A501A601A7014A08A80022
:100400004B08A9004C08AA004D08AB004E08AC00F0
:100410004F08AD005008AE005108AF0086318A2663
:10042000813120002008303EC4005208A03E8600E2
:100430000130870044088100FF30C507FF30C63D0A
:10044000FF30C807FF30C93D0A30A000A101A2015A
:10045000A301A401A501A601A7014A08A8004B0811
:10046000A9004C08AA004D08AB004E08AC004F088C
:10047000AD005008AE005108AF008631062681312C
:1004800020002008CA002108CB002208CC00230845
:10049000CD002408CE002508CF002608D00027086C
:1004A000D1002000520853040319572A582A842ADD
:1004B0004A084B044C044D044E044F0450045104AC
:1004C000031D632A642AF0294608803AC40080305C
:1004D0004402031D6D2A013045020318702A712A57
:1004E000F02920004908803AC40080304402031DEE
:1004F0007B2A01304802031C7E2A7F2A842A21009D
:10050000A618832A842AF02920005208A03EC4009D
:100510004408B3004908B5004808B40047088F31C3
:10052000A727813120003408BD003308BC00080033
:100530002000E300540886008701403FD600413F79
:10054000D70056088400570885001200253A031D7D
:10055000AA2AAB2A372B540886008701013081076D
:1005600041310318810A2100A201A301A601A701BC
:10057000FF30A400FF30A50020005408860087014A
:10058000403FD600413FD7005608840057088500F9
:100590001200753A031DCD2ACE2A022B540886007C
:1005A00087010130810741310318810A550886000F
:1005B000870101088400850102308107003FDB00CC
:1005C000013FDC00DD01DE01DF01E001E101E201CC
:1005D0005B08BC005C08BD005D08BE005E08BF0093
:1005E0005F08C0006008C1006108C2006208C30063
:1005F00063088131A921823120003D08D5003C08E3
:10060000D4005A2B540886008701403FD600413F52
:10061000D70056088400570885001200253A031DAC
:10062000122B132B2C2B54088600870101308107D5
:1006300041310318810A2530A3000030A40063086B
:10064000D6005608A5008F31642782310130200082
:10065000D4000030D5005A2B5408860087010130A1
:10066000810741310318810AD401D5015A2B54085E
:1006700086008701403FD600413FD70056088400DE
:10068000570885000008D800D9015808A300590868
:10069000A4006308DA005A08A5008F31642782316C
:1006A000200054088600870101308107413103187A
:1006B000810A262B08002000A300D52B200C220045
:1006C000031C8C1203188C16152C200C2200031C02
:1006D0000C1203180C16152C200C2200031C8E1271
:1006E00003188E16152C200C2200031C0E12031862
:1006F0000E16152C200C2200031C8E1103188E15CB
:10070000152C200C2200031C0E1303180E17152C99
:10071000200C2200031C8E1303188E17152C200C9E
:100720002200031C8D1303188D17152C200C22009A
:10073000031C0C1003180C14152C200C2200031C95
:100740008C1003188C14152C200C2200031C0C1187
:1007500003180C15152C200C2200031C0E10031876
:100760000E14152C200C2200031C8E1003188E145E
:10077000152C200C2200031C0E1103180E15152C2D
:10078000200C2200031C0D1203180D16152C200C32
:100790002200031C8D1203188D16152C200C22002C
:1007A000031C0D1303180D17152C2308A100A2011B
:1007B0002208003A0319DD2B152C2108003A0319F1
:1007C0005E2B013A0319652B033A0319152C013AE4
:1007D00003196C2B073A0319732B013A03197A2B6F
:1007E000033A0319812B013A0319882B0F3A031995
:1007F0008F2B013A0319962B033A03199D2B013ACB
:100800000319A42B073A0319AB2B013A0319B22B96
:10081000033A0319B92B013A0319C02B1F3A0319E4
:10082000C72B013A0319CE2B152C08002000A3007A
:10083000902C200C2100031C8C1203188C16D02C39
:10084000200C2100031C0C1203180C16D02C200CB9
:100850002100031C8E1203188E16D02C200C2100B0
:10086000031C0E1203180E16D02C200C2100031CA2
:100870008E1103188E15D02C200C2100031C0E1392
:1008800003180E17D02C200C2100031C8E13031804
:100890008E17D02C200C2100031C8D1303188D17EC
:1008A000D02C200C2100031C0C1003180C14D02C8D
:1008B000200C2100031C8C1003188C14D02C200C4D
:1008C0002100031C0C1103180C15D02C200C210046
:1008D000031C0E1003180E14D02C200C2100031C36
:1008E0008E1003188E14D02C200C2100031C0E1126
:1008F00003180E15D02C200C2100031C0D12031818
:100900000D16D02C200C2100031C8D1203188D16FF
:10091000D02C200C2100031C0D1303180D17D02C14
:100920002308A100A2012208003A0319982CD02C18
:100930002108003A0319192C013A0319202C033A13
:100940000319D02C013A0319272C073A03192E2C2E
:10095000013A0319352C033A03193C2C013A0319C7
:10096000432C0F3A03194A2C013A0319512C033A2C
:100970000319582C013A03195F2C073A0319662C06
:10098000013A03196D2C033A0319742C013A031927
:100990007B2C1F3A0319822C013A0319892CD02C85
:1009A00008002100E000E72C2000A001A00A21009F
:1009B0005D08843116248431152D3A302000EC0076
:1009C0009030ED008B3146238431FF306E2D5D0871
:1009D000DE00DF015F08003A0319EF2CDD2C5E0812
:1009E000013A0319D42C023A0319D42C063A0319FC
:1009F000D42C0E3A0319D42CDD2C2000A0012100A8
:100A00005C088431162484312000A00121005C0898
:100A100083315B238431472D00302000EC0090307F
:100A2000ED008B3146238431E52C21005C08DE008B
:100A3000DF015F08003A03191E2D0C2D5E08003AF5
:100A40000319FD2C043A0319FD2C023A0319FD2C5D
:100A5000013A0319FD2C0F3A0319FD2C013A031931
:100A6000FD2C033A0319FD2C063A0319FD2C013A1B
:100A70000319FD2C033A0319FD2C013A0319FD2C2F
:100A80001F3A0319FD2C013A0319FD2C0C2D2100EE
:100A90006008023E8600013087000030C03FC13F41
:100AA00060088600013087000030C03FC13F5D080C
:100AB000DE006008053E8600013087005E08810088
:100AC0005C08DE006008043E8600013087005E0896
:100AD00081006008DE005E08D90000300800F200E6
:100AE000C52D20000C0E890C0139052E20000C0E9E
:100AF0000139052EFF30052E20000E0E890C01391C
:100B0000052E20000E0E0139052E20000E0CF000DF
:100B1000F00C700C0139052E20000E0E890C890C8A
:100B20000139052E20000E0D0E0D0139052E200075
:100B30000D0D0D0D0139052E20000C080139052E73
:100B400020000C0C0139052E20000C0C890C0139F9
:100B5000052E20000E080139052E20000E0C01394B
:100B6000052E20000E0C890C0139052E20000D0EDB
:100B70000139052E20000D0E890C0139052E2000AB
:100B80000D0E890C890C0139052E7208F000F10157
:100B90007108003A0319CD2D7A2D7008003A031917
:100BA000712D013A0319762D033A03197A2D013A72
:100BB00003197C2D073A0319812D013A0319852D5C
:100BC000033A03198C2D013A0319922D0F3A031998
:100BD000972D013A03199C2D033A0319A02D013AD0
:100BE0000319A42D073A0319A92D013A0319AD2DB4
:100BF000033A0319B12D013A0319B62D1F3A03190F
:100C0000BA2D013A0319BF2D7A2D08003130860024
:100C10000030870008302000B00000301E00B00B0C
:100C20000E2E200821042204230424042504260473
:100C3000270403191C2E1D2E792EB901B90A2C2E5A
:100C4000A035A10DA20DA30DA40DA50DA60DA70DF8
:100C50000130B0003008B907A71F2F2E302E202EEC
:100C6000B135B20DB30DB40DB50DB60DB70DB80D50
:100C700027082F02031D562E26082E02031D562E6E
:100C800025082D02031D562E24082C02031D562E66
:100C900023082B02031D562E22082A02031D562E5E
:100CA00021082902031D562E20082802031C592E54
:100CB0005A2E6B2E2008A8022108A93B2208AA3B25
:100CC0002308AB3B2408AC3B2508AD3B2608AE3BD4
:100CD0002708AF3B3114A736A60CA50CA40CA30C17
:100CE000A20CA10CA00C0130B902031D782E792EA4
:100CF000302E3108A0003208A1003308A2003408C9
:100D0000A3003508A4003608A5003708A600380857
:100D1000A700080020002008210422042304240442
:100D20002504260427040319962E972EEA2EB101D6
:100D3000B10AA62EA035A10DA20DA30DA40DA50DDF
:100D4000A60DA70D0130B0003008B107A71FA92ECE
:100D5000AA2E9A2E27082F02031DC82E26082E021F
:100D6000031DC82E25082D02031DC82E24082C02A1
:100D7000031DC82E23082B02031DC82E22082A0299
:100D8000031DC82E21082902031DC82E2008280291
:100D9000031CCB2ECC2EDC2E2008A8022108A93B58
:100DA0002208AA3B2308AB3B2408AC3B2508AD3BFB
:100DB0002608AE3B2708AF3BA736A60CA50CA40C13
:100DC000A30CA20CA10CA00C0130B102031DE92E52
:100DD000EA2EAA2E2808A0002908A1002A08A200AD
:100DE0002B08A3002C08A4002D08A5002E08A6009F
:100DF0002F08A700080000302000B8000030B7001E
:100E00000030B6000030B5002F082E042D042C044D
:100E100003190B2F0C2F4D2FB901B90A1A2F0130CE
:100E2000AC35AD0DAE0DAF0D890B102F0130B400F8
:100E30003408B907AF1F1D2F1E2F0F2F0130B535F6
:100E4000B60DB70DB80D890B1F2F2F083302031DE8
:100E5000332F2E083202031D332F2D083102031DBC
:100E6000332F2C083002031C362F372F402F2C082D
:100E7000B0022D08B13B2E08B23B2F08B33B35140E
:100E80000130AF36AE0CAD0CAC0C890B412F0130EC
:100E9000B902031D4C2F4D2F1E2F3808AF00370805
:100EA000AE003608AD003508AC0008002000AA00EE
:100EB0008C3177248731200025082200C9002000CA
:100EC00024082200C800200023082200C7002000B8
:100ED00022082200C6002000A001A00A2A08043E21
:100EE000860001308700010883315B2387318C3114
:100EF000772487312200460820002202A600220023
:100F000047082000233BA700220048082000243B7C
:100F1000A800220049082000253BA9002908031D3C
:100F20009D2F2808031D9D2F2708031D9D2F0B3083
:100F30002602031C9C2F9D2F772F2000A0012A083A
:100F4000043E860001308700010883315B2387312E
:100F500020002A08A60026082100D9000800210048
:100F6000911227302000A0000E30A1008A319F226C
:100F7000873121001112AF302000A0000C30A100F9
:100F80008A31A8228731083023009F0090309D00CD
:100F900024309E00A0309B0001309C0002302000D5
:100FA000A0000030A1008A318D2287313E30200020
:100FB000A0000A30A1008A31962287313A30200001
:100FC000A0000A30A1008A31842287312100D0019B
:100FD000FD01FC0108302000A20022082100D200FF
:100FE000FB01FA01D1019116080020001110210027
:100FF0003908F1003808F0008B31022387310800EE
:101468002100590808002000941108008C314124FB
:101478008A31080023001D121D16080016302100AD
:1014880097000800640080010131890B472A003465
:101498008A31D6228A318A31CC228A31080020004A
:1014A800A20022088D3125258A3108002000150860
:1014B800A0002008A10021080800F93020009E00A3
:1014C8009D01911006309F0008002000210821008E
:1014D800CB00200020082100CA00080020002108B5
:1014E8002100C500200020082100C40008002000B9
:1014F80021082100BF00200020082100BE000800AC
:10150800200021082100AD00200020082100AC00A7
:101518000800200021082100B10020002008210037
:10152800B0000800200021082100AF00200020089A
:101538002100AE000800200021082100B30020008F
:1015480020082100B2000800200021082100B50071
:10155800200020082100B4000800200021082100F4
:10156800CF00200020082100CE000800200021081C
:101578002100B700200020082100B6000800200044
:1015880021082100A900200020082100A800080047
:10159800E8302200BE070330BF3D0030C03D0030B8
:1015A800C13D080001302200C2070030C33D0030B1
:1015B800C43D0030C53D080080302C0099009801DA
:1015C80097011F08FC3901389F0008003200990173
:1015D8009B019D0104309F009E011C1CF42AF52AE2
:1015E800F12A0800320091017C30920066309300A5
:1015F800C830940095011F309600080020001B1D7C
:10160800062B072B0E2B1B1071089A0070089900E7
:101618001B14122B71089A00700899000800280002
:10162800131D172B182B1F2B13107108920070080D
:1016380091001314232B7108920070089100080080
:10164800220045082000A300220044082000A20030
:10165800220043082000A100220042082000A00028
:10166800080081302600970011309600C13095009F
:1016780025001F083F3980389F0020009411210061
:10168800941508006E302100DA005A08DB002000AB
:101698006D08E5006C08E400DB302100DA005A0828
:1016A8002000E60000308D3152258B310800423091
:1016B80020009800F93096009501901221009016AC
:1016C80000302000A0000030A1008A31B1228B3107
:1016D8008030200097000800200014102500110811
:1016E800F7007708F8001208F7007708F90079087A
:1016F800F4007808F30021004B088A004A080A0021
:101708008B3108002000941025001508F700770891
:10171800F8001608F7007708F9007908F400780847
:10172800F300210045088A0044080A008B310800AC
:101738002000141126001108F7007708F800120895
:10174800F7007708F9007908F4007808F300210019
:101758003F088A003E080A008B31080020009012DA
:1017680001302100CC070030CD3D00304D0204305F
:1017780003194C02031CC12BC22BC82B8A314C22E3
:101788008B312100CC01CD0108002000131221006B
:101798002B08F1002A08F0008B3113238B3121002C
:1017A800280829040319D92BDA2BDF2B29088A00EA
:1017B80028080A008B310800833025009300940123
:1017C8009201910164302000A0000E30A1008A31FE
:1017D80069228B3125001F08FC3901389F00200041
:1017E8001410210014140800833025009700980174
:1017F80096019501A3302000A0000E30A1008A3187
:1018080072228B3125001F08F33904389F0020000D
:10181800941021009414080083302600930094014A
:1018280092019101E2302000A0000E30A1008A311F
:101838007B228C3125001F08CF3910389F002000EB
:10184800141121001415080020009C019A01990127
:1018580011101A082100B900200019082100B80049
:10186800111400302000A0000030A1008A31BA22F3
:101878008C31213020009B00080023001908F0005B
:101888007B08283E860001308700700881000130FF
:10189800F0007008FB0708307B02031C542C552C01
:1018A800562CFB010130F00070082100D107080018
:1018B8002000A4002408A2002208A300672C0130FD
:1018C800A2002208A4072408860001308700010826
:1018D800031D6F2C702C632C23082402A000A10187
:1018E800A01BA10308008A315A228C3122003E072E
:1018F8002000A20022003F0803183F0F0310200019
:10190800A300220040080318400F03102000A40081
:10191800220041080318410A2000A50008002800F9
:101928009401063092009101200013122800120839
:101938002100AB00280011082100AA00131603306B
:101948002000A0000030A1008A31C3228C31013070
:101958002800930008000830210052020318B52C13
:10196800B62CCF2C7C08303E860001308700010859
:1019780023009A000130F0007008FC0708307C0250
:10198800031CC72CC82CC92CFC010130F0007008BE
:101998002100D207D02C111208002000B200B0019B
:1019A800B101E92C2F08AC00AD012C08A3002D08CB
:1019B800A4002B08AE002E08A5008F3164278C31B7
:1019C80001302000B0070030B13D30083207AC00CC
:1019D8002C088600013087000108AD002D08AF00F3
:1019E8002F08031DF82CF92CD62C08008A31F62272
:1019F8008C318D31B7258C318A31EA228C318A318C
:101A080042228C318C3110248C318B31E0238C3183
:101A18008A3161228C318B315B238C318B31F823F5
:101A28008C318B3135238C318C3193248C318A3134
:101A3800E0228C318C3128248C318731AF278C31CE
:101A480008002000A1002100520803192C2D2D2D7B
:101A5800272D111A302D312D362D20002108230075
:101A68009A004F2D111220002108A0007D08303E59
:101A7800860001308700200881000130A00020087E
:101A8800FD0708307D02031C4A2D4B2D4C2DFD010E
:101A980001302100D2022100111608002000E900BF
:101AA8006508EB006408EA002100A001A101702D7F
:101AB8006A30E7006708D4006608E8006808D500BF
:101AC8006908823198228D31200054082100A0072E
:101AD800200055082100A13D20006A0884006B08F9
:101AE80085001200031D792D7A2D5C2D2100210817
:101AF8002000E500210020082000E4000800003054
:101B08002000AB000030AA000030A9000030A80077
:101B1800201C8F2D902D982D2408A8072508A93D55
:101B28002608AA3D2708AB3D0130A435A50DA60D12
:101B3800A70D890B992D0130A336A20CA10CA00C7E
:101B4800890BA02D2308220421042004031DAD2D98
:101B5800AE2D8C2D2B08A3002A08A2002908A1006D
:101B68002808A000080022008C018D018E01373062
:101B780021008C00F0308D00EF308E00D73023002C
:101B88008E00D0308D0033308C0024008D018C0104
:101B98008E0125008C018D018E01373026008C00C6
:101BA800F0308D00FF308E003F3027008C00F03081
:101BB8008D00FF308E000D303C00A40013309500DE
:101BC8000230960014303D00A40015303C0094000B
:101BD80008002100900191019201930194012200D3
:101BE8008C018D018E01373021008C00F0308D0082
:101BF800FF308E00FF3023008E00F0308D0037302C
:101C08008C0024008D018C018E0125008C018D0132
:101C18008E01373026008C00F0308D00FF308E00AA
:101C28003F3027008C00F0308D00FF308E00200000
:101C3800900191019201930194018C31FA248D3124
:101C48000B178B1708007B08203E860001308700A1
:101C5800810123001D1D312E322E3E2E7B08203E91
:101C68008600013087008114210031088A0030087D
:101C78000A008E3123009D1C422E432E4F2E7B08D6
:101C8800203E860001308700011521002F088A00B8
:101C98002E080A008E317B08203E8600013087001E
:101CA80001080319582E592E602E21002D088A008C
:101CB8002C080A008E31632E8C3141248E310800A5
:101CC8008A3134228E31F50075082100D7008A2E1A
:101CD80074082100C9007308C8005708F500750882
:101CE800D800A22E74082100C7007308C60048084F
:101CF8004602F5004908473BF600580886000130BF
:101D080087007508C03F7608C13FA22E5708053ED8
:101D1800860001308700010885316F258E31F50076
:101D2800F6017608003A03199A2EA22E7508003A91
:101D38000319762E013A03196C2EA22E08008A3157
:101D480034228E31F50075082100D500C92E74089B
:101D58002100C3007308C2005508F5007508D600B5
:101D6800E12E74082100C1007308C0004208400237
:101D7800F5004308413BF60056088600013087000D
:101D88007508C03F7608C13FE12E5508053E86001C
:101D980001308700010885316F258E31F500F60185
:101DA8007608003A0319D92EE12E7508003A03196E
:101DB800B52E013A0319AB2EE12E08008A313422E0
:101DC8008E31F50075082100D300082F7408210012
:101DD800BD007308BC005308F5007508D400202F17
:101DE80074082100BB007308BA003C083A02F500E9
:101DF8003D083B3BF6005408860001308700750813
:101E0800C03F7608C13F202F5308053E86000130A9
:101E18008700010885316F258E31F500F6017608B7
:101E2800003A0319182F202F7508003A0319F42EC9
:101E3800013A0319EA2E202F08002000BE000030C6
:101E4800AF000030AE000730AD00D030AC003E0827
:101E5800860001308700403FBC00413FBD003C0880
:101E6800A0003D08A100A201A3010030A700003096
:101E7800A6000130A5005730A4008D3183258F318D
:101E880020002308B3002208B2002108B10020086E
:101E9800B0008631FB268F3120003E08023E8600C6
:101EA800013087002C08C03F2D08C13F3E08023E84
:101EB800860001308700403FBA00413FBB00080060
:101EC800200025080319692F6A2F6F2F2508031D85
:101ED8006E2F6F2F742F23088A3153228F31A62F2C
:101EE8002508083E860087011600010403197D2F86
:101EF8007E2F9C2F2508083E86008701403FA600BC
:101F0800413FA7002508023E86008701403FA80000
:101F1800413FA9002908803AAA002708803A2A02E6
:101F2800031D982F2608280203189B2F9C2FA62FE5
:101F380020002508023E86008701013081074131D3
:101F48000318810A08002000BB002100261CAD2FC1
:101F5800AE2FB72F20003B08B6003608AB00330879
:101F68008C31D1248F312000B51BBB2FBC2FC12F42
:101F78003508BA003408B900C32FB901BA01B7014E
:101F8800B801D72F20302000A3000030A4003B0860
:101F9800B6003608A5008F3164278F310130200044
:101FA800B7070030B83D3808803AB6003A08803A9A
:101FB8003602031DE12F39083702031CE42FE52FF1
:101FC800C62F21002618E92FEA2FF32F20003B08FF
:101FD800B6003608AB0033088C31D1248F3120008D
:101FE80033088C315C248F31200039082007B30076
:101FF8003A08213DB40008004534523452344F3475
:1020080052343A34203449346E34763461346C3482
:102018006934643420347434723469346734503425
:1020280069346E34203428346D3475347334743420
:1020380020344E344F3454342034623465342034E0
:102048005B34413432342C342034413433342C342E
:102058002034413434342C342034433433342C3455
:102068002034433435345D34293400344534523413
:1020780052344F3452343A34203449346E3476343E
:1020880061346C34693464342034653463346834BE
:102098006F34503469346E34203428346D347534D8
:1020A8007334743420346234653420345B344134FE
:1020B80032342C342034413434342C3420344334F6
:1020C80033342C342034433435345D3429340034EB
:0620D800253475340034CC
:020000040001F9
:08000000FF3FFF3FFF3FFF3F00
:08000E008C3FF33FFF3FFF3F71
:00000001FF
