:1000000080317428080008007E1480312100901E81
:100010000A280B2814282000901E0F2810281428C6
:100020008C31D924803172280B1F17281828722888
:100030002100141C1C281D2826282000141C2128FF
:10004000222826288C319724803172282100941C84
:100050002A282B2834282000941C2F2830283428C4
:100060008C31AD24803172282100141D38283928A4
:1000700042282000141D3D283E2842288C31C324EC
:10008000803172282100111C462847285028200062
:10009000111C4B284C2850288C3128248031722880
:1000A0002100911E5428552861282000911E5928AE
:1000B0005A28612821003B088A003A080A0080314A
:1000C00072282100111E6528662872282000111E42
:1000D0006A286B28722821003D088A003C080A0023
:1000E000803172287E10090080317628FB01FC01E6
:1000F000FD01A0308400003085003F308B31982313
:100100008031203084000130850044308B319823C9
:1001100080317E1020008331B52B2000C7002100E4
:10012000B11B932894289828FD30B205FF30B30501
:100130003108803A2000C40080304402031DA32807
:100140000130210030020318A628A728AD2801306D
:100150002000C5000030C600B5282100310820006D
:10016000C600210030082000C50021002F08200013
:10017000C90021002E082000C8003C08CA003D0824
:10018000CB003E08CC003F08CD004008CE0041081F
:10019000CF004208D0004308D1001F30D200003009
:1001A000D3002200E3013529FF302000D207FF30C1
:1001B000D33D0A30A000A101A201A301A401A50121
:1001C000A601A7014A08A8004B08A9004C08AA00EC
:1001D0004D08AB004E08AC004F08AD005008AE0013
:1001E0005108AF008531F825803120002008303ECD
:1001F000C4005208443E8600013087004408810054
:10020000FF30C507FF30C63DFF30C807FF30C93D8E
:100210000A30A000A101A201A301A401A501A60129
:10022000A7014A08A8004B08A9004C08AA004D08DD
:10023000AB004E08AC004F08AD005008AE005108AE
:10024000AF008431F224803120002008CA00210848
:10025000CB002208CC002308CD002408CE002508BE
:10026000CF002608D0002708D100200052085304F0
:1002700003193B293C2968294A084B044C044D04C6
:100280004E044F0450045104031D47294829D42823
:100290004608803AC40080304402031D51290130D1
:1002A0004502031854295529D42820004908803ACA
:1002B000C40080304402031D5F2901304802031C42
:1002C0006229632968292100B21867296829D4287E
:1002D00020005208443EC4004408B3004908B50059
:1002E0004808B40047088631C4268031200034080D
:1002F000BD003308BC0008002000E300540886005D
:100300008701403FD600413FD70056088400570878
:1003100085001200253A031D8E298F291B2A5408B7
:10032000860087010130810741310318810A2100CD
:10033000AE01AF01B201B301FF30B000FF30B10038
:100340002000540886008701403FD600413FD70077
:1003500056088400570885001200753A031DB1291C
:10036000B229E6295408860087010130810741310E
:100370000318810A55088600870101088400850159
:1003800002308107003FDB00013FDC00DD01DE01C0
:10039000DF01E001E101E2015B08BC005C08BD0097
:1003A0005D08BE005E08BF005F08C0006008C100B5
:1003B0006108C2006208C300630880318D2081316A
:1003C00020003D08D5003C08D4003E2A5408860091
:1003D0008701403FD600413FD700560884005708A8
:1003E00085001200253A031DF629F729102A540822
:1003F000860087010130810741310318810A2530C9
:10040000A3000030A4006308D6005608A500873179
:10041000BA27813101302000D4000030D5003E2AB7
:100420005408860087010130810741310318810A91
:10043000D401D5013E2A540886008701403FD600EA
:10044000413FD70056088400570885000008D800AF
:10045000D9015808A3005908A4006308DA005A0813
:10046000A5008731BA278131200054088600870112
:100470000130810741310318810A0A2A080020004F
:10048000A300B92A200C2200031C8C1203188C161E
:10049000F92A200C2200031C0C1203180C16F92A4E
:1004A000200C2200031C8E1203188E16F92A200C31
:1004B0002200031C0E1203180E16F92A200C22002B
:1004C000031C8E1103188E15F92A200C2200031C20
:1004D0000E1303180E17F92A200C2200031C8E138A
:1004E00003188E17F92A200C2200031C8D13031801
:1004F0008D17F92A200C2200031C0C1003180C1471
:10050000F92A200C2200031C8C1003188C14F92AE1
:10051000200C2200031C0C1103180C15F92A200CC6
:100520002200031C0E1003180E14F92A200C2200BE
:10053000031C8E1003188E14F92A200C2200031CB1
:100540000E1103180E15F92A200C2200031C0D129F
:1005500003180D16F92A200C2200031C8D12031813
:100560008D16F92A200C2200031C0D1303180D17F9
:10057000F92A2308A100A2012208003A0319C12A7E
:10058000F92A2108003A0319422A013A0319492A93
:10059000033A0319F92A013A0319502A073A0319B1
:1005A000572A013A03195E2A033A0319652A013AC8
:1005B00003196C2A0F3A0319732A013A03197A2A8C
:1005C000033A0319812A013A0319882A073A0319C1
:1005D0008F2A013A0319962A033A03199D2A013AF0
:1005E0000319A42A1F3A0319AB2A013A0319B22AA4
:1005F000F92A08002000A300742B200C2100031C02
:100600008C1203188C16B42B200C2100031C0C1226
:1006100003180C16B42B200C2100031C8E12031897
:100620008E16B42B200C2100031C0E1203180E167C
:10063000B42B200C2100031C8E1103188E15B42B33
:10064000200C2100031C0E1303180E17B42B200CD2
:100650002100031C8E1303188E17B42B200C2100CD
:10066000031C8D1303188D17B42B200C2100031CC1
:100670000C1003180C14B42B200C2100031C8C103C
:1006800003188C14B42B200C2100031C0C1103182C
:100690000C15B42B200C2100031C0E1003180E1493
:1006A000B42B200C2100031C8E1003188E14B42BC5
:1006B000200C2100031C0E1103180E15B42B200C66
:1006C0002100031C0D1203180D16B42B200C210061
:1006D000031C8D1203188D16B42B200C2100031C53
:1006E0000D1303180D17B42B2308A100A201220833
:1006F000003A03197C2BB42B2108003A0319FD2A78
:10070000013A0319042B033A0319B42B013A0319D4
:100710000B2B073A0319122B013A0319192B033A31
:100720000319202B013A0319272B0F3A03192E2BFB
:10073000013A0319352B033A03193C2B013A0319EB
:10074000432B073A03194A2B013A0319512B033A59
:100750000319582B013A03195F2B1F3A0319662B13
:10076000013A03196D2BB42B08008F3149278331CF
:100770008B31902383318B31A523833106302100C7
:10078000E10061082000A40003302100E2006208BB
:100790002000A500D9308531762583310030210035
:1007A000E8000030E7000030E6000030E5002000FF
:1007B000A0010C308231FA2283312000A0010C30DC
:1007C00082313F228331D93087311D2783318C31EB
:1007D0005C248331200023082100EC002000220843
:1007E0002100EB00200021082100EA002000200861
:1007F0002100E90065086902E10066086A3BE20041
:1008000067086B3BE30068086C3BE4006408031D69
:10081000152C6308031D152C6208031D152C32309E
:100820006102031C142C152CE72BD9308F31C02703
:100830008331013020003B02F43003193A020318DF
:10084000222C232C2A2CA001A00A0C3082313F221A
:1008500083313A2C013021005C02F53003195B0230
:10086000031C332C342C3A2C2000A0010C30823194
:100870003F22833100302000EC009030ED00D93071
:100880008F31C027833120003B08EF003A08EE008B
:100890008C3182248331D93087311D278331210067
:1008A0006C08E8006B08E7006A08E6006908E500E4
:1008B000E72B80317428F200B12C20000C0E890C3B
:1008C0000139F12C20000C0E0139F12CFF30F12CF4
:1008D00020000E0E890C0139F12C20000E0E01397A
:1008E000F12C20000E0CF000F00C700C0139F12CF2
:1008F00020000E0E890C890C0139F12C20000E0D00
:100900000E0D0139F12C20000D0D0D0D0139F12CCA
:1009100020000C080139F12C20000C0C0139F12CBD
:1009200020000C0C890C0139F12C20000E08013933
:10093000F12C20000E0C0139F12C20000E0C890C3A
:100940000139F12C20000D0E0139F12C20000D0E83
:10095000890C0139F12C20000D0E890C890C01390C
:10096000F12C7208F000F1017108003A0319B92C5A
:10097000662C7008003A03195D2C013A0319622CA9
:10098000033A0319662C013A0319682C073A031934
:100990006D2C013A0319712C033A0319782C013A92
:1009A00003197E2C0F3A0319832C013A0319882C62
:1009B000033A03198C2C013A0319902C073A0319B6
:1009C000952C013A0319992C033A03199D2C013AED
:1009D0000319A22C1F3A0319A62C013A0319AB2CB8
:1009E000662C080031308600003087000830200077
:1009F000B00000301E00B00BFA2C200821042204A5
:100A0000230424042504260427040319082D092D92
:100A1000652DB901B90A182DA035A10DA20DA30DA0
:100A2000A40DA50DA60DA70D0130B0003008B90723
:100A3000A71F1B2D1C2D0C2DB135B20DB30DB40D00
:100A4000B50DB60DB70DB80D27082F02031D422DA9
:100A500026082E02031D422D25082D02031D422DBE
:100A600024082C02031D422D23082B02031D422DB6
:100A700022082A02031D422D21082902031D422DAE
:100A800020082802031C452D462D572D2008A802BA
:100A90002108A93B2208AA3B2308AB3B2408AC3B16
:100AA0002508AD3B2608AE3B2708AF3B3114A736DF
:100AB000A60CA50CA40CA30CA20CA10CA00C01303C
:100AC000B902031D642D652D1C2D3108A0003208CC
:100AD000A1003308A2003408A3003508A40036089A
:100AE000A5003708A6003808A70008002000A800C5
:100AF000802DA001A00A25088231FA228531A22D7D
:100B00002508A600A7012708003A0319882DF72D0C
:100B10002608013A0319792D023A0319792D063A6C
:100B20000319792D0E3A0319792DF72DA001240808
:100B30008231FA2285312000A001240882313F222F
:100B40008531D42D20002408A600A7012708003AEB
:100B50000319AB2DF72D2608003A0319962D043AF8
:100B60000319962D023A0319962D013A0319962D71
:100B70000F3A0319962D013A0319962D033A0319DA
:100B8000962D063A0319962D013A0319962D033A2C
:100B90000319962D013A0319962D1F3A0319962D24
:100BA000013A0319962DF72D20002808023E8600F1
:100BB00087010030C03FC13F280886008701003010
:100BC000C03FC13F2508A6002808053E86008701D2
:100BD000260881002408A6002808043E8600870114
:100BE000260881002808A60026082100D800080051
:100BF00020002008210422042304240425042604C0
:100C000027040319042E052E582EB101B10A142E03
:100C1000A035A10DA20DA30DA40DA50DA60DA70D28
:100C20000130B0003008B107A71F172E182E082E6C
:100C300027082F02031D362E26082E02031D362EEE
:100C400025082D02031D362E24082C02031D362EE6
:100C500023082B02031D362E22082A02031D362EDE
:100C600021082902031D362E20082802031C392ED4
:100C70003A2E4A2E2008A8022108A93B2208AA3BA6
:100C80002308AB3B2408AC3B2508AD3B2608AE3B14
:100C90002708AF3BA736A60CA50CA40CA30CA20CEE
:100CA000A10CA00C0130B102031D572E582E182E96
:100CB0002808A0002908A1002A08A2002B08A300E8
:100CC0002C08A4002D08A5002E08A6002F08A700B8
:100CD000080000302000B8000030B7000030B60037
:100CE0000030B5002F082E042D042C040319792E92
:100CF0007A2EBB2EB901B90A882E0130AC35AD0D64
:100D0000AE0DAF0D890B7E2E0130B4003408B9074B
:100D1000AF1F8B2E8C2E7D2E0130B535B60DB70D45
:100D2000B80D890B8D2E2F083302031DA12E2E081E
:100D30003202031DA12E2D083102031DA12E2C0805
:100D40003002031CA42EA52EAE2E2C08B0022D08B6
:100D5000B13B2E08B23B2F08B33B35140130AF3600
:100D6000AE0CAD0CAC0C890BAF2E0130B902031DDB
:100D7000BA2EBB2E8C2E3808AF003708AE003608CE
:100D8000AD003508AC0008002000BB002100321C7B
:100D9000CA2ECB2ED42E20003B08B6003608AB005E
:100DA00033088D31E42586312000B51BD82ED92E8D
:100DB000DE2E3508BA003408B900E02EB901BA01B8
:100DC000B701B801F42E20302000A3000030A400A9
:100DD0003B08B6003608A5008731BA2786310130B6
:100DE0002000B7070030B83D3808803AB6003A080E
:100DF000803A3602031DFE2E39083702031C012FEC
:100E0000022FE32E21003218062F072F102F20006B
:100E10003B08B6003608AB0033088D31E425863137
:100E2000200033088D316C258631200039082007D9
:100E3000B3003A08213DB40008002000AA008D311B
:100E400087258731200025082100AB0020002408D9
:100E50002100AA00200023082100A9002000220868
:100E60002100A8002000A001A00A2A08043E860054
:100E70008701010882313F2287318D3187258731F3
:100E80002100280820002202A600210029082000B5
:100E9000233BA70021002A082000243BA8002100B2
:100EA0002B082000253BA9002908031D632F2808D3
:100EB000031D632F2708031D632F0B302602031C1D
:100EC000622F632F3D2F2000A0012A08043E8600D8
:100ED0008701010882313F22873120002A08A600BD
:100EE00026082100D800080021009112833020003C
:100EF000A0000F30A1008C31022487312100111293
:100F0000C2302000A0000D30A1008C310B248731AD
:100F1000083023009F0090309D0024309E00A030B8
:100F20009B0001309C0003302000A0000030A10095
:100F30008B31F02387318C302000A0000B30A100D2
:100F40008B31F923873188302000A0000B30A100BD
:100F50008B31E72387312100D401FD01D70108300F
:100F60002000A20022082100D600FC01FB01D501CF
:100F700091160800200025080319BF2FC02FC52F88
:100F80002508031DC42FC52FCA2F23088B31B32377
:100F90008731FC2F2508083E8600870116000104D2
:100FA0000319D32FD42FF22F2508083E860087017E
:100FB000403FA600413FA7002508023E860087016A
:100FC000403FA800413FA9002908803AAA0027080D
:100FD000803A2A02031DEE2F260828020318F12F5B
:100FE000F22FFC2F20002508023E860087010130E9
:100FF000810741310318810A0800210058080800C0
:101710008D3151258B31080023001D121D16080044
:101720008C316D248B3108001630210097000800A1
:10173000640080010131890B992B00348C311E2407
:101740008B318C3114248B3108008D3138258B314D
:101750008C31F0248B31080020001508A0002008EF
:10176000A100210808002000A20022088E310D26C9
:101770008B310800200021082100D3002000200820
:101780002100D2000800200021082100CF00200005
:1017900020082100CE000800200021082100BF0001
:1017A000200020082100BE000800200021082100A0
:1017B000C900200020082100C800080020002108DE
:1017C0002100C300200020082100C20008002000E2
:1017D00021082100B500200020082100B4000800E5
:1017E000200021082100B900200020082100B800B5
:1017F0000800200021082100B70020002008210057
:10180000B6000800200021082100BB0020002008AD
:101810002100BA000800200021082100BD0020009E
:1018200020082100BC000800E8302100A007033098
:10183000A13D0030A23D0030A33D08000130210051
:10184000A4070030A53D0030A63D0030A73D0800AC
:101850002000111021004108F1004008F0008C31F7
:101860004B248C310800320099019B019D0104300A
:101870009F009E011C1C3D2C3E2C3A2C080032007F
:1018800091017C30920066309300C830940095013D
:101890001F309600080020001B1D4F2C502C572C89
:1018A0001B1071089A00700899001B145B2C7108BA
:1018B0009A00700899000800210027082000A30062
:1018C000210026082000A200210025082000A100F8
:1018D000210024082000A0000800423020009800C9
:1018E000F9309600950190122100901600302000EA
:1018F000A0000030A1008B31BA238C318030200051
:10190000970008006E302100DF005F08E000200033
:101910006D08E5006C08E400E0302100DF005F089E
:101920002000E60000308E313A268C31080020007D
:10193000141025001108F8007808F9001208F800C2
:101940007808FA007A08F4007908F30021004F08BB
:101950008A004E080A008C310800200094102500EF
:101960001508F8007808F9001608F8007808FA0059
:101970007A08F4007908F300210049088A00480831
:101980000A008C3108002000141126001108F20012
:101990007208F3001208F2007208F4007408F100F3
:1019A0007308F000210043088A0042080A008C31C5
:1019B00008002000901201302100D0070030D13DF6
:1019C00000305102043003195002031CE82CE92CAA
:1019D000EF2C8B319E238C312100D001D1010800E6
:1019E000833025009300940192019101D5302000AD
:1019F000A0000E30A1008B31C3238C3125001F08BD
:101A0000FC3901389F002000141021001414080034
:101A10008330250097009801960195010F30200032
:101A2000A0000F30A1008B31D5238D3125001F0878
:101A3000F33904389F00200094102100941408000A
:101A4000833026009300940192019101023020001E
:101A5000A0000030A1008B31DE238D3125001F084E
:101A6000CF3910389F0020001411210014150800F0
:101A700020009C019A01990111101A082100C1004F
:101A8000200019082100C000111400302000A0001F
:101A90000030A1008B31CC238D31113020009B0010
:101AA000080023001908F0007C08283E8600013059
:101AB0008700700881000130F0007008FC070830D2
:101AC0007C02031C642D652D662DFC010130F000A5
:101AD00070082100D50708002000A4002408A200F7
:101AE0002208A300772D0130A2002208A4072408B1
:101AF0008600013087000108031D7F2D802D732D86
:101B000023082402A000A101A01BA10308008B311F
:101B1000AC238D31210020072000A20021002108E4
:101B20000318210F03102000A3002100220803182E
:101B3000220F03102000A400210023080318230A09
:101B40002000A50008008C313F248D318E319F2666
:101B50008D318C3133248D318B3194238D318D3106
:101B600008258D318D3120258D318C31F0248D313A
:101B70008D3138258D318C316D248D31873174272D
:101B80008D3108000830210056020318C82DC92DD8
:101B9000E22D5708303E86000130870001082300FF
:101BA0009A000130F00070082100D7070830570272
:101BB000031CDB2DDC2DDD2DD7010130F00070087A
:101BC000D607E32D111208002000B200B001B101C8
:101BD000FC2D2F08AC00AD012C08A3002D08A4009B
:101BE0002B08AE002E08A5008731BA278D310130B1
:101BF0002000B0070030B13D30083207AC002C089F
:101C00008600013087000108AD002D08AF002F08C5
:101C1000031D0B2E0C2EE92D08002000A100210031
:101C200056080319142E152E0F2E111A182E192EC0
:101C30001E2E2000210823009A00372E11122000AA
:101C40002108A0007D08303E860001308700200872
:101C500081000130A0002008FD0708307D02031C30
:101C6000322E332E342EFD0101302100D602210008
:101C7000111608002000E9006508EB006408EA007E
:101C80002100AC01AD01582E6A30E7006708D4008E
:101C90006608E8006808D500690881317C218E312A
:101CA000200054082100AC07200055082100AD3D5C
:101CB00020006A0884006B0885001200031D612E55
:101CC000622E442E21002D082000E50021002C0862
:101CD0002000E400080000302000AB000030AA0023
:101CE0000030A9000030A800201C772E782E802E0E
:101CF0002408A8072508A93D2608AA3D2708AB3DCA
:101D00000130A435A50DA60DA70D890B812E01303C
:101D1000A336A20CA10CA00C890B882E2308220448
:101D200021042004031D952E962E742E2B08A3004B
:101D30002A08A2002908A1002808A0000800220003
:101D40008C018D018E01373021008C00F0308D0028
:101D5000FF308E00D73023008E00F0308D003330FE
:101D60008C0024008D018C018E0125008C018D01D9
:101D70008E01373026008C00F0308D00FF308E0051
:101D80003F3027008C00F0308D00FF308E000D308A
:101D90003C00A400133095000230960014303D0042
:101DA000A40015303C0094000800F32E74082100B4
:101DB000CD007308CC000E2F74082100CB007308EF
:101DC000CA004C084A02F5004D084B3BF600F636B7
:101DD000F50C8731FD278E31860087017508C03FDD
:101DE0007608C13F0E2F8731FD278E31F500053073
:101DF000750786008701010884315B248E31F60067
:101E0000F7017708003A0319062F0E2F7608003ADB
:101E10000319DC2E013A0319D62E0E2F08002D2FA0
:101E200074082100C7007308C600482F74082100F9
:101E3000C5007308C40046084402F5004708453B46
:101E4000F600F636F50C8731FD278F3186008701C5
:101E50007508C03F7608C13F482F8731FD278F3175
:101E6000F5000530750786008701010884315B2481
:101E70008F31F600F7017708003A0319402F482FF9
:101E80007608003A0319162F013A0319102F482F2C
:101E90000800210090019101920193019401220018
:101EA0008C018D018E01373021008C00F0308D00C7
:101EB000FF308E00FF3023008E00F0308D00373071
:101EC0008C0024008D018C018E0125008C018D0178
:101ED0008E01373026008C00F0308D00FF308E00F0
:101EE0003F3027008C00F0308D00FF308E00200046
:101EF000900191019201930194018D31A3258F31BD
:101F00000B178B1708007C08203E860001308700E5
:101F1000810123001D1D8D2F8E2F9A2F7C08203EBE
:101F20008600013087008114210039088A003808B2
:101F30000A008F3123009D1C9E2F9F2FAB2F7C0802
:101F4000203E8600013087000115210037088A00F5
:101F500036080A008F317C08203E86000130870059
:101F600001080319B42FB52FBC2F210035088A00B2
:101F700034080A008F31BF2F8D3151258F31080071
:101F80002000BE000030AF000030AE000730AD00D2
:101F9000D030AC003E0886008701403FBC00413F86
:101FA000BD003C08A0003D08A100A201A301003033
:101FB000A7000030A6000130A5005730A4008E31E4
:101FC0006B268F3120002308B3002208B2002108BD
:101FD000B1002008B000863169268F3120003E080C
:101FE000023E860087012C08C03F2D08C13F3E08F5
:101FF000023E86008701403FBA00413FBB00080017
:10200000443469347334743461346E346334653405
:1020100020343D3420342534753420340A340034DF
:020000040001F9
:08000000FF3FFF3FFF3FFF3F00
:08000E008C3FF33FFF3FFF3F71
:00000001FF
