:10000000803190287D0808007E1480312100901EE8
:100010000A280B2814282000901E0F2810281428C6
:100020008A31CE2280318E280B1F172818288E285F
:100030002100941D1C281D2826282000941D2128FD
:10004000222826288931EC2180318E282100131E98
:100050002A282B2834282000131E2F283028342843
:100060008931FB2180318E282100141C3828392841
:1000700042282000141C3D283E2842288B315B2357
:1000800080318E282100141D462847285028200042
:10009000141D4B284C2850288B31872380318E2803
:1000A0002100941C542855285E282000941C5928AF
:1000B0005A285E288B31712380318E282100111C33
:1000C000622863286C282000111C672868286C2887
:1000D0008A319C2280318E282100911E702871283F
:1000E0007D282000911E752876287D28210037085C
:1000F0008A0036080A0080318E282100111E8128CE
:1001000082288E282000111E862887288E2821000C
:1001100039088A0038080A0080318E287E100900CC
:1001200080319228FA01FB01FC01FD01A03084001E
:10013000003085003B308A3101228031203084003C
:100140000130850038308A3101228031A0308400AE
:100150000130850020308A31012280317E1020005C
:100160008031B2288B313423803103302100E2000A
:100170006208EB00F3280830E2006208DD000B3073
:10018000E3006308DE00463085312E258031FF3ADA
:10019000031DCB28CC28CD28CC280A302100E20032
:1001A0006208DD000530E3006308DE004C30853175
:1001B0002E258031FF3A031DDE28DF28E028DF28C6
:1001C00006302100E2006208DD000330E30063082E
:1001D000DE00523085312E258031FF3A031DF12893
:1001E000F2280329F2280030003A0319F8280329DD
:1001F0000330013A0319E028033A0319CD28013AE4
:100200000319BB28032900302100E9000030E80071
:100210000030E7000030E600EA01EA0A2000A00111
:100220000C308431732480312000A0010C308331E4
:10023000B823803146308F31A72780318B3101239D
:100240008031200023082100EF0020002208210037
:10025000EE00200021082100ED00200020082100F0
:10026000EC0021006F08E9006E08E8006D08E70067
:100270006C08E6008B310123803120002308210027
:10028000EF00200022082100EE00200021082100BC
:10029000ED00200020082100EC0066086C02E2005E
:1002A00067086D3BE30068086E3BE40069086F3B3C
:1002B000E5006508031D68296408031D68296308B3
:1002C000031D682932306202031C672968293A2914
:1002D000C52952308F31A727803178302000EC00BB
:1002E0009030ED0046308E318226803120003B0870
:1002F000EF003A08EE008B314623803102302100B6
:100300006B02031C842985298A290230E2006208D5
:10031000EA00D9292100EA01EA0AD9294C308F31B3
:10032000A72780316C302000EC009030ED00523077
:100330008E318226803120003B08EF003A08EE0023
:100340008B3146238031033021006B02031CA92925
:10035000AA298A290330E2006208EA00D929463036
:100360008F31A727803172302000EC009030ED00F3
:100370004C308E318226803120003B08EF003A0855
:10038000EE008B31462380318A2921006A08E20081
:10039000E3016308003A0319CE29D9296208013A1A
:1003A00003196929033A03198E29013A0319AF2960
:1003B000D929013022005502903003195402031C40
:1003C000E229E329F52901304F02903003194E024A
:1003D000031CEB29EC29F52901304902903003195F
:1003E00048020318F429F529FD292000A001A00ADC
:1003F0000C308331B823803131292000A0010C302A
:100400008331B82380313129803190282000C70002
:100410002100A51B0C2A0D2A112AFD30A605FF304C
:10042000A7052508803A2000C40080304402031D3F
:100430001C2A01302100240203181F2A202A262A00
:1004400001302000C5000030C6002E2A21002508FA
:100450002000C600210024082000C5002100230838
:100460002000C900210022082000C8003C08CA0062
:100470003D08CB003E08CC003F08CD004008CE0030
:100480004108CF004208D0004308D1001F30D200FD
:100490000030D3002300BF01AE2AFF302000D20776
:1004A000FF30D33D0A30A000A101A201A301A401A5
:1004B000A501A601A7014A08A8004B08A9004C08FD
:1004C000AA004D08AB004E08AC004F08AD00500824
:1004D000AE005108AF008631E726823120002008A7
:1004E000303EC4005208A03E860001308700440818
:1004F0008100FF30C507FF30C63DFF30C807FF3021
:10050000C93D0A30A000A101A201A301A401A501D7
:10051000A601A7014A08A8004B08A9004C08AA0098
:100520004D08AB004E08AC004F08AD005008AE00BF
:100530005108AF0086316326823120002008CA00AE
:100540002108CB002208CC002308CD002408CE00CF
:100550002508CF002608D0002708D1002000520827
:1005600053040319B42AB52AE12A4A084B044C045F
:100570004D044E044F0450045104031DC02AC12AE7
:100580004D2A4608803AC40080304402031DCA2A1E
:10059000013045020318CD2ACE2A4D2A20004908F1
:1005A000803AC40080304402031DD82A013048023A
:1005B000031CDB2ADC2AE12A2100A618E02AE12A12
:1005C0004D2A20005208A03EC4004408B300490848
:1005D000B5004808B40047088F314E27823120000B
:1005E0003408BD003308BC0008002000E3005408B4
:1005F00086008701403FD600413FD700560884005F
:10060000570885001200253A031D072B082B942B51
:100610005408860087010130810741310318810A9F
:100620002100A201A301A601A701FF30A400FF3011
:10063000A5002000540886008701403FD600413FB6
:10064000D70056088400570885001200753A031D2C
:100650002A2B2B2B5F2B5408860087010130810742
:1006600041310318810A550886008701010884007A
:10067000850102308107003FDB00013FDC00DD0126
:10068000DE01DF01E001E101E2015B08BC005C0882
:10069000BD005D08BE005E08BF005F08C0006008C6
:1006A000C1006108C2006208C300630882310622EB
:1006B000823120003D08D5003C08D400B72B5408F7
:1006C00086008701403FD600413FD700560884008E
:1006D000570885001200253A031D6F2B702B892BBC
:1006E0005408860087010130810741310318810ACF
:1006F0002530A3000030A4006308D6005608A500EA
:100700008E31C526823101302000D4000030D50062
:10071000B72B540886008701013081074131031847
:10072000810AD401D501B72B540886008701403FC8
:10073000D600413FD70056088400570885000008BE
:10074000D800D9015808A3005908A4006308DA00AA
:100750005A08A5008E31C526823120005408860033
:1007600087010130810741310318810A832B08007A
:100770002000A300322C200C2200031C8C12031832
:100780008C16722C200C2200031C0C1203180C1661
:10079000722C200C2200031C8E1203188E16722C51
:1007A000200C2200031C0E1203180E16722C200CB3
:1007B0002200031C8E1103188E15722C200C2200AF
:1007C000031C0E1303180E17722C200C2200031C9E
:1007D0008E1303188E17722C200C2200031C8D130D
:1007E00003188D17722C200C2200031C0C10031808
:1007F0000C14722C200C2200031C8C1003188C1477
:10080000722C200C2200031C0C1103180C15722CE6
:10081000200C2200031C0E1003180E14722C200C46
:100820002200031C8E1003188E14722C200C220040
:10083000031C0E1103180E15722C200C2200031C31
:100840000D1203180D16722C200C2200031C8D12A1
:1008500003188D16722C200C2200031C0D13031894
:100860000D17722C2308A100A2012208003A0319D7
:100870003A2C722C2108003A0319BB2B013A0319B8
:10088000C22B033A0319722C013A0319C92B073AF8
:100890000319D02B013A0319D72B033A0319DE2B86
:1008A000013A0319E52B0F3A0319EC2B013A03190E
:1008B000F32B033A0319FA2B013A0319012C073AD7
:1008C0000319082C013A03190F2C033A0319162CAB
:1008D000013A03191D2C1F3A0319242C013A03195C
:1008E0002B2C722C08002000A300ED2C200C2100E2
:1008F000031C8C1203188C162D2D200C2100031CB8
:100900000C1203180C162D2D200C2100031C8E1226
:1009100003188E162D2D200C2100031C0E12031817
:100920000E162D2D200C2100031C8E1103188E1580
:100930002D2D200C2100031C0E1303180E172D2D36
:10094000200C2100031C8E1303188E172D2D200C54
:100950002100031C8D1303188D172D2D200C210051
:10096000031C0C1003180C142D2D200C2100031C4B
:100970008C1003188C142D2D200C2100031C0C113D
:1009800003180C152D2D200C2100031C0E1003182C
:100990000E142D2D200C2100031C8E1003188E1414
:1009A0002D2D200C2100031C0E1103180E152D2DCA
:1009B000200C2100031C0D1203180D162D2D200CE8
:1009C0002100031C8D1203188D162D2D200C2100E3
:1009D000031C0D1303180D172D2D2308A100A201D0
:1009E0002208003A0319F52C2D2D2108003A03198D
:1009F000762C013A03197D2C033A03192D2D013A67
:100A00000319842C073A03198B2C013A0319922CF1
:100A1000033A0319992C013A0319A02C0F3A031930
:100A2000A72C013A0319AE2C033A0319B52C013A4D
:100A30000319BC2C073A0319C32C013A0319CA2C19
:100A4000033A0319D12C013A0319D82C1F3A031980
:100A5000DF2C013A0319E62C2D2D08002100E100BE
:100A6000442D2000A001A00A21005E0884317324D7
:100A70008531722D3A302000EC009030ED008B3142
:100A800046238531FF30CB2D5E08DF00E001600892
:100A9000003A03194C2D3A2D5F08013A0319312D04
:100AA000023A0319312D063A0319312D0E3A031972
:100AB000312D3A2D2000A00121005D0884317324DE
:100AC00085312000A00121005D088331B8238531E4
:100AD000A42D00302000EC009030ED008B31462337
:100AE0008531422D21005D08DF00E0016008003AF9
:100AF00003197B2D692D5F08003A03195A2D043A1A
:100B000003195A2D023A03195A2D013A03195A2D85
:100B10000F3A03195A2D013A03195A2D033A0319B2
:100B20005A2D063A03195A2D013A03195A2D033A40
:100B300003195A2D013A03195A2D1F3A03195A2D38
:100B4000013A03195A2D692D21006108023E8600E1
:100B5000013087000030C03FC13F6108860001308E
:100B600087000030C03FC13F5E08DF006108053EDE
:100B70008600013087005F0881005D08DF006108A2
:100B8000043E8600013087005F0881006108DF00B5
:100B90005F08DA0000300800F200222E20000C0E60
:100BA000890C0139622E20000C0E0139622EFF30B3
:100BB000622E20000E0E890C0139622E20000E0ECE
:100BC0000139622E20000E0CF000F00C700C01397F
:100BD000622E20000E0E890C890C0139622E200035
:100BE0000E0D0E0D0139622E20000D0D0D0D013977
:100BF000622E20000C080139622E20000C0C0139F5
:100C0000622E20000C0C890C0139622E20000E0887
:100C10000139622E20000E0C0139622E20000E0CCC
:100C2000890C0139622E20000D0E0139622E200040
:100C30000D0E890C0139622E20000D0E890C890CD5
:100C40000139622E7208F000F1017108003A0319AF
:100C50002A2ED72D7008003A0319CE2D013A031918
:100C6000D32D033A0319D72D013A0319D92D073A89
:100C70000319DE2D013A0319E22D033A0319E92D78
:100C8000013A0319EF2D0F3A0319F42D013A031914
:100C9000F92D033A0319FD2D013A0319012E073AE4
:100CA0000319062E013A03190A2E033A03190E2ED0
:100CB000013A0319132E1F3A0319172E013A03198B
:100CC0001C2ED72D080031308600003087000830F8
:100CD0002000B00000301E00B00B6B2E2008210455
:100CE0002204230424042504260427040319792E4E
:100CF0007A2ED62EB901B90A892EA035A10DA20DE2
:100D0000A30DA40DA50DA60DA70D0130B000300850
:100D1000B907A71F8C2E8D2E7D2EB135B20DB30DC8
:100D2000B40DB50DB60DB70DB80D27082F02031D74
:100D3000B32E26082E02031DB32E25082D02031DF7
:100D4000B32E24082C02031DB32E23082B02031DEF
:100D5000B32E22082A02031DB32E21082902031DE7
:100D6000B32E20082802031CB62EB72EC82E20084A
:100D7000A8022108A93B2208AA3B2308AB3B240870
:100D8000AC3B2508AD3B2608AE3B2708AF3B3114F2
:100D9000A736A60CA50CA40CA30CA20CA10CA00CAD
:100DA0000130B902031DD52ED62E8D2E3108A0009C
:100DB0003208A1003308A2003408A3003508A400BB
:100DC0003608A5003708A6003808A700080020004C
:100DD00020082104220423042404250426042704D3
:100DE0000319F32EF42E472FB101B10A032FA035BA
:100DF000A10DA20DA30DA40DA50DA60DA70D0130EB
:100E0000B0003008B107A71F062F072FF72E2708BD
:100E10002F02031D252F26082E02031D252F25082E
:100E20002D02031D252F24082C02031D252F230826
:100E30002B02031D252F22082A02031D252F21081E
:100E40002902031D252F20082802031C282F292FE3
:100E5000392F2008A8022108A93B2208AA3B230811
:100E6000AB3B2408AC3B2508AD3B2608AE3B27082E
:100E7000AF3BA736A60CA50CA40CA30CA20CA10C8E
:100E8000A00C0130B102031D462F472F072F280861
:100E9000A0002908A1002A08A2002B08A3002C0802
:100EA000A4002D08A5002E08A6002F08A700080002
:100EB00000302000B8000030B7000030B60000302D
:100EC000B5002F082E042D042C040319682F692F58
:100ED000AA2FB901B90A772F0130AC35AD0DAE0D8F
:100EE000AF0D890B6D2F0130B4003408B907AF1F67
:100EF0007A2F7B2F6C2F0130B535B60DB70DB80D9D
:100F0000890B7C2F2F083302031D902F2E083202ED
:100F1000031D902F2D083102031D902F2C08300245
:100F2000031C932F942F9D2F2C08B0022D08B13B4A
:100F30002E08B23B2F08B33B35140130AF36AE0C50
:100F4000AD0CAC0C890B9E2F0130B902031DA92FEB
:100F5000AA2F7B2F3808AF003708AE003608AD0047
:100F60003508AC000800220038082000AA00220042
:100F700039082000AB0022003A082000AC00220013
:100F80003B082000AD008A31152287312000AE00D9
:100F9000AF01B001B1018031022087312000B200E1
:100FA000B3013208A0003308A100FA30A2000030DB
:100FB000A3008C313124873120002008B40021089F
:100FC000B5000030B51BFF30B600B7003408AE07DF
:100FD0003508AF3D3608B03D3708B13D2E08AA07A9
:100FE0002F08AB3D3008AC3D3108AD3D2D08A900C0
:100FF0002C08A8002B08A7002A08A6000800080053
:1013D20021005A0808002000941108008B31FB23D9
:1013E2008931080023001D121D1608001630210045
:1013F20097000800200013128A3124228931080044
:10140200640080010131890B022A00348A3188226A
:101412008A318A317E228A3108002000A200220805
:101422008C31C7248A31080020001508A00020084A
:10143200A10021080800F93020009E009D019110B2
:1014420004309F00080021002908F1002808F0005C
:101452008A31F0228A310800200021082100CD00C3
:10146200200020082100CC000800200021082100D3
:10147200C700200020082100C60008002000210823
:101482002100C100200020082100C0000800200027
:1014920021082100B100200020082100B00008002E
:1014A200200021082100B500200020082100B400FE
:1014B2000800200021082100B3002000200821009C
:1014C200B2000800200021082100B70020002008F7
:1014D2002100B6000800200021082100B9002000E8
:1014E20020082100B8000800200021082100CF00B8
:1014F200200020082100CE000800E8302200B807B2
:101502000330B93D0030BA3D0030BB3D0800013028
:101512002200BC070030BD3D0030BE3D0030BF3D63
:101522000800320091019201663093009401950106
:101532001F30960008002000111021003B08F10026
:101542003A08F0008A31DF228A310800320099011C
:101552009B019D0104309F009E011C1CB12AB22AEE
:10156200AE2A080028009401920191012000131272
:101572002100A801A9011316280093010800803058
:101582002C009900980197011F08FC3901389F002F
:1015920021000D1322000D130800200090120130CB
:1015A200F0007008FD0704307D02031CD92ADA2AF4
:1015B200DE2A8A3107228A31FD01080020001B1D24
:1015C200E32AE42AEB2A1B1071089A00700899009A
:1015D2001B14EF2A71089A0070089900080028006D
:1015E200131DF42AF52AFC2A1310710892007008C0
:1015F20091001314002B71089200700891000800EA
:1016020022003F082000A30022003E082000A20082
:1016120022003D082000A10022003C082000A0007A
:10162200080081302600970011309600C1309500E5
:1016320025001F083F3980389F00200094112100A7
:101642009415080020009C019A01990111101A08B2
:101652002100BB00200019082100BA00111421301A
:1016620020009B000800210090019101920193014A
:1016720094012000900191019201930194018C3117
:101682009C248B310B178B1708006E302100DB0076
:101692005B08DC0020006D08E5006C08E400DC302B
:1016A2002100DB005B082000E60000308C31F424CE
:1016B2008B3108002000141025001108F70077086C
:1016C200F8001208F7007708F9007908F4007808A2
:1016D200F30021004D088A004C080A008B310800F3
:1016E2002000941025001508F7007708F800160866
:1016F200F7007708F9007908F4007808F300210070
:1017020047088A0046080A008B310800200014119D
:1017120026001108F7007708F8001208F70077088A
:10172200F9007908F4007808F300210041088A00E2
:1017320040080A008B310800423020009800F9303E
:101742009600950190122100901600302000A00012
:101752000030A1008A3175228B3180302000970041
:10176200FD0108008330250093009401920191014C
:1017720059302000A0000D30A1008A312D228B317A
:1017820025001F08FC3901389F0020001410210099
:1017920014140800833025009700980196019501E2
:1017A20094302000A0000D30A1008A3136228B3106
:1017B20025001F08F33904389F00200094102100EF
:1017C2009414080083302600930094019201910141
:1017D200CF302000A0000D30A1008A313F228B3192
:1017E20025001F08CF3910389F0020001411210056
:1017F2001415080023001908F0007B08283E860013
:1018020001308700700881000130F0007008FB078A
:1018120008307B02031C0E2C0F2C102CFB01013014
:10182200F00070082100D10708002000A40024085D
:10183200A2002208A300212C0130A2002208A40742
:1018420024088600013087000108031D292C2A2C58
:101852001D2C23082402A000A101A01BA103080043
:101862002000A401A501201C372C382C3C2C220876
:10187200A4072308A53D0130A235A30D890B3D2CF9
:101882000130A136A00C890B422C20082104031D33
:101892004B2C4C2C342C2508A1002408A000080055
:1018A2000830210052020318572C582C712C53086F
:1018B200303E860001308700010823009A00013083
:1018C200F00070082100D30708305302031C6A2C71
:1018D2006B2C6C2CD3010130F0007008D207722CF3
:1018E200111208002000B200B001B1018B2C2F08A8
:1018F200AC00AD012C08A3002D08A4002B08AE00FB
:101902002E08A5008E31C5268C3101302000B0078B
:101912000030B13D30083207AC002C08860001309F
:1019220087000108AD002D08AF002F08031D9A2C77
:101932009B2C782C08008A3192228C318E310A2617
:101942008C318A31A7228C318931F7218C318B314C
:10195200E3238C318B31B3238C318A311C228C31BD
:101962008B319D238C318B31CB238C318B311223E4
:101972008C318A31B3228C318A31C0228C318B3145
:1019820023238C318F3108278C3108002000A100DD
:10199200210052080319CE2CCF2CC92C111AD22C9B
:1019A200D32CD82C2000210823009A00F12C1112EC
:1019B20020002108A0007C08303E8600013087000C
:1019C200200881000130A0002008FC0708307C02BA
:1019D200031CEC2CED2CEE2CFC0101302100D20278
:1019E2002100111608002000E9006508EB006408D8
:1019F200EA002100A001A101122D6A30E700670868
:101A0200D4006608E8006808D50069088231F5222A
:101A12008C31200054082100A00720005508210025
:101A2200A13D20006A0884006B0885001200031D96
:101A32001B2D1C2DFE2C210021082000E500210079
:101A420020082000E400080000302000AB00003035
:101A5200AA000030A9000030A800201C312D322D30
:101A62003A2D2408A8072508A93D2608AA3D2708DB
:101A7200AB3D0130A435A50DA60DA70D890B3B2D5D
:101A82000130A336A20CA10CA00C890B422D230815
:101A9200220421042004031D4F2D502D2E2D2B082E
:101AA200A3002A08A2002908A1002808A000080013
:101AB2008931E9218D31F50075082100D8007B2D8F
:101AC20074082100CB007308CA00932D740821000A
:101AD200C9007308C8004A084802F5004B08493B90
:101AE200F60058088600013087007508C03F760866
:101AF200C13F932D5808053E86000130870001083A
:101B02008531CC258D31F500F6017608003A0319AE
:101B12008B2D932D7508003A0319672D013A03198D
:101B2200612D932D08008931E9218D31F500750869
:101B32002100D600B62D74082100C5007308C40028
:101B4200CE2D74082100C3007308C200440842026B
:101B5200F5004508433BF600560886000130870031
:101B62007508C03F7608C13FCE2D5608053E860057
:101B72000130870001088531CC258D31F500F60151
:101B82007608003A0319C62DCE2D7508003A0319BE
:101B9200A22D013A03199C2DCE2D08008931E9218D
:101BA2008D31F50075082100D400F12D7408210053
:101BB200BF007308BE00092E74082100BD0073081F
:101BC200BC003E083C02F5003F083D3BF6005408CD
:101BD2008600013087007508C03F7608C13F092E94
:101BE2005408053E86000130870001088531CC2566
:101BF2008D31F500F6017608003A0319012E092EFF
:101C02007508003A0319DD2D013A0319D72D092E63
:101C1200080022008C018D018E01373021008C00DA
:101C2200F0308D00EF308E00D73023008E00D030A0
:101C32008D0033308C0024008D018C018E01250033
:101C42008C018D018E01373026008C00F0308D0022
:101C5200FF308E003F3027008C00F0308D00FF30C7
:101C62008E000D303C00A40014303D00A40015305D
:101C72003C00940013309500023096000F303D0076
:101C8200A10002309E0008007B08203E8600013041
:101C92008700810123001D1D4F2E502E5C2E7B08D4
:101CA200203E8600013087008114210035088A0019
:101CB20034080A008E3123009D1C602E612E6D2E89
:101CC2007B08203E86000130870001152100330881
:101CD2008A0032080A008E317B08203E86000130DD
:101CE200870001080319762E772E7E2E21003108F7
:101CF2008A0030080A008E31812E8B31FB238E310F
:101D020008002000BE000030AF000030AE000730F7
:101D1200AD00D030AC003E08860001308700403F65
:101D2200BC00413FBD003C08A0003D08A100A2014B
:101D3200A3010030A7000030A6000130A5005730F3
:101D4200A4008D3125258E3120002308B3002208FE
:101D5200B2002108B1002008B000873158278E3127
:101D620020003E08023E8600013087002C08C03F5A
:101D72002D08C13F3E08023E860001308700403FE9
:101D8200BA00413FBB000800200025080319CA2EF3
:101D9200CB2ED02E2508031DCF2ED02ED52E2308D4
:101DA2008A310E228E31072F2508083E86008701D0
:101DB200160001040319DE2EDF2EFD2E2508083E33
:101DC20086008701403FA600413FA7002508023E4A
:101DD20086008701403FA800413FA9002908803AB8
:101DE200AA002708803A2A02031DF92E2608280293
:101DF2000318FC2EFD2E072F20002508023E860028
:101E020087010130810741310318810A080021004E
:101E1200911245302000A0000E30A1008A316322C9
:101E22008F312100111251302000A0000C30A1008E
:101E32008A316C228F31083023009F0090309D0040
:101E420024309E00A0309B0001309C00FF30200017
:101E5200A0000730A1008A3151228F31F3302000D7
:101E6200A0000930A1008A315A228F31EF302000C0
:101E7200A0000930A1008A3148228F312100D0010F
:101E8200FC01D30108302000A20022082100D20068
:101E9200FB01FA01D101911608002000BB002100CC
:101EA200261C542F552F5E2F20003B08B600360803
:101EB200AB0033088C3173248F312000B51B622FA5
:101EC200632F682F3508BA003408B9006A2FB901A8
:101ED200BA01B701B8017E2F20302000A3000030E4
:101EE200A4003B08B6003608A5008E31C5268F3106
:101EF20001302000B7070030B83D3808803AB600FC
:101F02003A08803A3602031D882F39083702031C2B
:101F12008B2F8C2F6D2F21002618902F912F9A2F07
:101F220020003B08B6003608AB0033088C3173241E
:101F32008F31200033088C3116248F31200039086C
:101F42002007B3003A08213DB40008002000BC007D
:101F52008731B3278F31200029082200C3002000D7
:101F620028082200C200200027082200C100200009
:101F720026082200C0002000A001A00A3C08043E5E
:101F820086000130870001088331B8238F31873101
:101F9200B3278F312200400820002602B800220019
:101FA20041082000273BB900220042082000283BBC
:101FB200BA00220043082000293BBB003B08031D56
:101FC200EE2F3A08031DEE2F3908031DEE2F0B30BA
:101FD2003802031CED2FEE2FC82F2000A0013C0871
:101FE200043E86000130870001088331B8238F3117
:101FF20020003C08B80038082100DA000800453407
:10200200523452344F3452343A34203449346E34D8
:10201200763461346C346934643420347434723408
:1020220069346734503469346E34203428346D3462
:1020320075347334743420344E344F345434203471
:102042006234653420345B34413432342C342034ED
:10205200413433342C342034413434342C3420345D
:10206200433433342C342034433435345D3429340E
:1020720000344534523452344F3452343A342034DA
:1020820049346E34763461346C34693464342034C7
:102092006534633468346F34503469346E342034B8
:1020A20028346D34753473347434203462346534B6
:1020B20020345B34413432342C34203441343434CF
:1020C2002C342034433433342C34203443343534E8
:1020D2005D3429340034533431342034253475349A
:1020E20000345334323420342534753400345334BC
:0A20F20033342034253475340034F3
:020000040001F9
:08000000FF3FFF3FFF3FFF3F00
:08000E008C3FF33FFF3FFF3F71
:00000001FF
