:0400000080316C28B7
:100008007E1480310B1F09280A286A282100111C38
:100018000E280F2818282000111C13281428182827
:100028008931B52180316A282100911E1C281D289C
:100038002F282000911E212822282F2821004B0834
:100048008A004A080A0080318A3197228031863135
:10005800FC2680316A282100111E332834284028C4
:100068002000111E38283928402821004D088A0010
:100078004C080A0080316A282100941D442845282C
:100088004E282000941D49284A284E2897312127B8
:1000980080316A282100141D522853285C2820002A
:1000A800141D572858285C289731682780316A28FA
:1000B8002100111F602861286A282000111F652867
:1000C80066286A288831962080316A287E100900BF
:1000D80080316E284230840097308500E9308600F0
:1000E800003087000030FF0004309731E727803167
:1000F800E030840088308500543086000130870065
:100108000030FF0015309731E72780316F308400C9
:10011800233085008130FE000030FF009731DB2757
:100128008031F701F801F901FA01FB01FC016230A5
:100138008400003085000E30FE000030FF0097314B
:10014800DB278031A0308400003085003230FE008B
:100158000030FF009731DB278031203084000130E8
:1001680085003430FE000030FF009731DB278031F6
:100178007E1020008031C0288A310B2280318931DD
:100188000B2180318831522080318931ED21803135
:1001980003302000DE005E082100DE00DD018C3126
:1001A800E824803100302000D6009030D700883114
:1001B800BA20803126302000D6009030D700003099
:1001C800D8009830D9000C30DA009830DB0088313C
:1001D800BA208031973124278031883163208031DB
:1001E800200023082100E800200022082100E70061
:1001F800200021082100E600200020082100E50059
:100208006808DA006708D9006608D8006508D700CA
:100218006808D6006708D5006608D4006508D300CA
:100228006400883163208031200023082100E80021
:10023800200022082100E700200021082100E60014
:10024800200020082100E500570865022000DE0094
:1002580021005808663B2000DF0021005908673B51
:100268002000E00021005A08683B2000E1006108F6
:10027800031D4A296008031D4A295F08031D4A29EE
:100288000A305E02031C49294A295C299731242730
:10029800803121006808DA006708D9006608D800AC
:1002A8006508D70001302000DE005E082100DD0768
:1002B8004B3021005D02031C6229632914298D310A
:1002C800C4258031200021082100E30020002008F7
:1002D8002100E20063082000A1002100620820003C
:1002E800A0008B31192380312000DE005E08210038
:1002F800E4006408031D8129822988298C31A024FF
:1003080080318831A8208031210064088531142586
:10031800803197317E278031893137218031893189
:10032800D12180318A31722280312100DD0188316A
:1003380063208031200023082100E80020002208E3
:100348002100E700200021082100E6002000200805
:100358002100E5006808DA006708D9006608D800B7
:100368006508D700640088316320803120002308A5
:100378002100E800200022082100E70020002108D1
:100388002100E600200020082100E500570865024A
:100398002000DE0021005808663B2000DF00210015
:1003A8005908673B2000E00021005A08683B2000FC
:1003B800E1006108031DEC296008031DEC295F08B2
:1003C800031DEC290A305E02031CEB29EC29B6292F
:1003D800973186278031200021082100E000200085
:1003E80020082100DF008A3172228031003021008C
:1003F80060021E3003195F020318032A042A072A21
:10040800DB01DC01322A05306002DC3003195F02AF
:1004180003180F2A102A042A03302000A0000030F5
:10042800A100FA30DE000530DF0021005F0820005F
:100438005E02E0002100600820005F3BE1006035BB
:10044800A200610DA3008C312024803120002108F6
:100458002100DC00200020082100DB005C082000CF
:10046800BB0021005B082000BA008D3130258031A7
:1004780021005B085C04031D422A432A472A97315E
:10048800CF2780314A2A97315C27803114302100E8
:100498005D06031D502A512A442B8D31C425803115
:1004A800200021082100E300200020082100E200AC
:1004B80064082000DE005E082100E10063082000D7
:1004C800A100210062082000A0008B31192380318F
:1004D8002000DE005E082100E400973156278031B5
:1004E800200021082100E300200020082100E2006C
:1004F80097312427803121005E082000DE005E0845
:100508002100D20020000E0C890C0139DE000D0EEE
:10051800013909075E04DF005F082100DE0097311A
:1005280030278031003A03199A2A9B2AA22A8C3153
:10053800A02480318831A8208031B32A02302100DC
:100548006302EE30031962020318AB2AAC2AAD2A03
:100558009B2A6408031DB12AB22AB32A9B2A2100C8
:100568005E0852060319B92ABA2ADD2AC92A973120
:100578004B278031DD2A013083314D238031DD2A3C
:10058800003083314D238031DD2A5E082000DE00F3
:10059800DF015F08003A0319D22ADD2A5E08013A12
:1005A8000319BF2A033A0319BB2A013A0319C42ABB
:1005B800DD2A2100530865022000DE0021005408CE
:1005C800663B2000DF0021005508673B2000E00063
:1005D80021005608683B2000E1006108031DFE2A3F
:1005E800E1305E0293305F3B0430603B031CFD2A20
:1005F800FE2A412B21006403031D032B042B112B1E
:100608008E311826803121006808D6006708D50089
:100618006608D4006508D300412B640861060319F5
:10062800162B172B412B2D2B0330210061060319A4
:100638001E2B1F2B202B412B043021006106031990
:10064800262B272B282B412B640885311425803134
:10065800072B64082000DE00DF015F08003A031959
:10066800362B412B5E08013A0319042B033A031970
:10067800182B013A0319202B412B2100DD01AE294B
:1006880001302000DE005E082100DD07AE29803140
:100698006C282000BE00640020003E03031D552B7B
:1006A800562B332C0630BA000130BB008B31AD23FA
:1006B800833197316227833103302000BD00083031
:1006C800BC007730890B662BBC0B662BBD0B662BE9
:1006D8004A302000BA000130BB008B31AD23833192
:1006E80003302000BD000830BC007730890B7A2B1E
:1006F800BC0B7A2BBD0B7A2B88302000BA00013056
:10070800BB008B31AD23833103302000BD0008309E
:10071800BC007730890B8E2BBC0B8E2BBD0B8E2B20
:10072800EE302000BA000130BB008B31AD2383319D
:1007380003302000BD000830BC007730890BA22BA5
:10074800BC0BA22BBD0BA22B0B302000BA00023031
:10075800BB008B31AD23833103302000BD0008304E
:10076800BC007730890BB62BBC0BB62BBD0BB62B58
:1007780088310020833105302000BD000F30BC00D7
:10078800F130890BC52BBC0BC52BBD0BC52B063017
:100798002000BA000130BB008B31AD238331973183
:1007A8006227833103302000BD000830BC00773059
:1007B800890BDC2BBC0BDC2BBD0BDC2B4A3020005F
:1007C800BA000130BB008B31AD23833103302000E8
:1007D800BD000830BC007730890BF02BBC0BF02B28
:1007E800BD0BF02B88302000BA000130BB008B31E4
:1007F800AD23833103302000BD000830BC007730C2
:10080800890B042CBC0B042CBD0B042CEE302000EF
:10081800BA000130BB008B31AD2383310330200097
:10082800BD000830BC007730890B182CBC0B182C85
:10083800BD0B182C0B302000BA000230BB008B31E6
:10084800AD23833103302000BD000830BC00773071
:10085800890B2C2CBC0B2C2CBD0B2C2C0F2D0B30EE
:10086800BA000230BB008B31AD2383319731622748
:10087800833103302000BD000830BC007730890B7D
:10088800432CBC0B432CBD0B432CEE302000BA008C
:100898000130BB008B31AD23833103302000BD0014
:1008A8000830BC007730890B572CBC0B572CBD0B7C
:1008B800572C88302000BA000130BB008B31AD23A3
:1008C800833103302000BD000830BC007730890B2D
:1008D8006B2CBC0B6B2CBD0B6B2C4A302000BA0068
:1008E8000130BB008B31AD23833103302000BD00C4
:1008F8000830BC007730890B7F2CBC0B7F2CBD0BDC
:100908007F2C06302000BA000130BB008B31AD23AC
:10091800833103302000BD000830BC007730890BDC
:10092800932CBC0B932CBD0B932C88310020833166
:1009380005302000BD000F30BC00F130890BA22C1F
:10094800BC0BA22CBD0BA22C0B302000BA0002302D
:10095800BB008B31AD23833197316227833103305C
:100968002000BD000830BC007730890BB92CBC0BC7
:10097800B92CBD0BB92CEE302000BA000130BB00F9
:100988008B31AD23833103302000BD000830BC001B
:100998007730890BCD2CBC0BCD2CBD0BCD2C8830E2
:1009A8002000BA000130BB008B31AD238331033006
:1009B8002000BD000830BC007730890BE12CBC0B4F
:1009C800E12CBD0BE12C4A302000BA000130BB00FD
:1009D8008B31AD23833103302000BD000830BC00CB
:1009E8007730890BF52CBC0BF52CBD0BF52C06309C
:1009F8002000BA000130BB008B31AD2383310330B6
:100A08002000BD000830BC007730890B092DBC0BD5
:100A1800092DBD0B092D64008831002083310800A1
:100A28002000BE00640006302000BA000130BB0080
:100A38008B31AD238531973162278531093020000C
:100A4800BD001E30BC00E430890B282DBC0B282DBE
:100A5800BD0B282D0000F82D8830BA000130BB00EE
:100A68008B31AD23853109302000BD001E30BC001C
:100A7800E430890B3D2DBC0B3D2DBD0B3D2D0000F9
:100A8800122E8830BA000130BB008B31AD2385317E
:100A980009302000BD001E30BC00E430890B522D07
:100AA800BC0B522DBD0B522D0000B8302000BA00EF
:100AB8000130BB008B31AD23853109302000BD00EA
:100AC8001E30BC00E430890B672DBC0B672DBD0BB5
:100AD800672D0000122E8830BA000130BB008B3120
:100AE800AD23853109302000BD001E30BC00E43044
:100AF800890B7C2DBC0B7C2DBD0B7C2D0000B830E8
:100B08002000BA000130BB008B31AD23853109309C
:100B18002000BD001E30BC00E430890B912DBC0BB9
:100B2800912DBD0B912D0000EE302000BA00013050
:100B3800BB008B31AD238531372D8830BA000130A9
:100B4800BB008B31AD23853109302000BD001E303C
:100B5800BC00E430890BAE2DBC0BAE2DBD0BAE2D09
:100B68000000B8302000BA000130BB008B31AD2343
:100B7800853109302000BD001E30BC00E430890BEF
:100B8800C32DBC0BC32DBD0BC32D0000EE302000C0
:100B9800BA000130BB008B31AD238531093020000C
:100BA800BD001E30BC00E430890BD82DBC0BD82DFD
:100BB800BD0BD82D00000B302000BA000230BB005E
:100BC8008B31AD23853109302000BD001E30BC00BB
:100BD800E430890BED2DBC0BED2DBD0BED2D000088
:100BE800883100208531122E20003E08BC00BD014E
:100BF8003D08003A0319012E122E3C08003A031949
:100C0800122E013A0319302D033A0319452D013AE2
:100C180003196F2D073A0319A12D122E640088318C
:100C28000020853108002000CD0042088600870199
:100C3800403FC400413FC500440884004508850082
:100C48001200253A031D292E2A2ED82E4208860086
:100C580087010130810741310318810A2100BE0153
:100C6800BF01C201C301FF30C000FF30C100200036
:100C7800420886008701403FC400413FC500440840
:100C88008400450885001200733A03194C2E4D2E36
:100C9800662E420886008701403FA000413FA10020
:100CA8001530A2009830A3000330A4000030A5003E
:100CB8008E31CC268631200020082104031D652EA4
:100CC800662EA32E420886008701403FC400413F9C
:100CD800C50044088400450885001200733A0319CA
:100CE800762E772E7C2E0330CB000030CC00802E61
:100CF8000130CB000030CC004208860087014B0849
:100D0800810741314C08813D7F31430886008701C6
:100D180001088400850102308107003FC900013FB6
:100D2800CA004A08AC004908AB004D088F31292792
:100D3800863120002C08C3002B08C200FB2E420875
:100D480086008701403FC400413FC5004408840035
:100D5800450885001200253A031DB32EB42ECD2E6A
:100D68004208860087010130810741310318810A52
:100D78002530A3000030A4004D08C4004408A50095
:100D88008C315D24863101302000C2000030C30060
:100D9800FB2E420886008701013081074131031884
:100DA800810AC201C301FB2E420886008701403F29
:100DB800C400413FC5004408840045088500000878
:100DC800C600C7014608A3004708A4004D08C8008C
:100DD8004808A5008C315D24863120004208860031
:100DE80087010130810741310318810AC72E0800A5
:100DF800F600B22F59307606031D032F042FD72F84
:100E08007608F2007B08A03E860087017208810000
:100E18000130F2007208FC000130F2007208FB0792
:100E2800D72F59307606031D1A2F1B2F282F760827
:100E3800F2007B08A03E860087017208810002301C
:100E4800F2007208FC00102FFC01FB01D72F760876
:100E5800F2007B08A03E86008701720881000330FB
:100E6800F2007208FC00102F7608F2007B08A03E02
:100E780086008701720881000430F2007208FC00C5
:100E8800102F7608F2007B08A03E860087017208C2
:100E980081000530F2007208FC00102F7608F2007D
:100EA8007B08A03E86008701720881000630F200A8
:100EB8007208FC00102F7608F2007B08A03E86001E
:100EC8008701720881000730F2007208FC00102FB9
:100ED8007608F2007B08A03E860087017208810030
:100EE8000830F2007208FC00102F7608F2007B0828
:100EF800A03E8600870172088100FC01FB01883151
:100F0800F520863121002F087606031D8C2F8D2FA2
:100F1800D72F2308AA002208A9002508AC00240816
:100F2800AB002708AE002608AD000D30A03E8600B5
:100F38008701403FF200413FF300F336F20CF336ED
:100F4800F20CF336F20C7208003EF400FF30733DE9
:100F5800F5007408AD007508AE00D72F7C08F200C4
:100F6800F3017308003A0319BA2FD72F7208003A11
:100F78000319FE2E013A0319152F033A03192B2FD3
:100F8800013A0319382F073A0319452F013A031973
:100F9800522F033A03195F2F013A03196C2F0F3AA6
:100FA8000319792FD72F0800EF30860023308700E8
:100FB8000108F200F301F235F30D6F30F40023302D
:100FC800F5007208740786007308753D870070087D
:100FD800C03F7108C13FEF30860023308700010809
:100FE800013E3F39F200EF30860023308700720857
:060FF80081000800080062
:1010000022008D1397312D2788319731BC278831E5
:101010000800320099019B0140309D0006309F007E
:101020009E011C1C142815281128080020002108E6
:10103000A3002008A2002208260095002000230813
:1010400026009600080001303200910071309200B5
:1010500046309300E3309400063095001F30960030
:1010600008002000A1002108A000A00DA00D210073
:101070001D08200020060339200621009D001D14B4
:10108000080020001B1D452846284D281B1071080C
:101090009A00700899001B14512871089A00700872
:1010A000990008008230220097009731C5278831C7
:1010B00005308831312088312000E201E3018A3196
:1010C0004E228831080021003B082000A3002100A7
:1010D0003A082000A200210039082000A1002100C8
:1010E00038082000A000080020009C01FC309A0075
:1010F0001830990011101A08F8001908F70021009B
:101100001114353020009B00080028009401920142
:10111000910120001312280012082000E500280089
:1011200011082000E400280093010800973150279F
:10113000883171082000E3007008E2006308F100C4
:101140006208F0008731D827883120001113080089
:1011500001302000A2002208EA0021000C11220028
:101160000C119731CF2788318831002088316400F5
:10117000B728080058302000DC005C08DD00570864
:10118000CF005608CE005D30DC005C08D000003097
:101190008B314823883108008430260093000230C8
:1011A0003C009600260094019201910125001F0841
:1011B000CF3910389F0020001411210014150800A9
:1011C00028346E3475346C346C34293400345A3419
:1011D0000534053406346A345A3405340534013490
:1011E00065345A34043411346F342100AF01F101F5
:1011F0007108A03E860087010108F0007008AF0763
:101200000130F0007008F10708307102031C092951
:101210000A29F828080000302100BB000030BA007D
:101220000030B9000030B80000302200D300003098
:10123000D2000030D1000030D000883174208931D4
:10124000080021000C1222000C120F303D00940007
:101250008130260097009601950125001F083F392F
:1012600080389F002000941121009415080021006F
:101270008E1022008E109731762789319731F3270F
:101280008931F4302100D0000130D1000030CE008F
:101290000230CF009731CF27893108002000210884
:1012A000A3002008A200A336A20CA336A20C220899
:1012B0002C009800200020080339A2000530A23538
:1012C000FF3E031D5F2922352C00970008002800EF
:1012D000131D6B296C297729131020002108280081
:1012E0009200200020082800910013147F2920007C
:1012F0002108280092002000200828009100080002
:1013000020002108A4002008A3008A290130A0079A
:101310000030A13D20088400210885001200031D33
:1013200092299329862923082002A0002408213B22
:10133000A100080023001908F00020006C08403EBE
:10134000860001308700700881000130F0007008CD
:10135000EC0708306C02031CAE29AF29B029EC0160
:101360000130F0007008F90708007808F1007708EC
:10137000F00088314120893101302100B807003068
:10138000B93D0030BA3D0030BB3DE8302200D00707
:101390000330D13D0030D23D0030D33D200011104C
:1013A0000800FC012000A1012108A03E8600870161
:1013B00081010130A0002008A10709302102031C8F
:1013C000E229E329D4292100A901AA01AB01AC013A
:1013D000AD01AE01AF01FB010800883185208931E4
:1013E00089312121893121000C1222000C122100A7
:1013F0008D1322008D13B8302000E8000130E90081
:101400006908BB006808BA008B31AD238931883187
:101410000020893108008B130B13210090019101EA
:101420009201930194012000900191019201930196
:101430009401883123208A318A31EC228A31883123
:1014400009208A3197313E278A318D317A258A31B8
:101450000B178B170800083020006D020318312A83
:10146000322A4B2A6E08483E860001308700010868
:1014700023009A000130F00070082000EE070830C9
:101480006E02031C442A452A462AEE010130F00070
:101490007008ED074D2A2100111208002000A40158
:1014A0002408A000A101A035A10D6F30A2002330B7
:1014B000A3002008220786002108233D8700003072
:1014C000C03FC13F0130A0002008A40740302402E3
:1014D000031C6B2A6C2A502AEF30860023308700C9
:1014E0008101080021006C082000A60021006B0883
:1014F0002000A50021006A082000A400210069083E
:101500002000A300A7012708233E860087010108C9
:101510008A31C0228A3101302000A2002208A707A8
:1015200004302702031C952A962A832A080079088A
:1015300003199B2A9C2A972A7A08B03E86008701C5
:101540000108F00070082000EB007A08403E860099
:10155000013087000108F0007008F1000130F00050
:101560007008FA0708307A02031CB72AB82AB92A89
:10157000FA01210091120130F90291167108080058
:101580002000A1006D080319C62AC72AC22A21001B
:10159000111ACB2ACC2AD12A2000210823009A0034
:1015A000E92A111220002108A0006F08483E860099
:1015B00001308700200881000130A0002008EF07DB
:1015C00008306F02031CE52AE62AE72AEF01013002
:1015D000ED0221001116080022008C018D018E0100
:1015E000273021008C0070308D00AD308E0023003C
:1015F0008E018D0120308C0024008D018C018E0124
:1016000021000D160E1524000D160E1525008C0157
:101610008D018E01373026008C00F0308D00FF30B8
:101620008E003F3027008C00F0308D00FF308E00A0
:101630000800033020002102B73003192002031CE8
:10164000222B232B252B0430472B033021028530FE
:1016500003192002031C2D2B2E2B302B0330472B7C
:1016600003302102533003192002031C382B392B7D
:101670003B2B0230472B033021022130031920027B
:10168000031C432B442B462B0130472B0030080012
:101690002000D3004F08D5004E08D4002100BC0123
:1016A000BD01662B5430D1005108C2005008D20051
:1016B0005208C3005308863117268B312000420898
:1016C0002100BC07200043082100BD3D2000540834
:1016D0008400550885001200031D6F2B702B522BC0
:1016E00021003D082000CF0021003C082000CE0052
:1016F000080000302000AB000030AA000030A90034
:101700000030A800201C852B862B8E2B2408A807D0
:101710002508A93D2608AA3D2708AB3D0130A43580
:10172000A50DA60DA70D890B8F2B0130A336A20C9A
:10173000A10CA00C890B962B230822042104200461
:10174000031DA32BA42B822B2B08A3002A08A20085
:101750002908A1002808A0000800003020003B0252
:101760007D3003193A02031CB62BB72BE22B133042
:101770003B02893003193A02031CBF2BC02BC12B3B
:10178000E22B3B08E9003A08E8003A08AC003B08C5
:10179000AD00AE01AF010030B3003D30B200093002
:1017A000B1000030B0008E3171268B3120002D0841
:1017B000E7002C08E6006708A1006608A000883151
:1017C00016208B31080020006C08B03E860087018F
:1017D000810123001D1DED2BEE2BFA2B20006C0840
:1017E000B03E860087018114210049088A0048081C
:1017F0000A008B3123009D1CFE2BFF2B0B2C20009D
:101800006C08B03E860087010115210047088A0058
:1018100046080A008C3120006C08B03E8600870123
:1018200001080319142C152C1C2C210045088A00D2
:1018300044080A008C311F2C89319A218B31080011
:101840002000A501A601200821040319282C292C19
:10185000582CA701A70A352C0130A035A10D890B02
:101860002D2C0130A4002408A707A11F382C392CE7
:101870002C2C0130A535A60D890B3A2C210823020A
:10188000031D442C20082202031C472C482C4D2CFD
:101890002008A2022108A33B25140130A136A00C88
:1018A000890B4E2C0130A702031D572C582C392CC4
:1018B0002608A1002508A00008002000250803191B
:1018C000622C632C682C2508031D672C682C6D2C5A
:1018D000230897316F278C319F2C2508083E8600FE
:1018E0008701160001040319762C772C952C250806
:1018F000083E86008701403FA600413FA70025081B
:10190000023E86008701403FA800413FA900290808
:10191000803AAA002708803A2A02031D912C260843
:1019200028020318942C952C9F2C20002508023E99
:10193000860087010130810741310318810A0800C0
:10194000640088302000BA000130BB008B31AD2329
:101950008C31973162278C3109302000BD001E3058
:10196000BC00E430890BB22CBC0BB22CBD0BB22CEA
:1019700000004A302000BA000130BB008B31AD239B
:101980008C3109302000BD001E30BC00E430890BD2
:10199000C72CBC0BC72CBD0BC72C00000630200089
:1019A000BA000130BB008B31AD238C3109302000EF
:1019B000BD001E30BC00E430890BDC2CBC0BDC2CE1
:1019C000BD0BDC2C00006400883100208C31080045
:1019D000640006302000BA000130BB008B31AD231B
:1019E0008C31973162278C3109302000BD001E30C8
:1019F000BC00E430890BFA2CBC0BFA2CBD0BFA2C82
:101A000000004A302000BA000130BB008B31AD230A
:101A10008C3109302000BD001E30BC00E430890B41
:101A20000F2DBC0B0F2DBD0B0F2D0000883020009B
:101A3000BA000130BB008B31AD238C31093020005E
:101A4000BD001E30BC00E430890B242DBC0B242DBE
:101A5000BD0B242D00006400883100208C3108006B
:101A6000033020003B02E93003193A020318392DF4
:101A70003A2D792D3B082100D10020003A082100A1
:101A8000D00000302000AF000030AE000330AD00C9
:101A9000E830AC003A08A0003B08A100A201A30175
:101AA0000030A7000030A6000330A500FF30A400DE
:101AB0008B3179238D3120002308B3002208B20036
:101AC0002108B1002008B0008E3171268D31200030
:101AD0002D082100CF0020002C082100CE004F0847
:101AE0002000A10021004E082000A00089314E21D5
:101AF0008D31080021009112E3302000A0000B304E
:101B0000A1009731AA278D31210011122B3020001E
:101B1000A0000A30A1009731B3278D310D303C0071
:101B2000A40014303D00A400083023009F00903032
:101B30009D0024309E0044309B009C01FE3020001C
:101B4000A0000730A100973198278D313A3020004E
:101B5000A0001730A1009731A1278D313630200029
:101B6000A0001730A10097318F278D312000EB01A5
:101B7000EF01EE010830A2002208ED00EC01FA01AD
:101B8000F90121009116080000302000AD0000305E
:101B9000AC000030AB000030AA00EF3086002330EC
:101BA00087000108A2002208AF00AE012F08A200A2
:101BB000A301A235A30D6F30A4002330A500220895
:101BC000240786002308253D8700403FA600413FAB
:101BD000A7002608AA072708AB3D0030AC3DAD3D65
:101BE0002F08013E3F39A2002208AF000130A200B9
:101BF0002208AE0740302E02031CFF2D002ED62DEA
:101C00002A08A2002B08A3002C08A4002D08A50078
:101C10000630A536A40CA30CA20C890B092E2308B0
:101C2000A9002208A8002908A1002808A00008008F
:101C3000640088302000BA000130BB008B31AD2336
:101C40008E31973162278E3105302000BD000F3074
:101C5000BC00F130890B2A2EBC0B2A2EBD0B2A2E7C
:101C60000B302000BA000230BB008B31AD238E3127
:101C700005302000BD000F30BC00F130890B3E2E36
:101C8000BC0B3E2EBD0B3E2E88302000BA0001302A
:101C9000BB008B31AD238E3105302000BD000F30ED
:101CA000BC00F130890B522EBC0B522EBD0B522EB4
:101CB0000B302000BA000230BB008B31AD238E31D7
:101CC00005302000BD000F30BC00F130890B662EBE
:101CD000BC0B662EBD0B662E6400883100208E3151
:101CE000080000302000B8000030B7000030B60017
:101CF0000030B5002F082E042D042C040319812E6A
:101D0000822EC32EB901B90A902E0130AC35AD0D2B
:101D1000AE0DAF0D890B862E0130B4003408B90723
:101D2000AF1F932E942E852E0130B535B60DB70D0D
:101D3000B80D890B952E2F083302031DA92E2E08EE
:101D40003202031DA92E2D083102031DA92E2C08D5
:101D50003002031CAC2EAD2EB62E2C08B0022D087E
:101D6000B13B2E08B23B2F08B33B35140130AF36E0
:101D7000AE0CAD0CAC0C890BB72E0130B902031DB3
:101D8000C22EC32E942E3808AF003708AE00360896
:101D9000AD003508AC00080020002108A80020088C
:101DA000A7002308AA002208A9000130A4020030DD
:101DB000A53B240A031DE02E250A031DE02EE12E7B
:101DC000F02EA001A101282F0130A7070030A83D67
:101DD0000130A9070030AA3D0130A4020030A53B24
:101DE000270884002808850012000319F82EF92E10
:101DF000182F290884002A08850012000319012FD2
:101E0000022F182F240825040319072F082F182F35
:101E1000290884002A0885000008A60027088400F5
:101E200028088500000826060319172F182FE42E0E
:101E300027088400280885000008A60029088400D7
:101E40002A08850000082602A000A101031CA103A6
:101E500008002000BB00543086000130870030307D
:101E60008400003085000730AD0016001A00AD0B6D
:101E7000352F2C08BD002B08BC003C083D04031D79
:101E8000422F432F472F3030BC000030BD003D08AB
:101E9000A1003C08A000893180218F312000210859
:101EA000C1002008C000210041082000BF0021001F
:101EB00040082000BE00BF1B5E2F5F2F732F3F081E
:101EC000803AAD004108803A2D02031D692F400879
:101ED0003E02031C6C2F6D2F6E2F732F20003F08C6
:101EE000C1003E08C00020004108BF004008BE00FD
:101EF00021003F082000BA0021003E082000B90060
:101F000021004218842F852FA62F972F20302000E4
:101F1000A3000030A4003B08AD002D08A5008C31C3
:101F20005D248F3101302000C0070030C13D20000A
:101F30004108803AAD003A08803A2D02031DA22FD5
:101F400039084002031CA52FA62F862F2000B701B9
:101F5000B801C62F20003C0884003D088500000819
:101F6000AD00AE012D08A3002E08A4003B08AF0071
:101F70002F08A5008C315D248F3101302000BC0773
:101F80000030BD3D0130B7070030B83D3808803A19
:101F9000AD003F08803A2D02031DD02F3E083702C6
:101FA000031CD32FD42FAA2F2100421CD82FD92FA6
:101FB000FA2FEB2F20302000A3000030A4003B08B4
:101FC000AD002D08A5008C315D248F31013020003B
:101FD000C0070030C13D20004108803AAD003A08FA
:101FE000803A2D02031DF62F39084002031CF92FF9
:101FF000FA2FDA2F20004108AC004008AB0008009F
:102000002F342F3420343D343D343D343D343D3481
:102010003D343D34203457344334533441345F34F9
:102020004D34613469346E344134703470342E343C
:10203000633420343D343D343D343D343D343D340F
:102040003D3420342F342F340A3400344C3461347E
:1020500073347434203463346F346D3470346934C1
:102060006C346534643420346F346E342034253459
:1020700073342034613474342034253473340A3496
:042080000A340034EA
:102E420020009411080021009D14080020001F1189
:102E5200080020001F150800280013100800200099
:102E62006A08080028001314080089319A21973152
:102E7200080023001D121D1608001A3021009700B9
:102E820008005A340434043462342000A0002008BC
:102E92009D00080004308531142597310800210077
:102EA2001C08F1001B08F000080020006308A100C4
:102EB2006208A000080097312A2797312C00991741
:102EC200080022008D179731332797310800200020
:102ED20014110130F0007008EA0008002000A2007E
:102EE20022088A31C02297310800F93020009E0062
:102EF2009D0191103D309F00080021000C1520001B
:102F0200EA018831CC209731080021002A082000EC
:102F1200A100210029082000A000080020002108AB
:102F22002100C500200020082100C4000800200064
:102F320021082100C900200020082100C800080043
:102F4200200021082100C700200020082100C6001F
:102F52000800200021082100CB00200020082100C9
:102F6200CA000800200021082100CD00200020080E
:102F72002100CC00080020006508A1006408A00020
:102F82008931672197310800E33021009E009F01BB
:102F92009B019C0115309D001117080097312727CE
:102FA200973100309731462797312C009913220030
:102FB2008E1008006400800101310130FE020030F1
:102FC200FF3B7F087E04031DDC2F0034FE0012004D
:102FD2001E000130FE020030FF3B7F087E04031D0D
:102FE200E82F003402303D00A10080302C0099000F
:102FF200980197011F08FC3901389F0008004D34E1
:10300200613479342034333430342034323430343F
:10301200323432340034313437343A3432343334A3
:103022003A343234323400346C346C347334003415
:020000040001F9
:08000000FF3FFF3FFF3FFF3F00
:08000E008C3FFF35FF3FFF3F6F
:00000001FF
