:0400000080316C28B7
:1000060008007E1480310B1F09280A286A2821005F
:10001600111C0E280F2818282000111C132814283C
:10002600182889316B2180316A282100911E1C28ED
:100036001D282F282000911E212822282F28210044
:100046004B088A004A080A0080318A3173228031BF
:100056008F31242780316A282100111E3328342845
:1000660040282000111E38283928402821004D0834
:100076008A004C080A0080316A282100941D442811
:1000860045284E282000941D49284A284E28963196
:10009600DD2680316A282100141D522853285C2849
:1000A6002000141D572858285C28973116278031C0
:1000B6006A282100111F602861286A282000111F64
:1000C600652866286A288831482080316A287E108B
:1000D600090080316E281D30840089308500543037
:1000E6008600013087000030FF00193097319E27C7
:1000F60080316F308400233085008130FE0000306F
:10010600FF00973192278031F701F801F901FA01D2
:10011600FB01FC0162308400003085000E30FE00D9
:100126000030FF00973192278031A03084000030E4
:1001360085003230FE000030FF0097319227803173
:1001460020308400013085003430FE000030FF008E
:100156009731922780317E1020008031B228893174
:10016600C12180318831A820803188310420803136
:100176008931A32180312100E401E501033020000B
:10018600DE005E082100E100E0018C31C4248031EC
:1001960000302000D6009030D70088316C208031A6
:1001A60026302000D6009030D7000030D800983096
:1001B600D9000C30DA009830DB0088316C208031B1
:1001C6009631E026803188311520803120002308C1
:1001D6002100EC00200022082100EB00200021086D
:1001E6002100EA00200020082100E9006C08DF0059
:1001F6006B08DE006A08DD006908DC006C08D600C2
:100206006B08D5006A08D4006908D3006C08DB00C7
:100216006B08DA006A08D9006908D80064008831DA
:1002260015208031200023082100EC002000220840
:100236002100EB00200021082100EA002000200810
:100246002100E9005C0869022000DE0021005D084B
:100256006A3B2000DF0021005E086B3B2000E000C7
:1002660021005F086C3B2000E1006108031D47295F
:100276006008031D47295F08031D47290A305E02EF
:10028600031C4629472959299631E0268031210049
:100296006C08DF006B08DE006A08DD006908DC0018
:1002A60001302000DE005E082100E0074B3021000F
:1002B6006002031C5F29602911298D31A025803138
:1002C600200021082100E700200020082100E60088
:1002D60067082000A100210066082000A0008A31DE
:1002E600F52280312000DE005E082100E800680863
:1002F600031D7E297F2985298C317C248031883114
:100306005A2080312100680885315A25803197317D
:100316002C2780318831D420803189318721803162
:100326008A31282280312100E00188311520803170
:10033600200023082100EC00200022082100EB0009
:10034600200021082100EA00200020082100E90001
:100356006C08DF006B08DE006A08DD006908DC0057
:100366006400883115208031200023082100EC002C
:10037600200022082100EB00200021082100EA00CD
:10038600200020082100E9005C0869022000DE0048
:1003960021005D086A3B2000DF0021005E086B3B00
:1003A6002000E00021005F086C3B2000E1006108AE
:1003B600031DE9296008031DE9295F08031DE929D2
:1003C6000A305E02031CE829E929B329973134274C
:1003D6008031200021082100E300200020082100B0
:1003E600E2008A31282280310030210063020A307F
:1003F600031962020318002A012A272A58086902EB
:100406002000DE00210059086A3B2000DF002100A1
:100416005A086B3B2000E00021005B086C3B200083
:10042600E1006108031D232A6008031D232A5F08D3
:10043600031D232AC9305E02031C222A232A862A88
:100446002100E401E501862A06306302D63003194D
:10045600620203182F2A302A632A64086504031DE2
:10046600352A362A3E2A6C08DB006B08DA006A0851
:10047600D9006908D80005302000A0000030A1008E
:10048600D630DE000630DF002100620820005E0262
:10049600E0002100630820005F3BE1006035A20018
:1004A600610DA3008B31FC23803120002008C83E5B
:1004B6002100E40000302000213D2100E500862ACD
:1004C600580869022000DE00210059086A3B200016
:1004D600DF0021005A086B3B2000E00021005B088A
:1004E6006C3B2000E1006108031D852A6008031D9E
:1004F600852A5F08031D852AC9305E02031C842AEB
:10050600852A862A232A210065082000BB002100AF
:1005160064082000BA008D310C2580312100640862
:100526006504031D972A982A9C2A973186278031CD
:100536009F2A973110278031143021006006031D51
:10054600A52AA62A8A2B8D31A025803120002108D4
:100556002100E700200020082100E60068082000AE
:10056600DE005E082100D70067082000A1002100F8
:1005760066082000A0008A31F52280312000DE00C6
:100586005E082100E80097310A2780312000210803
:100596002100E700200020082100E6009631E02631
:1005A6008031210061082000DE005E082100D200B3
:1005B60020000E0C890C0139DE000D0E01390907E9
:1005C6005E04DF005F082100E1009631EC268031F1
:1005D600003A0319EF2AF02AF72A8C317C2480315D
:1005E60088315A208031082B023021006702EE3014
:1005F600031966020318002B012B022BF02A680848
:10060600031D062B072B082BF02A21006108520632
:1006160003190E2B0F2B322B1E2B9631FF26803102
:10062600322B0130833193238031322B00308331DA
:1006360093238031322B61082000DE00DF015F0842
:10064600003A0319272B322B5E08013A0319142BA3
:10065600033A0319102B013A0319192B322B2100E7
:10066600530869022000DE00210054086A3B20007E
:10067600DF00210055086B3B2000E00021005608F2
:100686006C3B2000E1006108031D532BE1305E0244
:1006960093305F3B0430603B031C522B532B872B5C
:1006A60021006803031D582B592B662B8D31F42529
:1006B600803121006C08D6006B08D5006A08D4008A
:1006C6006908D300872B6808570603196B2B6C2B18
:1006D600872B732B2100680885315A2580315C2BC6
:1006E60068082000DE00DF015F08003A03197C2B52
:1006F600872B5E08013A0319592B033A03196D2B10
:10070600013A03196D2B872B2100E001AB2901303B
:100716002000DE005E082100E007AB2980316C284E
:100726002000BE00640020003E03031D9B2B9C2B73
:10073600792C0630BA000130BB008B318923833116
:100746008731FA27833103302000BD000830BC0012
:100756007730890BAC2BBC0BAC2BBD0BAC2B4A30CA
:100766002000BA000130BB008B318923833103306E
:100776002000BD000830BC007730890BC02BBC0BB5
:10078600C02BBD0BC02B88302000BA000130BB0047
:100796008B318923833103302000BD000830BC0033
:1007A6007730890BD42BBC0BD42BBD0BD42BEE305E
:1007B6002000BA000130BB008B318923833103301E
:1007C6002000BD000830BC007730890BE82BBC0B3D
:1007D600E82BBD0BE82B0B302000BA000230BB0023
:1007E6008B318923833103302000BD000830BC00E3
:1007F6007730890BFC2BBC0BFC2BBD0BFC2B9731EC
:100806007327833105302000BD000F30BC00F13066
:10081600890B0B2CBC0B0B2CBD0B0B2C06302000B4
:10082600BA000130BB008B31892383318731FA2727
:10083600833103302000BD000830BC007730890BBF
:10084600222CBC0B222CBD0B222C4A302000BA00D5
:100856000130BB008B318923833103302000BD007A
:100866000830BC007730890B362CBC0B362CBD0B00
:10087600362C88302000BA000130BB008B3189232A
:10088600833103302000BD000830BC007730890B6F
:100896004A2CBC0B4A2CBD0B4A2CEE302000BA0069
:1008A6000130BB008B318923833103302000BD002A
:1008B6000830BC007730890B5E2CBC0B5E2CBD0B60
:1008C6005E2C0B302000BA000230BB008B3189232E
:1008D600833103302000BD000830BC007730890B1F
:1008E600722CBC0B722CBD0B722C552D0B30BA0022
:1008F6000230BB008B31892383318731FA2783315C
:1009060003302000BD000830BC007730890B892CED
:10091600BC0B892CBD0B892CEE302000BA000130AF
:10092600BB008B318923833103302000BD000830A2
:10093600BC007730890B9D2CBC0B9D2CBD0B9D2CD0
:1009460088302000BA000130BB008B318923833107
:1009560003302000BD000830BC007730890BB12C75
:10096600BC0BB12CBD0BB12C4A302000BA000130B3
:10097600BB008B318923833103302000BD00083052
:10098600BC007730890BC52CBC0BC52CBD0BC52C08
:1009960006302000BA000130BB008B318923833139
:1009A60003302000BD000830BC007730890BD92CFD
:1009B600BC0BD92CBD0BD92C97317327833105304D
:1009C6002000BD000F30BC00F130890BE82CBC0BB9
:1009D600E82CBD0BE82C0B302000BA000230BB001F
:1009E6008B31892383318731FA2783310330200005
:1009F600BD000830BC007730890BFF2CBC0BFF2CE8
:100A0600BD0BFF2CEE302000BA000130BB008B314D
:100A16008923833103302000BD000830BC007730C5
:100A2600890B132DBC0B132DBD0B132D8830200005
:100A3600BA000130BB008B3189238331033020009B
:100A4600BD000830BC007730890B272DBC0B272D45
:100A5600BD0B272D4A302000BA000130BB008B3178
:100A66008923833103302000BD000830BC00773075
:100A7600890B3B2DBC0B3B2DBD0B3B2D06302000BF
:100A8600BA000130BB008B3189238331033020004B
:100A9600BD000830BC007730890B4F2DBC0B4F2DA5
:100AA600BD0B4F2D6400973173278331080020005A
:100AB600BE00640006302000BA000130BB008B3156
:100AC600892385318731FA27853109302000BD0019
:100AD6001E30BC00E430890B6E2DBC0B6E2DBD0B99
:100AE6006E2D00003E2E8830BA000130BB008B31DF
:100AF6008923853109302000BD001E30BC00E4305A
:100B0600890B832DBC0B832DBD0B832D0000582E26
:100B16008830BA000130BB008B318923853109301A
:100B26002000BD001E30BC00E430890B982DBC0BA4
:100B3600982DBD0B982D0000B8302000BA0001306A
:100B4600BB008B318923853109302000BD001E3062
:100B5600BC00E430890BAD2DBC0BAD2DBD0BAD2D0E
:100B66000000582E8830BA000130BB008B31892333
:100B7600853109302000BD001E30BC00E430890BF1
:100B8600C22DBC0BC22DBD0BC22D0000B8302000FB
:100B9600BA000130BB008B31892385310930200032
:100BA600BD001E30BC00E430890BD72DBC0BD72D01
:100BB600BD0BD72D0000EE302000BA000130BB007F
:100BC6008B31892385317D2D8830BA000130BB00F9
:100BD6008B318923853109302000BD001E30BC00D1
:100BE600E430890BF42DBC0BF42DBD0BF42D000065
:100BF600B8302000BA000130BB008B318923853123
:100C060009302000BD001E30BC00E430890B092EDF
:100C1600BC0B092EBD0B092E0000EE302000BA00D9
:100C26000130BB008B318923853109302000BD009E
:100C36001E30BC00E430890B1E2EBC0B1E2EBD0BD5
:100C46001E2E00000B302000BA000230BB008B3194
:100C56008923853109302000BD001E30BC00E430F8
:100C6600890B332EBC0B332EBD0B332E0000973170
:100C760073278531582E20003E08BC00BD013D0873
:100C8600003A0319472E582E3C08003A0319582EED
:100C9600013A0319762D033A03198B2D013A0319EC
:100CA600B52D073A0319E72D582E6400973173279F
:100CB600853108002000CD00420886008701403FAC
:100CC600C400413FC5004408840045088500120061
:100CD600253A031D6F2E702E1E2F420886008701AF
:100CE6000130810741310318810A2100BE01BF018D
:100CF600C201C301FF30C000FF30C100200042081E
:100D060086008701403FC400413FC5004408840077
:100D1600450885001200733A0319922E932EAC2EC5
:100D2600420886008701403FA000413FA1001530E0
:100D3600A2009830A3000330A4000030A50087313C
:100D460042278631200020082104031DAB2EAC2E3D
:100D5600E92E420886008701403FC400413FC50096
:100D660044088400450885001200733A0319BC2E16
:100D7600BD2EC22E0330CB000030CC00C62E013073
:100D8600CB000030CC004208860087014B08810763
:100D960041314C08813D7F314308860087010108B7
:100DA6008400850102308107003FC900013FCA0067
:100DB6004A08AC004908AB004D088E314D268631F5
:100DC60020002C08C3002B08C200412F42088600D1
:100DD6008701403FC400413FC500440884004508E0
:100DE60085001200253A031DF92EFA2E132F42080C
:100DF600860087010130810741310318810A2530B9
:100E0600A3000030A4004D08C4004408A5008C319E
:100E16003924863101302000C2000030C300412F42
:100E26004208860087010130810741310318810A93
:100E3600C201C301412F420886008701403FC4001A
:100E4600413FC50044088400450885000008C600E7
:100E5600C7014608A3004708A4004D08C800480873
:100E6600A5008C313924863120004208860087018E
:100E76000130810741310318810A0D2F0800200037
:100E86002108A8002008A7002308AA002208A90014
:100E96000130A4020030A53B240A031D562F250A63
:100EA600031D562F572F662FA001A1019E2F01303B
:100EB600A7070030A83D0130A9070030AA3D013040
:100EC600A4020030A53B27088400280885001200EC
:100ED60003196E2F6F2F8E2F290884002A0885008C
:100EE60012000319772F782F8E2F24082504031953
:100EF6007D2F7E2F8E2F290884002A088500000862
:100F0600A60027088400280885000008260603197D
:100F16008D2F8E2F5A2F2708840028088500000859
:100F2600A600290884002A08850000082602A000D9
:100F3600A101031CA103080000302000B800003006
:100F4600B7000030B6000030B5002F082E042D047F
:100F56002C040319AF2FB02FF12FB901B90ABE2FF8
:100F66000130AC35AD0DAE0DAF0D890BB42F013090
:100F7600B4003408B907AF1FC12FC22FB32F0130F9
:100F8600B535B60DB70DB80D890BC32F2F08330233
:100F9600031DD72F2E083202031DD72F2D0831022D
:100FA600031DD72F2C083002031CDA2FDB2FE42F6A
:100FB6002C08B0022D08B13B2E08B23B2F08B33BDC
:100FC60035140130AF36AE0CAD0CAC0C890BE52FE9
:100FD6000130B902031DF02FF12FC22F3808AF00E0
:100FE6003708AE003608AD003508AC000800220010
:100FF6008D179631EF26873108001A3021009700A9
:10100600080082302200970097317C27883105300E
:101016009731DF2788312000E201E3018A3104227B
:101026008831080021003B082000A30021003A086F
:101036002000A200210039082000A1002100380864
:101046002000A000080020009C01FC309A00183007
:10105600990011101A08F8001908F7002100111458
:10106600353020009B000800280094019201910170
:1010760020001312280012082000E500280011089D
:101086002000E400280093010800973104278831E6
:1010960071082000E3007008E2006308F1006208AE
:1010A600F0008A314D2288312000111308000130EA
:1010B6002000A2002208EA0021000C1122000C11D7
:1010C60097318627883197317327883164006928DC
:1010D600080058302000DC005C08DD005708CF000F
:1010E6005608CE005D30DC005C08D00000308B3145
:1010F60024238831080084302600930002303C0007
:101106009600260094019201910125001F08CF390F
:1011160010389F002000141121001415080021002A
:10112600AF01F1017108A03E860087010108F000B9
:101136007008AF070130F0007008F107083071023F
:10114600031CA628A7289528080000302100BB000C
:101156000030BA000030B9000030B800003022007C
:10116600D3000030D2000030D1000030D0008831EA
:1011760026208831080021000C1222000C120F30A4
:101186003D009400813026009700960195012500C8
:101196001F083F3980389F002000941121009415C4
:1011A600080021008E1022008E10973124278831E6
:1011B6009731AA278831F4302100D0000130D100C0
:1011C6000030CE000230CF009731862788310800E4
:1011D60020002108A3002008A200A336A20CA336F3
:1011E600A20C22082C009800200020080339A20037
:1011F6000530A235FF3E031DFC2822352C00970042
:1012060008002800131D0829092914291310200095
:1012160021082800920020002008280091001314BD
:101226001C29200021082800920020002008280000
:101236009100080028346E3475346C346C342934CB
:1012460000345A340534053406346A345A340534C5
:101256000534013465345A34043411346F345A3445
:1012660004340434623420002108A4002008A300BA
:1012760040290130A0070030A13D20088400210844
:1012860085001200031D482949293C29230820020C
:10129600A0002408213BA100080023001908F00043
:1012A60020006C08403E86000130870070088100EF
:1012B6000130F0007008EC0708306C02031C64294A
:1012C60065296629EC010130F0007008F90708006D
:1012D6007808F1007708F0009731EF27893101305F
:1012E6002100B8070030B93D0030BA3D0030BB3DA3
:1012F600E8302200D0070330D13D0030D23D003027
:10130600D33D200011100800FC012000A101210896
:10131600A03E8600870181010130A0002008A107B8
:1013260009302102031C982999298A292100A9013B
:10133600AA01AB01AC01AD01AE01AF01FB01080092
:101346008831372089318831BE20893121000C123D
:1013560022000C1221008D1322008D13B8302000BC
:10136600E8000130E9006908BB006808BA008B3163
:101376008923893197317327893108008B130B1321
:1013860021009001910192019301940120009001A6
:1013960091019201930194019731D12789318A31C4
:1013A600C82289319731B7278931883100208931A0
:1013B6008D31562589310B178B1708000830200010
:1013C6006D020318E729E829012A6E08483E8600BF
:1013D60001308700010823009A000130F0007008F0
:1013E6002000EE0708306E02031CFA29FB29FC29AF
:1013F600EE010130F0007008ED07032A21001112FA
:1014060008002000A4012408A000A101A035A10D18
:101416006F30A2002330A30020082207860021088F
:10142600233D87000030C03FC13F0130A0002008A7
:10143600A40740302402031C212A222A062AEF3060
:101446008600233087008101080022006C082000F6
:10145600A60022006B082000A50022006A082000D2
:10146600A400220069082000A300A7012708233E44
:101476008600870101088A319C228A3101302000CA
:10148600A2002208A70704302702031C4B2A4C2A75
:10149600392A0800EF308600233087000108F20061
:1014A600F301F235F30D6F30F4002330F5007208C6
:1014B600740786007308753D87007008C03F710881
:1014C600C13FEF308600233087000108013E3F39D7
:1014D600F200EF3086002330870072088100080092
:1014E60079080319772A782A732A7A08B03E860083
:1014F60087010108F00070082000EB007A08403EE2
:101506008600013087000108F0007008F100013004
:10151600F0007008FA0708307A02031C932A942A0E
:10152600952AFA01210091120130F90291167108EB
:1015360008002000A1006D080319A22AA32A9E2AEA
:101546002100111AA72AA82AAD2A20002108230063
:101556009A00C52A111220002108A0006F08483EF3
:10156600860001308700200881000130A000200895
:10157600EF0708306F02031CC12AC22AC32AEF01F3
:101586000130ED0221001116080022008C018D01A8
:101596008E01273021008C0070308D00AD308E001A
:1015A60023008E018D0120308C0024008D018C01DA
:1015B6008E0121000D160E1524000D160E152500A0
:1015C6008C018D018E01373026008C00F0308D00A5
:1015D600FF308E003F3027008C00F0308D00FF304A
:1015E6008E000800033020002102B73003192002C4
:1015F600031CFE2AFF2A012B0430232B0330210271
:10160600853003192002031C092B0A2B0C2B0330EF
:10161600232B03302102533003192002031C142B01
:10162600152B172B0230232B0330210221300319EF
:101636002002031C1F2B202B222B0130232B0030D2
:1016460008002000D3004F08D5004E08D400210022
:10165600BC01BD01422B5430D1005108C2005008D4
:10166600D2005208C300530886315D268B31200014
:1016760042082100BC07200043082100BD3D200090
:1016860054088400550885001200031D4B2B4C2B73
:101696002E2B21003D082000CF0021003C08200011
:1016A600CE00080000302000AB000030AA00003059
:1016B600A9000030A800201C612B622B6A2B24088D
:1016C600A8072508A93D2608AA3D2708AB3D0130F5
:1016D600A435A50DA60DA70D890B6B2B0130A336DE
:1016E600A20CA10CA00C890B722B23082204210446
:1016F6002004031D7F2B802B5E2B2B08A3002A08BA
:10170600A2002908A1002808A00008000030200037
:101716003B027D3003193A02031C922B932BBE2BFE
:1017260013303B02893003193A02031C9B2B9C2B76
:101736009D2BBE2B3B08E9003A08E8003A08AC00AE
:101746003B08AD00AE01AF010030B3003D30B20042
:101756000930B1000030B00087319F278B3120005F
:101766002D08E7002C08E6006708A1006608A0001F
:101776009731C4278B31080020006C08B03E8600E4
:101786008701810123001D1DC92BCA2BD62B2000E2
:101796006C08B03E860087018114210049088A0042
:1017A60048080A008B3123009D1CDA2BDB2BE72B24
:1017B60020006C08B03E860087010115210047080D
:1017C6008A0046080A008B3120006C08B03E86006D
:1017D600870101080319F02BF12BF82B210045088E
:1017E6008A0044080A008B31FB2B893150218B314A
:1017F60008002000A501A601200821040319042CD5
:10180600052C342CA701A70A112C0130A035A10DF7
:10181600890B092C0130A4002408A707A11F142C4A
:10182600152C082C0130A535A60D890B162C210880
:101836002302031D202C20082202031C232C242C07
:10184600292C2008A2022108A33B25140130A13629
:10185600A00C890B2A2C0130A702031D332C342C33
:10186600152C2608A1002508A00008002000250840
:1018760003193E2C3F2C442C2508031D432C442CD5
:10188600492C230897311D278C317B2C2508083ECF
:1018960086008701160001040319522C532C712C63
:1018A6002508083E86008701403FA600413FA70065
:1018B6002508023E86008701403FA800413FA90057
:1018C6002908803AAA002708803A2A02031D6D2CAF
:1018D600260828020318702C712C7B2C2000250862
:1018E600023E860087010130810741310318810AD3
:1018F6000800640088302000BA000130BB008B313C
:1019060089238C318731FA278C3109302000BD00BC
:101916001E30BC00E430890B8E2CBC0B8E2CBD0B0C
:101926008E2C00004A302000BA000130BB008B31FB
:1019360089238C3109302000BD001E30BC00E43004
:10194600890BA32CBC0BA32CBD0BA32C00000630CB
:101956002000BA000130BB008B3189238C3109305D
:101966002000BD001E30BC00E430890BB82CBC0B37
:10197600B82CBD0BB82C00006400973173278C314E
:101986000800640006302000BA000130BB008B312D
:1019960089238C318731FA278C3109302000BD002C
:1019A6001E30BC00E430890BD62CBC0BD62CBD0BEC
:1019B600D62C00004A302000BA000130BB008B3123
:1019C60089238C3109302000BD001E30BC00E43074
:1019D600890BEB2CBC0BEB2CBD0BEB2C00008830E1
:1019E6002000BA000130BB008B3189238C310930CD
:1019F6002000BD001E30BC00E430890B002DBC0B5E
:101A0600002DBD0B002D00006400973173278C312B
:101A16000800033020003B02E93003193A0203189C
:101A2600152D162D552D3B082100D10020003A0812
:101A36002100D00000302000AF000030AE0003309F
:101A4600AD00E830AC003A08A0003B08A100A201B6
:101A5600A3010030A7000030A6000330A500FF3028
:101A6600A4008B3155238D3120002308B3002208B2
:101A7600B2002108B1002008B00087319F278D31C0
:101A860020002D082100CF0020002C082100CE00C8
:101A96004F082000A10021004E082000A000883138
:101AA600EB208D31080021009112BF302000A000EC
:101AB6000B30A100973158278D3121001112E130EA
:101AC6002000A0000930A100973161278D310D302B
:101AD6003C00A40014303D00A400083023009F0001
:101AE60090309D0024309E0044309B009C010330C2
:101AF6002000A0000030A100973146278D31F63036
:101B06002000A0001630A10097314F278D31F2300A
:101B16002000A0001630A10097313D278D3120000E
:101B2600EB01EF01EE010830A2002208ED00EC0106
:101B3600FA01F90121009116080000302000AD00DD
:101B46000030AC000030AB000030AA00EF30860059
:101B5600233087000108A2002208AF00AE012F083B
:101B6600A200A301A235A30D6F30A4002330A50067
:101B76002208240786002308253D8700403FA6004B
:101B8600413FA7002608AA072708AB3D0030AC3D19
:101B9600AD3D2F08013E3F39A2002208AF000130BB
:101BA600A2002208AE0740302E02031CDB2DDC2DDE
:101BB600B22D2A08A2002B08A3002C08A4002D0889
:101BC600A5000630A536A40CA30CA20C890BE52DA6
:101BD6002308A9002208A8002908A1002808A000B7
:101BE6000800640088302000BA000130BB008B3149
:101BF60089238D318731FA278D3105302000BD00CC
:101C06000F30BC00F130890B062EBC0B062EBD0B27
:101C1600062E0B302000BA000230BB008B31892320
:101C26008D3105302000BD000F30BC00F130890B2E
:101C36001A2EBC0B1A2EBD0B1A2E88302000BA00A5
:101C46000130BB008B3189238D3105302000BD006A
:101C56000F30BC00F130890B2E2EBC0B2E2EBD0B87
:101C66002E2E0B302000BA000230BB008B318923A8
:101C76008D3105302000BD000F30BC00F130890BDE
:101C8600422EBC0B422EBD0B422E640097317327A9
:101C96008D3108002000BB005430860001308700DB
:101CA60030308400003085000730AD0016001A0081
:101CB600AD0B592E2C08BD002B08BC003C083D047A
:101CC600031D662E672E6B2E3030BC000030BD0023
:101CD6003D08A1003C08A000893136218E31200044
:101CE6002108C1002008C000210041082000BF00D3
:101CF600210040082000BE00BF1B822E832E972E97
:101D06003F08803AAD004108803A2D02031D8D2E12
:101D160040083E02031C902E912E922E972E2000F4
:101D26003F08C1003E08C00020004108BF0040082F
:101D3600BE0021003F082000BA0021003E08200016
:101D4600B90021004218A82EA92ECA2EBB2E20307B
:101D56002000A3000030A4003B08AD002D08A5001C
:101D66008C3139248E3101302000C0070030C13D4E
:101D760020004108803AAD003A08803A2D02031D42
:101D8600C62E39084002031CC92ECA2EAA2E2000D0
:101D9600B701B801EA2E20003C0884003D08850002
:101DA6000008AD00AE012D08A3002E08A4003B08D4
:101DB600AF002F08A5008C3139248E310130200068
:101DC600BC070030BD3D0130B7070030B83D3808CC
:101DD600803AAD003F08803A2D02031DF42E3E08DE
:101DE6003702031CF72EF82ECE2E2100421CFC2EA5
:101DF600FD2E1E2F0F2F20302000A3000030A40040
:101E06003B08AD002D08A5008C3139248E310130F8
:101E16002000C0070030C13D20004108803AAD00D7
:101E26003A08803A2D02031D1A2F39084002031C76
:101E36001D2F1E2FFE2E20004108AC004008AB00CF
:101E46000800F600DA2F59307606031D2B2F2C2FAB
:101E5600FF2F7608F2007B08A03E860087017208F5
:101E660081000130F2007208FC000130F2007208B5
:101E7600FB07FF2F59307606031D422F432F502FA5
:101E86007608F2007B08A03E860087017208810072
:101E96000230F2007208FC00382FFC01FB01FF2F14
:101EA6007608F2007B08A03E860087017208810052
:101EB6000330F2007208FC00382F7608F2007B0827
:101EC600A03E86008701720881000430F200720885
:101ED600FC00382F7608F2007B08A03E86008701BA
:101EE600720881000530F2007208FC00382F76086F
:101EF600F2007B08A03E860087017208810006304A
:101F0600F2007208FC00382F7608F2007B08A03E2B
:101F160086008701720881000730F2007208FC0013
:101F2600382F7608F2007B08A03E860087017208EB
:101F360081000830F2007208FC00382F7608F200A3
:101F46007B08A03E8600870172088100FC01FB0128
:101F5600883192208F3121002F087606031DB42F79
:101F6600B52FFF2F2308AA002208A9002508AC00D8
:101F76002408AB002708AE002608AD000D30A03EB1
:101F860086008701403FF200413FF300F336F20C32
:101F9600F336F20CF336F20C7208003EF400FF3012
:101FA600733DF5007408AD007508AE00FF2F7C0880
:101FB600F200F3017308003A0319E22FFF2F7208AB
:101FC600003A0319262F013A03193D2F033A031944
:101FD600532F013A0319602F073A03196D2F013A5F
:101FE60003197A2F033A0319872F013A0319942FFD
:101FF6000F3A0319A12FFF2F08002F342F34203456
:102006003D343D343D343D343D343D343D3420345F
:1020160057344334533441345F344D346134693476
:102026006E344134703470342E34633420343D348D
:102036003D343D343D343D343D343D3420342F343D
:102046002F340A3400344C346134733474342034FD
:1020560063346F346D34703469346C34653464348D
:1020660020346F346E342034253473342034613494
:0E20760074342034253473340A340A340034B0
:102DBA0020009411080021009D14080020001F1112
:102DCA00080020001F150800280013100800200022
:102DDA006A08080028001314080089315021963126
:102DEA00080023001D121D1608002000A00020085C
:102DFA009D000800043085315A25963108002100CB
:102E0A001C08F1001B08F000080020006308A1005C
:102E1A006208A00008009631E62697312C0099171F
:102E2A000800200014110130F0007008EA000800C0
:102E3A002000A20022088A319C2297310800F9302A
:102E4A0020009E009D0191103D309F000800210046
:102E5A000C152000EA0188317E20973108002100F4
:102E6A002A082000A100210029082000A00008004B
:102E7A00200021082100C500200020082100C400EC
:102E8A000800200021082100C90020002008210094
:102E9A00C8000800200021082100C70020002008DF
:102EAA002100C6000800200021082100CB002000D4
:102EBA0020082100CA000800200021082100CD00B6
:102ECA00200020082100CC00080020006508A1008D
:102EDA006408A000893104219731080022008D136B
:102EEA009631E926973197316A2797310800E330FE
:102EFA0021009E009F019B019C0115309D00111726
:102F0A0008009631E326973100309631FA26973138
:102F1A002C00991322008E100800640080010131F0
:102F2A000130FE020030FF3B7F087E04031D932F11
:102F3A000034FE0012001E000130FE020030FF3B8A
:102F4A007F087E04031D9F2F003402303D00A1003C
:102F5A0080302C009900980197011F08FC3901382C
:102F6A009F000800320099019B0140309D00063005
:102F7A009F009E011C1CC22FC32FBF2F08002000D8
:102F8A002108A3002008A20022082600950020009C
:102F9A0023082600960008000130320091007130A3
:102FAA00920046309300E3309400063095001F30BB
:102FBA00960008002000A1002108A000A00DA00D85
:102FCA0021001D08200020060339200621009D004B
:102FDA001D14080020001B1DF32FF42FFB2F1B10BC
:102FEA0071089A00700899001B14FF2F71089A0043
:102FFA007008990008004A3475346E34203420343D
:10300A0032342034323430343234323400343134CD
:10301A0033343A34323438343A3433343134003491
:08302A006C346C347334003483
:020000040001F9
:08000000FF3FFF3FFF3FFF3F00
:08000E008C3FFF35FF3FFF3F6F
:00000001FF
