:0400000080316C28B7
:1000060008007E1480310B1F09280A286A2821005F
:10001600111C0E280F2818282000111C132814283C
:1000260018288931532180316A282100911E1C2805
:100036001D282F282000911E212822282F28210044
:100046004B088A004A080A0080318A315B228031D7
:100056008F31242780316A282100111E3328342845
:1000660040282000111E38283928402821004D0834
:100076008A004C080A0080316A282100941D442811
:1000860045284E282000941D49284A284E28963196
:10009600C32680316A282100141D522853285C2863
:1000A6002000141D572858285C28973102278031D4
:1000B6006A282100111F602861286A282000111F64
:1000C600652866286A288831302080316A287E10A3
:1000D600090080316E28053084008930850054304F
:1000E6008600013087000030FF00193097318A27DB
:1000F60080316F308400233085008130FE0000306F
:10010600FF0097317E278031F701F801F901FA01E6
:10011600FB01FC0162308400003085000E30FE00D9
:100126000030FF0097317E278031A03084000030F8
:1001360085003230FE000030FF0097317E27803187
:1001460020308400013085003430FE000030FF008E
:1001560097317E2780317E1020008031B228893188
:10016600A92180318831902080319731DE27803176
:1001760089318B2180312100E401E5010330200023
:10018600DE005E082100E000DF018C316924803149
:1001960000302000D6009030D700883154208031BE
:1001A60026302000D6009030D7000030D800983096
:1001B600D9000C30DA009830DB00883154208031C9
:1001C6009631C62680319731EF27803120002308EB
:1001D6002100EC00200022082100EB00200021086D
:1001E6002100EA00200020082100E9006C08DE005A
:1001F6006B08DD006A08DC006908DB00203069074F
:10020600D3006C306A3DD400FB306B3DD500FF3027
:100216006C3DD6006C08DA006B08D9006A08D80075
:100226006908D70064009731EF2780312000230842
:100236002100EC00200022082100EB00200021080C
:100246002100EA00200020082100E9005B0869027D
:100256002000DE0021005C086A3B2000DF00210050
:100266005D086B3B2000E00021005E086C3B20002F
:10027600E1006108031D4B296008031D4B295F0837
:10028600031D4B290A305E02031C4A294B295D29AE
:100296009631C626803121006C08DE006B08DD0031
:1002A6006A08DC006908DB0001302000DE005E0819
:1002B6002100DF074B3021005F02031C63296429FC
:1002C60015298D3145258031200021082100E700C0
:1002D600200020082100E60067082000A100210078
:1002E60066082000A0008A31DD2280312000DE0071
:1002F6005E082100E8006808031D822983298929F0
:100306008C312124803188314220803121006808D7
:100316008531742580319731182780318831BC208A
:10032600803189316F2180318A311022803121005C
:10033600DF019731EF278031200023082100EC00F0
:10034600200022082100EB00200021082100EA00FD
:10035600200020082100E9006C08DE006B08DD00A3
:100366006A08DC006908DB0064009731EF278031FA
:10037600200023082100EC00200022082100EB00C9
:10038600200021082100EA00200020082100E900C1
:100396005B0869022000DE0021005C086A3B200041
:1003A600DF0021005D086B3B2000E00021005E08B5
:1003B6006C3B2000E1006108031DED296008031D68
:1003C600ED295F08031DED290A305E02031CEC29A6
:1003D600ED29B729973120278031200021082100F7
:1003E600E200200020082100E1008A31102280313D
:1003F6000030210062020A30031961020318042A40
:10040600052A2B2A570869022000DE002100580819
:100416006A3B2000DF00210059086B3B2000E0000A
:1004260021005A086C3B2000E1006108031D272AC1
:100436006008031D272A5F08031D272AC9305E02AC
:10044600031C262A272A8E2A2100E401E5018E2A8A
:10045600073062020830031961020318332A342A6E
:100466006B2A64086504031D392A3A2A422A6C0855
:10047600DA006B08D9006A08D8006908D700093085
:100486002000A0000030A1000830DE000730DF00A9
:100496002100610820005E02E000210062082000C1
:1004A6005F3BE100E035E10DE035E10D6008A200BB
:1004B6006108A3008B31E423803120002008C83E68
:1004C6002100E40000302000213D2100E5008E2AB5
:1004D600570869022000DE00210058086A3B200008
:1004E600DF00210059086B3B2000E00021005A087C
:1004F6006C3B2000E1006108031D8D2A6008031D86
:100506008D2A5F08031D8D2AC9305E02031C8C2AC2
:100516008D2A8E2A272A210065082000BB0021008B
:1005260064082000BA008C31B124803121006408AF
:100536006504031D9F2AA02AA42A973172278031B9
:10054600A72A9631F6268031143021005F06031D56
:10055600AD2AAE2AA42B8D314525803120002108F5
:100566002100E700200020082100E600680820009E
:10057600DE005E082100E30067082000A1002100DC
:1005860066082000A0008A31DD2280312000DE00CE
:100596005E082100E8009631F0268031200021080F
:1005A6002100E700200020082100E6009631C6263B
:1005B6008031210060082000DE005E082100D200A4
:1005C60020000E0C890C0139DE000D0E01390907D9
:1005D6005E04DF005F082100E0009631D2268031FC
:1005E600003A0319F72AF82AFF2A8C312124803190
:1005F600883142208031102B023021006702EE3014
:10060600031966020318082B092B0A2BF82A680817
:10061600031D0E2B0F2B102BF82A21006008520603
:100626000319162B172B3A2B262B9631E5268031EC
:100636003A2B01308331AD2380313A2B00308331A0
:10064600AD2380313A2B60082000DE00DF015F0811
:10065600003A03192F2B3A2B5E08013A03191C2B7B
:10066600033A0319182B013A0319212B3A2B2100BF
:10067600530869022000DE00210054086A3B20006E
:10068600DF00210055086B3B2000E00021005608E2
:100696006C3B2000E1006108031D5B2BE1305E022C
:1006A60093305F3B0430603B031C5A2B5B2BA12B22
:1006B60021006803031D602B612B6E2B8D3199255C
:1006C600803121006C08D6006B08D5006A08D4007A
:1006D6006908D300A12B680863060319732B742BD2
:1006E600A12B8D2B033021006306031D7B2B7C2B56
:1006F600A12B6808853174258031642B04302100D4
:100706006306031D872B882BA12B6808853174256A
:100716008031642B68082000DE00DF015F08003AA4
:100726000319962BA12B5E08013A0319612B033A94
:100736000319752B013A0319812BA12B2100DF0127
:10074600AF2901302000DE005E082100DF07AF2957
:1007560080316C282000BE00640020003E03031D8B
:10076600B52BB62B932C0630BA000130BB008B316B
:10077600712383319631FC26833103302000BD007E
:100786000830BC007730890BC62BBC0BC62BBD0BC3
:10079600C62B4A302000BA000130BB008B317123D2
:1007A600833103302000BD000830BC007730890B50
:1007B600DA2BBC0BDA2BBD0BDA2B88302000BA0003
:1007C6000130BB008B317123833103302000BD0023
:1007D6000830BC007730890BEE2BBC0BEE2BBD0B23
:1007E600EE2BEE302000BA000130BB008B317123B6
:1007F600833103302000BD000830BC007730890B00
:10080600022CBC0B022CBD0B022C0B302000BA00B4
:100816000230BB008B317123833103302000BD00D1
:100826000830BC007730890B162CBC0B162CBD0B80
:10083600162C97315F27833105302000BD000F301D
:10084600BC00F130890B252CBC0B252CBD0B252CAF
:1008560006302000BA000130BB008B317123833192
:100866009631FC26833103302000BD000830BC00E1
:100876007730890B3C2CBC0B3C2CBD0B3C2C4A30F6
:100886002000BA000130BB008B3171238331033065
:100896002000BD000830BC007730890B502CBC0B03
:1008A600502CBD0B502C88302000BA000130BB0004
:1008B6008B317123833103302000BD000830BC002A
:1008C6007730890B642CBC0B642CBD0B642CEE308A
:1008D6002000BA000130BB008B3171238331033015
:1008E6002000BD000830BC007730890B782CBC0B8B
:1008F600782CBD0B782C0B302000BA000230BB00E0
:100906008B317123833103302000BD000830BC00D9
:100916007730890B8C2CBC0B8C2CBD0B8C2C6F2D43
:100926000B30BA000230BB008B3171238331963114
:10093600FC26833103302000BD000830BC00773030
:10094600890BA32CBC0BA32CBD0BA32CEE302000D3
:10095600BA000130BB008B31712383310330200094
:10096600BD000830BC007730890BB72CBC0BB72C08
:10097600BD0BB72C88302000BA000130BB008B318C
:100986007123833103302000BD000830BC0077306E
:10099600890BCB2CBC0BCB2CBD0BCB2C4A302000AF
:1009A600BA000130BB008B31712383310330200044
:1009B600BD000830BC007730890BDF2CBC0BDF2C68
:1009C600BD0BDF2C06302000BA000130BB008B3196
:1009D6007123833103302000BD000830BC0077301E
:1009E600890BF32CBC0BF32CBD0BF32C97315F2733
:1009F600833105302000BD000F30BC00F130890B7B
:100A0600022DBC0B022DBD0B022D0B302000BA00AF
:100A16000230BB008B31712383319631FC26833142
:100A260003302000BD000830BC007730890B192D3B
:100A3600BC0B192DBD0B192DEE302000BA0001306C
:100A4600BB008B317123833103302000BD00083099
:100A5600BC007730890B2D2DBC0B2D2DBD0B2D2DFC
:100A660088302000BA000130BB008B3171238331FE
:100A760003302000BD000830BC007730890B412DC3
:100A8600BC0B412DBD0B412D4A302000BA00013070
:100A9600BB008B317123833103302000BD00083049
:100AA600BC007730890B552DBC0B552DBD0B552D34
:100AB60006302000BA000130BB008B317123833130
:100AC60003302000BD000830BC007730890B692D4B
:100AD600BC0B692DBD0B692D640097315F278331EF
:100AE60008002000BE00640006302000BA00013075
:100AF600BB008B31712385319631FC268531093057
:100B06002000BD001E30BC00E430890B882DBC0BD4
:100B1600882DBD0B882D0000582E8830BA00013074
:100B2600BB008B317123853109302000BD001E309A
:100B3600BC00E430890B9D2DBC0B9D2DBD0B9D2D5E
:100B46000000722E8830BA000130BB008B31712351
:100B5600853109302000BD001E30BC00E430890B11
:100B6600B22DBC0BB22DBD0BB22D0000B83020004B
:100B7600BA000130BB008B3171238531093020006A
:100B8600BD001E30BC00E430890BC72DBC0BC72D41
:100B9600BD0BC72D0000722E8830BA000130BB0095
:100BA6008B317123853109302000BD001E30BC0019
:100BB600E430890BDC2DBC0BDC2DBD0BDC2D0000DD
:100BC600B8302000BA000130BB008B31712385316B
:100BD60009302000BD001E30BC00E430890BF12D29
:100BE600BC0BF12DBD0BF12D0000EE302000BA003C
:100BF6000130BB008B3171238531972D8830BA00C7
:100C06000130BB008B317123853109302000BD00D6
:100C16001E30BC00E430890B0E2EBC0B0E2EBD0B15
:100C26000E2E0000B8302000BA000130BB008B3118
:100C36007123853109302000BD001E30BC00E43030
:100C4600890B232EBC0B232EBD0B232E0000EE306A
:100C56002000BA000130BB008B3171238531093089
:100C66002000BD001E30BC00E430890B382EBC0BC2
:100C7600382EBD0B382E00000B302000BA00023093
:100C8600BB008B317123853109302000BD001E3039
:100C9600BC00E430890B4D2EBC0B4D2EBD0B4D2EEA
:100CA600000097315F278531722E20003E08BC0078
:100CB600BD013D08003A0319612E722E3C08003A28
:100CC6000319722E013A0319902D033A0319A52D23
:100CD600013A0319CF2D073A0319012E722E64002B
:100CE60097315F27853108002000CD004208860035
:100CF6008701403FC400413FC500440884004508C1
:100D060085001200253A031D892E8A2E382F4208A7
:100D1600860087010130810741310318810A2100CD
:100D2600BE01BF01C201C301FF30C000FF30C100D8
:100D36002000420886008701403FC400413FC500AD
:100D460044088400450885001200733A0319AC2E46
:100D5600AD2EC62E420886008701403FA000413FC7
:100D6600A1001530A2009830A3000330A400003083
:100D7600A50087315C278631200020082104031D49
:100D8600C52EC62E032F420886008701403FC400A9
:100D9600413FC50044088400450885001200733AA7
:100DA6000319D62ED72EDC2E0330CB000030CC0014
:100DB600E02E0130CB000030CC00420886008701CF
:100DC6004B08810741314C08813D7F31430886003D
:100DD600870101088400850102308107003FC900B0
:100DE600013FCA004A08AC004908AB004D088E31E5
:100DF6004D26863120002C08C3002B08C2005B2F2D
:100E0600420886008701403FC400413FC5004408B0
:100E16008400450885001200253A031D132F142F60
:100E26002D2F4208860087010130810741310318C2
:100E3600810A2530A3000030A4004D08C4004408F0
:100E4600A5008731B927863101302000C200003065
:100E5600C3005B2F420886008701013081074131BC
:100E66000318810AC201C3015B2F4208860087016D
:100E7600403FC400413FC500440884004508850042
:100E86000008C600C7014608A3004708A4004D088D
:100E9600C8004808A5008731B927863120004208D6
:100EA600860087010130810741310318810A272F07
:100EB600080020002108A8002008A7002308AA008F
:100EC6002208A9000130A4020030A53B240A031D14
:100ED600702F250A031D702F712F802FA001A101ED
:100EE600B82F0130A7070030A83D0130A907003010
:100EF600AA3D0130A4020030A53B2708840028083B
:100F0600850012000319882F892FA82F290884002D
:100F16002A08850012000319912F922FA82F240862
:100F260025040319972F982FA82F290884002A082B
:100F360085000008A6002708840028088500000808
:100F460026060319A72FA82F742F27088400280820
:100F560085000008A600290884002A0885000008E4
:100F66002602A000A101031CA103080020002508F9
:100F76000319BE2FBF2FC42F2508031DC32FC42F4F
:100F8600C92F2308973109278731FB2F2508083EEB
:100F960086008701160001040319D22FD32FF12FE3
:100FA6002508083E86008701403FA600413FA7006E
:100FB6002508023E86008701403FA800413FA90060
:100FC6002908803AAA002708803A2A02031DED2F35
:100FD600260828020318F02FF12FFB2F20002508E2
:100FE600023E860087010130810741310318810ADC
:100FF60008001A30210097000800013032009100E5
:101006007130920046309300E3309400063095002C
:101016001F309600080020009C01FC309A00183012
:10102600990011101A08F8001908F7002100111488
:10103600353020009B0008002800940192019101A0
:1010460020001312280012082000E50028001108CD
:101056002000E4002800930108009631EA26883132
:1010660071082000E3007008E2006308F1006208DE
:10107600F0008A3135228831200011130800013032
:101086002000A2002208EA0021000C1122000C1107
:1010960097317227883197315F278831640051284C
:1010A600080058302000DC005C08DD005708CF003F
:1010B6005608CE005D30DC005C08D00000308B3175
:1010C6000C238831080084302600930002303C004F
:1010D6009600260094019201910125001F08CF3940
:1010E60010389F002000141121001415080021005B
:1010F600AF01F1017108A03E860087010108F000EA
:101106007008AF070130F0007008F107083071026F
:10111600031C8E288F287D28080000302100BB0084
:101126000030BA000030B9000030B80000302200AC
:10113600D3000030D2000030D1000030D00088311A
:101146000E208831080021000C1222000C120F30EC
:101156003D009400813026009700960195012500F8
:101166001F083F3980389F002000941121009415F4
:10117600080021008E1022008E109731102788312A
:10118600973196278831F4302100D0000130D10004
:101196000030CE000230CF00973172278831080028
:1011A60020002108A3002008A200A336A20CA33623
:1011B600A20C22082C009800200020080339A20067
:1011C6000530A235FF3E031DE42822352C0097008A
:1011D60008002800131DF028F128FC281310200011
:1011E60021082800920020002008280091001314EE
:1011F6000429200021082800920020002008280049
:101206009100080028346E3475346C346C342934FB
:1012160000345A340534053406346A345A340534F5
:101226000534013465345A34043411346F345A3475
:1012360004340434623420002108A4002008A300EA
:1012460028290130A0070030A13D2008840021088C
:1012560085001200031D3029312924292308200284
:10126600A0002408213BA100080023001908F00073
:1012760020006C08403E860001308700700881001F
:101286000130F0007008EC0708306C02031C4C2992
:101296004D294E29EC010130F0007008F9070800CD
:1012A6007808F1007708F0009731CD2789310130B1
:1012B6002100B8070030B93D0030BA3D0030BB3DD3
:1012C600E8302200D0070330D13D0030D23D003057
:1012D600D33D200011100800FC012000A1012108C7
:1012E600A03E8600870181010130A0002008A107E9
:1012F60009302102031C8029812972292100A901B4
:10130600AA01AB01AC01AD01AE01AF01FB010800C2
:1013160088311F2089318831A620893121000C129D
:1013260022000C1221008D1322008D13B8302000EC
:10133600E8000130E9006908BB006808BA008B3193
:101346007123893197315F27893108008B130B137D
:1013560021009001910192019301940120009001D6
:1013660091019201930194018831002089318A31DB
:10137600B02289319731A32789318731FC278931FA
:101386008C31FB2489310B178B170800083020009D
:101396006D020318CF29D029E9296E08483E860038
:1013A60001308700010823009A000130F000700820
:1013B6002000EE0708306E02031CE229E329E42927
:1013C600EE010130F0007008ED07EB292100111243
:1013D60008002000A4012408A000A101A035A10D49
:1013E6006F30A2002330A3002008220786002108C0
:1013F600233D87000030C03FC13F0130A0002008D8
:10140600A40740302402031C092A0A2AEE29EF30D9
:101416008600233087008101080022006C08200026
:10142600A60022006B082000A50022006A08200002
:10143600A400220069082000A300A7012708233E74
:101446008600870101088A3184228A310130200012
:10145600A2002208A70704302702031C332A342AD5
:10146600212A0800EF308600233087000108F200A9
:10147600F301F235F30D6F30F4002330F5007208F6
:10148600740786007308753D87007008C03F7108B1
:10149600C13FEF308600233087000108013E3F3907
:1014A600F200EF30860023308700720881000800C2
:1014B600790803195F2A602A5B2A7A08B03E8600FB
:1014C60087010108F00070082000EB007A08403E12
:1014D6008600013087000108F0007008F100013035
:1014E600F0007008FA0708307A02031C7B2A7C2A6F
:1014F6007D2AFA01210091120130F9029116710834
:1015060008002000A1006D0803198A2A8B2A862A62
:101516002100111A8F2A902A952A200021082300DB
:101526009A00AD2A111220002108A0006F08483E3B
:10153600860001308700200881000130A0002008C5
:10154600EF0708306F02031CA92AAA2AAB2AEF016B
:101556000130ED0221001116080022008C018D01D8
:101566008E01273021008C0070308D00AD308E004A
:1015760023008E018D0120308C0024008D018C010A
:101586008E0121000D160E1524000D160E152500D0
:101596008C018D018E01373026008C00F0308D00D5
:1015A600FF308E003F3027008C00F0308D00FF307A
:1015B6008E000800033020002102E93003192002C2
:1015C600031CE62AE72AE92A04300B2B0330210202
:1015D600B73003192002031CF12AF22AF42A033039
:1015E6000B2B03302102853003192002031CFC2A31
:1015F600FD2AFF2A02300B2B033021025330031938
:101606002002031C072B082B0A2B01300B2B003062
:1016160008002000D3004F08D5004E08D400210052
:10162600BC01BD012A2B5430D1005108C20050081C
:10163600D2005208C3005308863177268B3120002A
:1016460042082100BC07200043082100BD3D2000C0
:1016560054088400550885001200031D332B342BD3
:10166600162B21003D082000CF0021003C08200059
:10167600CE00080000302000AB000030AA00003089
:10168600A9000030A800201C492B4A2B522B240805
:10169600A8072508A93D2608AA3D2708AB3D013025
:1016A600A435A50DA60DA70D890B532B0130A33626
:1016B600A20CA10CA00C890B5A2B2308220421048E
:1016C6002004031D672B682B462B2B08A3002A0832
:1016D600A2002908A1002808A00008000030200068
:1016E6003B027D3003193A02031C7A2B7B2BA62B77
:1016F60013303B02893003193A02031C832B842BD7
:10170600852BA62B3B08E9003A08E8003A08AC000E
:101716003B08AD00AE01AF010030B3003D30B20072
:101726000930B1000030B0008D31F2258B31200038
:101736002D08E7002C08E6006708A1006608A0004F
:101746009731B0278B31080020006C08B03E860028
:101756008701810123001D1DB12BB22BBE2B20005A
:101766006C08B03E860087018114210049088A0072
:1017760048080A008B3123009D1CC22BC32BCF2B9C
:1017860020006C08B03E860087010115210047083D
:101796008A0046080A008B3120006C08B03E86009D
:1017A600870101080319D82BD92BE02B2100450806
:1017B6008A0044080A008B31E32B893138218B31AA
:1017C60008002000A501A601200821040319EC2B1E
:1017D600ED2B1C2CA701A70AF92B0130A035A10D72
:1017E600890BF12B0130A4002408A707A11FFC2BAD
:1017F600FD2BF02B0130A535A60D890BFE2B2108FC
:101806002302031D082C20082202031C0B2C0C2C7F
:10181600112C2008A2022108A33B25140130A13671
:10182600A00C890B122C0130A702031D1B2C1C2CAB
:10183600FD2B2608A1002508A000080064008830BA
:101846002000BA000130BB008B3171238C319631F8
:10185600FC268C3109302000BD001E30BC00E4306F
:10186600890B332CBC0B332CBD0B332C00004A30B8
:101876002000BA000130BB008B3171238C31093056
:101886002000BD001E30BC00E430890B482CBC0B88
:10189600482CBD0B482C000006302000BA00013051
:1018A600BB008B3171238C3109302000BD001E3006
:1018B600BC00E430890B5D2CBC0B5D2CBD0B5D2C94
:1018C6000000640097315F278C3108006400063001
:1018D6002000BA000130BB008B3171238C31963168
:1018E600FC268C3109302000BD001E30BC00E430DF
:1018F600890B7B2CBC0B7B2CBD0B7B2C00004A3050
:101906002000BA000130BB008B3171238C310930C5
:101916002000BD001E30BC00E430890B902CBC0BAF
:10192600902CBD0B902C000088302000BA000130AE
:10193600BB008B3171238C3109302000BD001E3075
:10194600BC00E430890BA52CBC0BA52CBD0BA52C2B
:101956000000640097315F278C31080003302000B7
:101966003B02E93003193A020318BA2CBB2CFA2CB5
:101976003B082100D10020003A082100D0000030A9
:101986002000AF000030AE000330AD00E830AC0000
:101996003A08A0003B08A100A201A3010030A7005D
:1019A6000030A6000330A500FF30A4008B313D2394
:1019B6008C3120002308B3002208B2002108B100B0
:1019C6002008B0008D31F2258C3120002D08210031
:1019D600CF0020002C082100CE004F082000A100D7
:1019E60021004E082000A0008831D3208C31080049
:1019F60021009112A7302000A0000B30A1009731E2
:101A060044278C3121001112C9302000A000093072
:101A1600A10097314D278C310D303C00A4001430C5
:101A26003D00A400083023009F0090309D00243024
:101A36009E0044309B009C0103302000A000003033
:101A4600A100973132278C31DC302000A0001630FF
:101A5600A10097313B278C31D8302000A0001630EA
:101A6600A100973129278C312000EB01EF01EE010F
:101A76000830A2002208ED00EC01FA01F90121006C
:101A86009116080000302000AD000030AC00003098
:101A9600AB000030AA00EF30860023308700010833
:101AA600A2002208AF00AE012F08A200A301A235B2
:101AB600A30D6F30A4002330A5002208240786005A
:101AC6002308253D8700403FA600413FA700260882
:101AD600AA072708AB3D0030AC3DAD3D2F08013EBF
:101AE6003F39A2002208AF000130A2002208AE074B
:101AF60040302E02031C802D812D572D2A08A2006E
:101B06002B08A3002C08A4002D08A5000630A53636
:101B1600A40CA30CA20C890B8A2D2308A900220869
:101B2600A8002908A1002808A00008006400883041
:101B36002000BA000130BB008B3171238D31963104
:101B4600FC268D3105302000BD000F30BC00F13081
:101B5600890BAB2DBC0BAB2DBD0BAB2D0B30200079
:101B6600BA000230BB008B3171238D310530200065
:101B7600BD000F30BC00F130890BBF2DBC0BBF2D53
:101B8600BD0BBF2D88302000BA000130BB008B3161
:101B960071238D3105302000BD000F30BC00F130BF
:101BA600890BD32DBC0BD32DBD0BD32D0B302000B1
:101BB600BA000230BB008B3171238D310530200015
:101BC600BD000F30BC00F130890BE72DBC0BE72DB3
:101BD600BD0BE72D640097315F278D31080000307B
:101BE6002000B8000030B7000030B6000030B50065
:101BF6002F082E042D042C040319022E032E442E26
:101C0600B901B90A112E0130AC35AD0DAE0DAF0DCF
:101C1600890B072E0130B4003408B907AF1F142E04
:101C2600152E062E0130B535B60DB70DB80D890B3C
:101C3600162E2F083302031D2A2E2E083202031DEC
:101C46002A2E2D083102031D2A2E2C083002031CD1
:101C56002D2E2E2E372E2C08B0022D08B13B2E0825
:101C6600B23B2F08B33B35140130AF36AE0CAD0C8A
:101C7600AC0C890B382E0130B902031D432E442EBD
:101C8600152E3808AF003708AE003608AD00350807
:101C9600AC0008002000BB005430860001308700ED
:101CA60030308400003085000730AD0016001A0081
:101CB600AD0B592E2C08BD002B08BC003C083D047A
:101CC600031D662E672E6B2E3030BC000030BD0023
:101CD6003D08A1003C08A00089311E218E3120005C
:101CE6002108C1002008C000210041082000BF00D3
:101CF600210040082000BE00BF1B822E832E972E97
:101D06003F08803AAD004108803A2D02031D8D2E12
:101D160040083E02031C902E912E922E972E2000F4
:101D26003F08C1003E08C00020004108BF0040082F
:101D3600BE0021003F082000BA0021003E08200016
:101D4600B90021004218A82EA92ECA2EBB2E20307B
:101D56002000A3000030A4003B08AD002D08A5001C
:101D66008731B9278E3101302000C0070030C13DD0
:101D760020004108803AAD003A08803A2D02031D42
:101D8600C62E39084002031CC92ECA2EAA2E2000D0
:101D9600B701B801EA2E20003C0884003D08850002
:101DA6000008AD00AE012D08A3002E08A4003B08D4
:101DB600AF002F08A5008731B9278E3101302000EA
:101DC600BC070030BD3D0130B7070030B83D3808CC
:101DD600803AAD003F08803A2D02031DF42E3E08DE
:101DE6003702031CF72EF82ECE2E2100421CFC2EA5
:101DF600FD2E1E2F0F2F20302000A3000030A40040
:101E06003B08AD002D08A5008731B9278E3101307A
:101E16002000C0070030C13D20004108803AAD00D7
:101E26003A08803A2D02031D1A2F39084002031C76
:101E36001D2F1E2FFE2E20004108AC004008AB00CF
:101E46000800F600DA2F59307606031D2B2F2C2FAB
:101E5600FF2F7608F2007B08A03E860087017208F5
:101E660081000130F2007208FC000130F2007208B5
:101E7600FB07FF2F59307606031D422F432F502FA5
:101E86007608F2007B08A03E860087017208810072
:101E96000230F2007208FC00382FFC01FB01FF2F14
:101EA6007608F2007B08A03E860087017208810052
:101EB6000330F2007208FC00382F7608F2007B0827
:101EC600A03E86008701720881000430F200720885
:101ED600FC00382F7608F2007B08A03E86008701BA
:101EE600720881000530F2007208FC00382F76086F
:101EF600F2007B08A03E860087017208810006304A
:101F0600F2007208FC00382F7608F2007B08A03E2B
:101F160086008701720881000730F2007208FC0013
:101F2600382F7608F2007B08A03E860087017208EB
:101F360081000830F2007208FC00382F7608F200A3
:101F46007B08A03E8600870172088100FC01FB0128
:101F560088317A208F3121002F087606031DB42F91
:101F6600B52FFF2F2308AA002208A9002508AC00D8
:101F76002408AB002708AE002608AD000D30A03EB1
:101F860086008701403FF200413FF300F336F20C32
:101F9600F336F20CF336F20C7208003EF400FF3012
:101FA600733DF5007408AD007508AE00FF2F7C0880
:101FB600F200F3017308003A0319E22FFF2F7208AB
:101FC600003A0319262F013A03193D2F033A031944
:101FD600532F013A0319602F073A03196D2F013A5F
:101FE60003197A2F033A0319872F013A0319942FFD
:101FF6000F3A0319A12FFF2F08002F342F34203456
:102006003D343D343D343D343D343D343D3420345F
:1020160057344334533441345F344D346134693476
:102026006E344134703470342E34633420343D348D
:102036003D343D343D343D343D343D3420342F343D
:102046002F340A3400344C346134733474342034FD
:1020560063346F346D34703469346C34653464348D
:1020660020346F346E342034253473342034613494
:0E20760074342034253473340A340A340034B0
:102D860020009411080021009D14080020001F1146
:102D9600080020001F150800280013100800200056
:102DA6006A08080028001314080089313821963172
:102DB600080023001D121D1608002000A000200890
:102DC6009D000800043085317425963108002100E5
:102DD6001C08F1001B08F000080020006308A10091
:102DE6006208A00008009631CC2696312C0099176F
:102DF600080022008D179631D5269631080020004E
:102E060014110130F0007008EA0008002000A2004A
:102E160022088A31842297310800F93020009E006A
:102E26009D0191103D309F00080021000C152000E7
:102E3600EA01883166209731080021002A0820001F
:102E4600A100210029082000A00008002000210878
:102E56002100C500200020082100C4000800200031
:102E660021082100C900200020082100C800080010
:102E7600200021082100C700200020082100C600EC
:102E86000800200021082100CB0020002008210096
:102E9600CA000800200021082100CD0020002008DB
:102EA6002100CC00080020006508A1006408A000ED
:102EB6008831EC209731080022008D139631CF26F9
:102EC60097319731562797310800E33021009E004D
:102ED6009F019B019C0115309D001117080096313A
:102EE600C926973100309631E02697312C00991388
:102EF60022008E1008006400800101310130FE02BC
:102F06000030FF3B7F087E04031D7F2F0034FE0048
:102F160012001E000130FE020030FF3B7F087E04D7
:102F2600031D8B2F003402303D00A10080302C00A1
:102F36009900980197011F08FC3901389F00080085
:102F4600320099019B0140309D0006309F009E0192
:102F56001C1CAE2FAF2FAB2F080020002108A300AA
:102F66002008A2002208260095002000230826003B
:102F7600960008002000A1002108A000A00DA00DC9
:102F860021001D08200020060339200621009D008F
:102F96001D14080020001B1DD12FD22FD92F1B1066
:102FA60071089A00700899001B14DD2F71089A00A9
:102FB6007008990008008230220097009731682730
:102FC600973105309731BD2797312000E201E301A3
:102FD6008931EC219731080021003B082000A3002D
:102FE60021003A082000A200210039082000A10093
:102FF600210038082000A00008004A3475346E34D9
:1030060020342034323420343234303432343234C2
:103016000034313438343A34343439343A3435348B
:0C302600383400346C346C3473340034E3
:020000040001F9
:08000000FF3FFF3FFF3FFF3F00
:08000E008C3FFF35FF3FFF3F6F
:00000001FF
